{
	"contracts/simplecontract.sol": {
		"RegistroDeUsuariosComRecompensa": {
			"abi": [
				{
					"anonymous": false,
					"inputs": [
						{
							"indexed": true,
							"internalType": "address",
							"name": "carteira",
							"type": "address"
						},
						{
							"indexed": false,
							"internalType": "uint256",
							"name": "valor",
							"type": "uint256"
						}
					],
					"name": "RecompensaEnviada",
					"type": "event"
				},
				{
					"anonymous": false,
					"inputs": [
						{
							"indexed": true,
							"internalType": "address",
							"name": "carteira",
							"type": "address"
						},
						{
							"indexed": false,
							"internalType": "string",
							"name": "nome",
							"type": "string"
						}
					],
					"name": "UsuarioRegistrado",
					"type": "event"
				},
				{
					"inputs": [
						{
							"internalType": "address",
							"name": "carteira",
							"type": "address"
						}
					],
					"name": "consultarUsuario",
					"outputs": [
						{
							"internalType": "string",
							"name": "",
							"type": "string"
						},
						{
							"internalType": "bool",
							"name": "",
							"type": "bool"
						}
					],
					"stateMutability": "view",
					"type": "function"
				},
				{
					"inputs": [
						{
							"internalType": "address",
							"name": "carteira",
							"type": "address"
						}
					],
					"name": "recompensarUsuario",
					"outputs": [],
					"stateMutability": "nonpayable",
					"type": "function"
				},
				{
					"inputs": [
						{
							"internalType": "string",
							"name": "nome",
							"type": "string"
						}
					],
					"name": "registrarUsuario",
					"outputs": [],
					"stateMutability": "nonpayable",
					"type": "function"
				},
				{
					"inputs": [
						{
							"internalType": "address",
							"name": "",
							"type": "address"
						}
					],
					"name": "saldo",
					"outputs": [
						{
							"internalType": "uint256",
							"name": "",
							"type": "uint256"
						}
					],
					"stateMutability": "view",
					"type": "function"
				},
				{
					"inputs": [
						{
							"internalType": "address",
							"name": "",
							"type": "address"
						}
					],
					"name": "usuarios",
					"outputs": [
						{
							"internalType": "string",
							"name": "nome",
							"type": "string"
						},
						{
							"internalType": "bool",
							"name": "registrado",
							"type": "bool"
						}
					],
					"stateMutability": "view",
					"type": "function"
				}
			],
			"devdoc": {
				"kind": "dev",
				"methods": {},
				"version": 1
			},
			"evm": {
				"assembly": "    /* \"contracts/simplecontract.sol\":929:2936  contract RegistroDeUsuariosComRecompensa {... */\n  mstore(0x40, 0x80)\n  callvalue\n  dup1\n  iszero\n  tag_1\n  jumpi\n  revert(0x00, 0x00)\ntag_1:\n  pop\n  dataSize(sub_0)\n  dup1\n  dataOffset(sub_0)\n  0x00\n  codecopy\n  0x00\n  return\nstop\n\nsub_0: assembly {\n        /* \"contracts/simplecontract.sol\":929:2936  contract RegistroDeUsuariosComRecompensa {... */\n      mstore(0x40, 0x80)\n      callvalue\n      dup1\n      iszero\n      tag_1\n      jumpi\n      revert(0x00, 0x00)\n    tag_1:\n      pop\n      jumpi(tag_2, lt(calldatasize, 0x04))\n      shr(0xe0, calldataload(0x00))\n      dup1\n      0x422fb525\n      eq\n      tag_3\n      jumpi\n      dup1\n      0xada4823a\n      eq\n      tag_4\n      jumpi\n      dup1\n      0xbff59291\n      eq\n      tag_5\n      jumpi\n      dup1\n      0xcd4205bd\n      eq\n      tag_6\n      jumpi\n      dup1\n      0xf6b91ea9\n      eq\n      tag_7\n      jumpi\n    tag_2:\n      revert(0x00, 0x00)\n        /* \"contracts/simplecontract.sol\":1369:1409  mapping(address => uint256) public saldo */\n    tag_3:\n      tag_8\n      0x04\n      dup1\n      calldatasize\n      sub\n      dup2\n      add\n      swap1\n      tag_9\n      swap2\n      swap1\n      tag_10\n      jump\t// in\n    tag_9:\n      tag_11\n      jump\t// in\n    tag_8:\n      mload(0x40)\n      tag_12\n      swap2\n      swap1\n      tag_13\n      jump\t// in\n    tag_12:\n      mload(0x40)\n      dup1\n      swap2\n      sub\n      swap1\n      return\n        /* \"contracts/simplecontract.sol\":2594:2933  function recompensarUsuario(address carteira) external {... */\n    tag_4:\n      tag_14\n      0x04\n      dup1\n      calldatasize\n      sub\n      dup2\n      add\n      swap1\n      tag_15\n      swap2\n      swap1\n      tag_10\n      jump\t// in\n    tag_15:\n      tag_16\n      jump\t// in\n    tag_14:\n      stop\n        /* \"contracts/simplecontract.sol\":1753:2072  function registrarUsuario(string memory nome) external {... */\n    tag_5:\n      tag_17\n      0x04\n      dup1\n      calldatasize\n      sub\n      dup2\n      add\n      swap1\n      tag_18\n      swap2\n      swap1\n      tag_19\n      jump\t// in\n    tag_18:\n      tag_20\n      jump\t// in\n    tag_17:\n      stop\n        /* \"contracts/simplecontract.sol\":2187:2477  function consultarUsuario(address carteira)... */\n    tag_6:\n      tag_21\n      0x04\n      dup1\n      calldatasize\n      sub\n      dup2\n      add\n      swap1\n      tag_22\n      swap2\n      swap1\n      tag_10\n      jump\t// in\n    tag_22:\n      tag_23\n      jump\t// in\n    tag_21:\n      mload(0x40)\n      tag_24\n      swap3\n      swap2\n      swap1\n      tag_25\n      jump\t// in\n    tag_24:\n      mload(0x40)\n      dup1\n      swap2\n      sub\n      swap1\n      return\n        /* \"contracts/simplecontract.sol\":1280:1323  mapping(address => Usuario) public usuarios */\n    tag_7:\n      tag_26\n      0x04\n      dup1\n      calldatasize\n      sub\n      dup2\n      add\n      swap1\n      tag_27\n      swap2\n      swap1\n      tag_10\n      jump\t// in\n    tag_27:\n      tag_28\n      jump\t// in\n    tag_26:\n      mload(0x40)\n      tag_29\n      swap3\n      swap2\n      swap1\n      tag_25\n      jump\t// in\n    tag_29:\n      mload(0x40)\n      dup1\n      swap2\n      sub\n      swap1\n      return\n        /* \"contracts/simplecontract.sol\":1369:1409  mapping(address => uint256) public saldo */\n    tag_11:\n      mstore(0x20, 0x01)\n      dup1\n      0x00\n      mstore\n      keccak256(0x00, 0x40)\n      0x00\n      swap2\n      pop\n      swap1\n      pop\n      sload\n      dup2\n      jump\t// out\n        /* \"contracts/simplecontract.sol\":2594:2933  function recompensarUsuario(address carteira) external {... */\n    tag_16:\n        /* \"contracts/simplecontract.sol\":2690:2691  0 */\n      0x00\n        /* \"contracts/simplecontract.sol\":2670:2692  carteira != address(0) */\n      0xffffffffffffffffffffffffffffffffffffffff\n      and\n        /* \"contracts/simplecontract.sol\":2670:2678  carteira */\n      dup2\n        /* \"contracts/simplecontract.sol\":2670:2692  carteira != address(0) */\n      0xffffffffffffffffffffffffffffffffffffffff\n      and\n      sub\n        /* \"contracts/simplecontract.sol\":2662:2714  require(carteira != address(0), \"Endereco invalido\") */\n      tag_31\n      jumpi\n      mload(0x40)\n      0x08c379a000000000000000000000000000000000000000000000000000000000\n      dup2\n      mstore\n      0x04\n      add\n      tag_32\n      swap1\n      tag_33\n      jump\t// in\n    tag_32:\n      mload(0x40)\n      dup1\n      swap2\n      sub\n      swap1\n      revert\n    tag_31:\n        /* \"contracts/simplecontract.sol\":2733:2741  usuarios */\n      0x00\n        /* \"contracts/simplecontract.sol\":2733:2751  usuarios[carteira] */\n      0x00\n        /* \"contracts/simplecontract.sol\":2742:2750  carteira */\n      dup3\n        /* \"contracts/simplecontract.sol\":2733:2751  usuarios[carteira] */\n      0xffffffffffffffffffffffffffffffffffffffff\n      and\n      0xffffffffffffffffffffffffffffffffffffffff\n      and\n      dup2\n      mstore\n      0x20\n      add\n      swap1\n      dup2\n      mstore\n      0x20\n      add\n      0x00\n      keccak256\n        /* \"contracts/simplecontract.sol\":2733:2762  usuarios[carteira].registrado */\n      0x01\n      add\n      0x00\n      swap1\n      sload\n      swap1\n      0x0100\n      exp\n      swap1\n      div\n      0xff\n      and\n        /* \"contracts/simplecontract.sol\":2725:2789  require(usuarios[carteira].registrado, \"Usuario nao registrado\") */\n      tag_34\n      jumpi\n      mload(0x40)\n      0x08c379a000000000000000000000000000000000000000000000000000000000\n      dup2\n      mstore\n      0x04\n      add\n      tag_35\n      swap1\n      tag_36\n      jump\t// in\n    tag_35:\n      mload(0x40)\n      dup1\n      swap2\n      sub\n      swap1\n      revert\n    tag_34:\n        /* \"contracts/simplecontract.sol\":2802:2820  uint256 recompensa */\n      0x00\n        /* \"contracts/simplecontract.sol\":2823:2826  100 */\n      0x64\n        /* \"contracts/simplecontract.sol\":2802:2826  uint256 recompensa = 100 */\n      swap1\n      pop\n        /* \"contracts/simplecontract.sol\":2858:2868  recompensa */\n      dup1\n        /* \"contracts/simplecontract.sol\":2839:2844  saldo */\n      0x01\n        /* \"contracts/simplecontract.sol\":2839:2854  saldo[carteira] */\n      0x00\n        /* \"contracts/simplecontract.sol\":2845:2853  carteira */\n      dup5\n        /* \"contracts/simplecontract.sol\":2839:2854  saldo[carteira] */\n      0xffffffffffffffffffffffffffffffffffffffff\n      and\n      0xffffffffffffffffffffffffffffffffffffffff\n      and\n      dup2\n      mstore\n      0x20\n      add\n      swap1\n      dup2\n      mstore\n      0x20\n      add\n      0x00\n      keccak256\n      0x00\n        /* \"contracts/simplecontract.sol\":2839:2868  saldo[carteira] += recompensa */\n      dup3\n      dup3\n      sload\n      tag_37\n      swap2\n      swap1\n      tag_38\n      jump\t// in\n    tag_37:\n      swap3\n      pop\n      pop\n      dup2\n      swap1\n      sstore\n      pop\n        /* \"contracts/simplecontract.sol\":2904:2912  carteira */\n      dup2\n        /* \"contracts/simplecontract.sol\":2886:2925  RecompensaEnviada(carteira, recompensa) */\n      0xffffffffffffffffffffffffffffffffffffffff\n      and\n      0x1bcb563f06dfe2f58c91fdc16d032cde9d4c33a28fdb436a8396445c36b07e12\n        /* \"contracts/simplecontract.sol\":2914:2924  recompensa */\n      dup3\n        /* \"contracts/simplecontract.sol\":2886:2925  RecompensaEnviada(carteira, recompensa) */\n      mload(0x40)\n      tag_39\n      swap2\n      swap1\n      tag_13\n      jump\t// in\n    tag_39:\n      mload(0x40)\n      dup1\n      swap2\n      sub\n      swap1\n      log2\n        /* \"contracts/simplecontract.sol\":2649:2933  {... */\n      pop\n        /* \"contracts/simplecontract.sol\":2594:2933  function recompensarUsuario(address carteira) external {... */\n      pop\n      jump\t// out\n        /* \"contracts/simplecontract.sol\":1753:2072  function registrarUsuario(string memory nome) external {... */\n    tag_20:\n        /* \"contracts/simplecontract.sol\":1830:1838  usuarios */\n      0x00\n        /* \"contracts/simplecontract.sol\":1830:1850  usuarios[msg.sender] */\n      0x00\n        /* \"contracts/simplecontract.sol\":1839:1849  msg.sender */\n      caller\n        /* \"contracts/simplecontract.sol\":1830:1850  usuarios[msg.sender] */\n      0xffffffffffffffffffffffffffffffffffffffff\n      and\n      0xffffffffffffffffffffffffffffffffffffffff\n      and\n      dup2\n      mstore\n      0x20\n      add\n      swap1\n      dup2\n      mstore\n      0x20\n      add\n      0x00\n      keccak256\n        /* \"contracts/simplecontract.sol\":1830:1861  usuarios[msg.sender].registrado */\n      0x01\n      add\n      0x00\n      swap1\n      sload\n      swap1\n      0x0100\n      exp\n      swap1\n      div\n      0xff\n      and\n        /* \"contracts/simplecontract.sol\":1829:1861  !usuarios[msg.sender].registrado */\n      iszero\n        /* \"contracts/simplecontract.sol\":1821:1887  require(!usuarios[msg.sender].registrado, \"Usuario ja registrado\") */\n      tag_41\n      jumpi\n      mload(0x40)\n      0x08c379a000000000000000000000000000000000000000000000000000000000\n      dup2\n      mstore\n      0x04\n      add\n      tag_42\n      swap1\n      tag_43\n      jump\t// in\n    tag_42:\n      mload(0x40)\n      dup1\n      swap2\n      sub\n      swap1\n      revert\n    tag_41:\n        /* \"contracts/simplecontract.sol\":1927:1928  0 */\n      0x00\n        /* \"contracts/simplecontract.sol\":1912:1916  nome */\n      dup2\n        /* \"contracts/simplecontract.sol\":1906:1924  bytes(nome).length */\n      mload\n        /* \"contracts/simplecontract.sol\":1906:1928  bytes(nome).length > 0 */\n      gt\n        /* \"contracts/simplecontract.sol\":1898:1956  require(bytes(nome).length > 0, \"Nome nao pode ser vazio\") */\n      tag_44\n      jumpi\n      mload(0x40)\n      0x08c379a000000000000000000000000000000000000000000000000000000000\n      dup2\n      mstore\n      0x04\n      add\n      tag_45\n      swap1\n      tag_46\n      jump\t// in\n    tag_45:\n      mload(0x40)\n      dup1\n      swap2\n      sub\n      swap1\n      revert\n    tag_44:\n        /* \"contracts/simplecontract.sol\":1992:2011  Usuario(nome, true) */\n      mload(0x40)\n      dup1\n      0x40\n      add\n      0x40\n      mstore\n      dup1\n        /* \"contracts/simplecontract.sol\":2000:2004  nome */\n      dup3\n        /* \"contracts/simplecontract.sol\":1992:2011  Usuario(nome, true) */\n      dup2\n      mstore\n      0x20\n      add\n        /* \"contracts/simplecontract.sol\":2006:2010  true */\n      0x01\n        /* \"contracts/simplecontract.sol\":1992:2011  Usuario(nome, true) */\n      iszero\n      iszero\n      dup2\n      mstore\n      pop\n        /* \"contracts/simplecontract.sol\":1969:1977  usuarios */\n      0x00\n        /* \"contracts/simplecontract.sol\":1969:1989  usuarios[msg.sender] */\n      0x00\n        /* \"contracts/simplecontract.sol\":1978:1988  msg.sender */\n      caller\n        /* \"contracts/simplecontract.sol\":1969:1989  usuarios[msg.sender] */\n      0xffffffffffffffffffffffffffffffffffffffff\n      and\n      0xffffffffffffffffffffffffffffffffffffffff\n      and\n      dup2\n      mstore\n      0x20\n      add\n      swap1\n      dup2\n      mstore\n      0x20\n      add\n      0x00\n      keccak256\n        /* \"contracts/simplecontract.sol\":1969:2011  usuarios[msg.sender] = Usuario(nome, true) */\n      0x00\n      dup3\n      add\n      mload\n      dup2\n      0x00\n      add\n      swap1\n      dup2\n      tag_47\n      swap2\n      swap1\n      tag_48\n      jump\t// in\n    tag_47:\n      pop\n      0x20\n      dup3\n      add\n      mload\n      dup2\n      0x01\n      add\n      exp(0x0100, 0x00)\n      dup2\n      sload\n      dup2\n      0xff\n      mul\n      not\n      and\n      swap1\n      dup4\n      iszero\n      iszero\n      mul\n      or\n      swap1\n      sstore\n      pop\n      swap1\n      pop\n      pop\n        /* \"contracts/simplecontract.sol\":2047:2057  msg.sender */\n      caller\n        /* \"contracts/simplecontract.sol\":2029:2064  UsuarioRegistrado(msg.sender, nome) */\n      0xffffffffffffffffffffffffffffffffffffffff\n      and\n      0xf0d354cab265b1bf292b94572624046811677f8862a9ff57b736ea4e3a5a3e69\n        /* \"contracts/simplecontract.sol\":2059:2063  nome */\n      dup3\n        /* \"contracts/simplecontract.sol\":2029:2064  UsuarioRegistrado(msg.sender, nome) */\n      mload(0x40)\n      tag_49\n      swap2\n      swap1\n      tag_50\n      jump\t// in\n    tag_49:\n      mload(0x40)\n      dup1\n      swap2\n      sub\n      swap1\n      log2\n        /* \"contracts/simplecontract.sol\":1753:2072  function registrarUsuario(string memory nome) external {... */\n      pop\n      jump\t// out\n        /* \"contracts/simplecontract.sol\":2187:2477  function consultarUsuario(address carteira)... */\n    tag_23:\n        /* \"contracts/simplecontract.sol\":2281:2294  string memory */\n      0x60\n        /* \"contracts/simplecontract.sol\":2296:2300  bool */\n      0x00\n        /* \"contracts/simplecontract.sol\":2346:2347  0 */\n      0x00\n        /* \"contracts/simplecontract.sol\":2326:2348  carteira != address(0) */\n      0xffffffffffffffffffffffffffffffffffffffff\n      and\n        /* \"contracts/simplecontract.sol\":2326:2334  carteira */\n      dup4\n        /* \"contracts/simplecontract.sol\":2326:2348  carteira != address(0) */\n      0xffffffffffffffffffffffffffffffffffffffff\n      and\n      sub\n        /* \"contracts/simplecontract.sol\":2318:2370  require(carteira != address(0), \"Endereco invalido\") */\n      tag_52\n      jumpi\n      mload(0x40)\n      0x08c379a000000000000000000000000000000000000000000000000000000000\n      dup2\n      mstore\n      0x04\n      add\n      tag_53\n      swap1\n      tag_33\n      jump\t// in\n    tag_53:\n      mload(0x40)\n      dup1\n      swap2\n      sub\n      swap1\n      revert\n    tag_52:\n        /* \"contracts/simplecontract.sol\":2383:2402  Usuario memory user */\n      0x00\n        /* \"contracts/simplecontract.sol\":2405:2413  usuarios */\n      0x00\n        /* \"contracts/simplecontract.sol\":2405:2423  usuarios[carteira] */\n      0x00\n        /* \"contracts/simplecontract.sol\":2414:2422  carteira */\n      dup6\n        /* \"contracts/simplecontract.sol\":2405:2423  usuarios[carteira] */\n      0xffffffffffffffffffffffffffffffffffffffff\n      and\n      0xffffffffffffffffffffffffffffffffffffffff\n      and\n      dup2\n      mstore\n      0x20\n      add\n      swap1\n      dup2\n      mstore\n      0x20\n      add\n      0x00\n      keccak256\n        /* \"contracts/simplecontract.sol\":2383:2423  Usuario memory user = usuarios[carteira] */\n      mload(0x40)\n      dup1\n      0x40\n      add\n      0x40\n      mstore\n      swap1\n      dup2\n      0x00\n      dup3\n      add\n      dup1\n      sload\n      tag_54\n      swap1\n      tag_55\n      jump\t// in\n    tag_54:\n      dup1\n      0x1f\n      add\n      0x20\n      dup1\n      swap2\n      div\n      mul\n      0x20\n      add\n      mload(0x40)\n      swap1\n      dup2\n      add\n      0x40\n      mstore\n      dup1\n      swap3\n      swap2\n      swap1\n      dup2\n      dup2\n      mstore\n      0x20\n      add\n      dup3\n      dup1\n      sload\n      tag_56\n      swap1\n      tag_55\n      jump\t// in\n    tag_56:\n      dup1\n      iszero\n      tag_57\n      jumpi\n      dup1\n      0x1f\n      lt\n      tag_58\n      jumpi\n      0x0100\n      dup1\n      dup4\n      sload\n      div\n      mul\n      dup4\n      mstore\n      swap2\n      0x20\n      add\n      swap2\n      jump(tag_57)\n    tag_58:\n      dup3\n      add\n      swap2\n      swap1\n      0x00\n      mstore\n      keccak256(0x00, 0x20)\n      swap1\n    tag_59:\n      dup2\n      sload\n      dup2\n      mstore\n      swap1\n      0x01\n      add\n      swap1\n      0x20\n      add\n      dup1\n      dup4\n      gt\n      tag_59\n      jumpi\n      dup3\n      swap1\n      sub\n      0x1f\n      and\n      dup3\n      add\n      swap2\n    tag_57:\n      pop\n      pop\n      pop\n      pop\n      pop\n      dup2\n      mstore\n      0x20\n      add\n      0x01\n      dup3\n      add\n      0x00\n      swap1\n      sload\n      swap1\n      0x0100\n      exp\n      swap1\n      div\n      0xff\n      and\n      iszero\n      iszero\n      iszero\n      iszero\n      dup2\n      mstore\n      pop\n      pop\n      swap1\n      pop\n        /* \"contracts/simplecontract.sol\":2442:2446  user */\n      dup1\n        /* \"contracts/simplecontract.sol\":2442:2451  user.nome */\n      0x00\n      add\n      mload\n        /* \"contracts/simplecontract.sol\":2453:2457  user */\n      dup2\n        /* \"contracts/simplecontract.sol\":2453:2468  user.registrado */\n      0x20\n      add\n      mload\n        /* \"contracts/simplecontract.sol\":2434:2469  return (user.nome, user.registrado) */\n      swap3\n      pop\n      swap3\n      pop\n      pop\n        /* \"contracts/simplecontract.sol\":2187:2477  function consultarUsuario(address carteira)... */\n      swap2\n      pop\n      swap2\n      jump\t// out\n        /* \"contracts/simplecontract.sol\":1280:1323  mapping(address => Usuario) public usuarios */\n    tag_28:\n      mstore(0x20, 0x00)\n      dup1\n      0x00\n      mstore\n      keccak256(0x00, 0x40)\n      0x00\n      swap2\n      pop\n      swap1\n      pop\n      dup1\n      0x00\n      add\n      dup1\n      sload\n      tag_60\n      swap1\n      tag_55\n      jump\t// in\n    tag_60:\n      dup1\n      0x1f\n      add\n      0x20\n      dup1\n      swap2\n      div\n      mul\n      0x20\n      add\n      mload(0x40)\n      swap1\n      dup2\n      add\n      0x40\n      mstore\n      dup1\n      swap3\n      swap2\n      swap1\n      dup2\n      dup2\n      mstore\n      0x20\n      add\n      dup3\n      dup1\n      sload\n      tag_61\n      swap1\n      tag_55\n      jump\t// in\n    tag_61:\n      dup1\n      iszero\n      tag_62\n      jumpi\n      dup1\n      0x1f\n      lt\n      tag_63\n      jumpi\n      0x0100\n      dup1\n      dup4\n      sload\n      div\n      mul\n      dup4\n      mstore\n      swap2\n      0x20\n      add\n      swap2\n      jump(tag_62)\n    tag_63:\n      dup3\n      add\n      swap2\n      swap1\n      0x00\n      mstore\n      keccak256(0x00, 0x20)\n      swap1\n    tag_64:\n      dup2\n      sload\n      dup2\n      mstore\n      swap1\n      0x01\n      add\n      swap1\n      0x20\n      add\n      dup1\n      dup4\n      gt\n      tag_64\n      jumpi\n      dup3\n      swap1\n      sub\n      0x1f\n      and\n      dup3\n      add\n      swap2\n    tag_62:\n      pop\n      pop\n      pop\n      pop\n      pop\n      swap1\n      dup1\n      0x01\n      add\n      0x00\n      swap1\n      sload\n      swap1\n      0x0100\n      exp\n      swap1\n      div\n      0xff\n      and\n      swap1\n      pop\n      dup3\n      jump\t// out\n        /* \"#utility.yul\":7:82   */\n    tag_65:\n        /* \"#utility.yul\":40:46   */\n      0x00\n        /* \"#utility.yul\":73:75   */\n      0x40\n        /* \"#utility.yul\":67:76   */\n      mload\n        /* \"#utility.yul\":57:76   */\n      swap1\n      pop\n        /* \"#utility.yul\":7:82   */\n      swap1\n      jump\t// out\n        /* \"#utility.yul\":88:205   */\n    tag_66:\n        /* \"#utility.yul\":197:198   */\n      0x00\n        /* \"#utility.yul\":194:195   */\n      0x00\n        /* \"#utility.yul\":187:199   */\n      revert\n        /* \"#utility.yul\":211:328   */\n    tag_67:\n        /* \"#utility.yul\":320:321   */\n      0x00\n        /* \"#utility.yul\":317:318   */\n      0x00\n        /* \"#utility.yul\":310:322   */\n      revert\n        /* \"#utility.yul\":334:460   */\n    tag_68:\n        /* \"#utility.yul\":371:378   */\n      0x00\n        /* \"#utility.yul\":411:453   */\n      0xffffffffffffffffffffffffffffffffffffffff\n        /* \"#utility.yul\":404:409   */\n      dup3\n        /* \"#utility.yul\":400:454   */\n      and\n        /* \"#utility.yul\":389:454   */\n      swap1\n      pop\n        /* \"#utility.yul\":334:460   */\n      swap2\n      swap1\n      pop\n      jump\t// out\n        /* \"#utility.yul\":466:562   */\n    tag_69:\n        /* \"#utility.yul\":503:510   */\n      0x00\n        /* \"#utility.yul\":532:556   */\n      tag_121\n        /* \"#utility.yul\":550:555   */\n      dup3\n        /* \"#utility.yul\":532:556   */\n      tag_68\n      jump\t// in\n    tag_121:\n        /* \"#utility.yul\":521:556   */\n      swap1\n      pop\n        /* \"#utility.yul\":466:562   */\n      swap2\n      swap1\n      pop\n      jump\t// out\n        /* \"#utility.yul\":568:690   */\n    tag_70:\n        /* \"#utility.yul\":641:665   */\n      tag_123\n        /* \"#utility.yul\":659:664   */\n      dup2\n        /* \"#utility.yul\":641:665   */\n      tag_69\n      jump\t// in\n    tag_123:\n        /* \"#utility.yul\":634:639   */\n      dup2\n        /* \"#utility.yul\":631:666   */\n      eq\n        /* \"#utility.yul\":621:684   */\n      tag_124\n      jumpi\n        /* \"#utility.yul\":680:681   */\n      0x00\n        /* \"#utility.yul\":677:678   */\n      0x00\n        /* \"#utility.yul\":670:682   */\n      revert\n        /* \"#utility.yul\":621:684   */\n    tag_124:\n        /* \"#utility.yul\":568:690   */\n      pop\n      jump\t// out\n        /* \"#utility.yul\":696:835   */\n    tag_71:\n        /* \"#utility.yul\":742:747   */\n      0x00\n        /* \"#utility.yul\":780:786   */\n      dup2\n        /* \"#utility.yul\":767:787   */\n      calldataload\n        /* \"#utility.yul\":758:787   */\n      swap1\n      pop\n        /* \"#utility.yul\":796:829   */\n      tag_126\n        /* \"#utility.yul\":823:828   */\n      dup2\n        /* \"#utility.yul\":796:829   */\n      tag_70\n      jump\t// in\n    tag_126:\n        /* \"#utility.yul\":696:835   */\n      swap3\n      swap2\n      pop\n      pop\n      jump\t// out\n        /* \"#utility.yul\":841:1170   */\n    tag_10:\n        /* \"#utility.yul\":900:906   */\n      0x00\n        /* \"#utility.yul\":949:951   */\n      0x20\n        /* \"#utility.yul\":937:946   */\n      dup3\n        /* \"#utility.yul\":928:935   */\n      dup5\n        /* \"#utility.yul\":924:947   */\n      sub\n        /* \"#utility.yul\":920:952   */\n      slt\n        /* \"#utility.yul\":917:1036   */\n      iszero\n      tag_128\n      jumpi\n        /* \"#utility.yul\":955:1034   */\n      tag_129\n      tag_66\n      jump\t// in\n    tag_129:\n        /* \"#utility.yul\":917:1036   */\n    tag_128:\n        /* \"#utility.yul\":1075:1076   */\n      0x00\n        /* \"#utility.yul\":1100:1153   */\n      tag_130\n        /* \"#utility.yul\":1145:1152   */\n      dup5\n        /* \"#utility.yul\":1136:1142   */\n      dup3\n        /* \"#utility.yul\":1125:1134   */\n      dup6\n        /* \"#utility.yul\":1121:1143   */\n      add\n        /* \"#utility.yul\":1100:1153   */\n      tag_71\n      jump\t// in\n    tag_130:\n        /* \"#utility.yul\":1090:1153   */\n      swap2\n      pop\n        /* \"#utility.yul\":1046:1163   */\n      pop\n        /* \"#utility.yul\":841:1170   */\n      swap3\n      swap2\n      pop\n      pop\n      jump\t// out\n        /* \"#utility.yul\":1176:1253   */\n    tag_72:\n        /* \"#utility.yul\":1213:1220   */\n      0x00\n        /* \"#utility.yul\":1242:1247   */\n      dup2\n        /* \"#utility.yul\":1231:1247   */\n      swap1\n      pop\n        /* \"#utility.yul\":1176:1253   */\n      swap2\n      swap1\n      pop\n      jump\t// out\n        /* \"#utility.yul\":1259:1377   */\n    tag_73:\n        /* \"#utility.yul\":1346:1370   */\n      tag_133\n        /* \"#utility.yul\":1364:1369   */\n      dup2\n        /* \"#utility.yul\":1346:1370   */\n      tag_72\n      jump\t// in\n    tag_133:\n        /* \"#utility.yul\":1341:1344   */\n      dup3\n        /* \"#utility.yul\":1334:1371   */\n      mstore\n        /* \"#utility.yul\":1259:1377   */\n      pop\n      pop\n      jump\t// out\n        /* \"#utility.yul\":1383:1605   */\n    tag_13:\n        /* \"#utility.yul\":1476:1480   */\n      0x00\n        /* \"#utility.yul\":1514:1516   */\n      0x20\n        /* \"#utility.yul\":1503:1512   */\n      dup3\n        /* \"#utility.yul\":1499:1517   */\n      add\n        /* \"#utility.yul\":1491:1517   */\n      swap1\n      pop\n        /* \"#utility.yul\":1527:1598   */\n      tag_135\n        /* \"#utility.yul\":1595:1596   */\n      0x00\n        /* \"#utility.yul\":1584:1593   */\n      dup4\n        /* \"#utility.yul\":1580:1597   */\n      add\n        /* \"#utility.yul\":1571:1577   */\n      dup5\n        /* \"#utility.yul\":1527:1598   */\n      tag_73\n      jump\t// in\n    tag_135:\n        /* \"#utility.yul\":1383:1605   */\n      swap3\n      swap2\n      pop\n      pop\n      jump\t// out\n        /* \"#utility.yul\":1611:1728   */\n    tag_74:\n        /* \"#utility.yul\":1720:1721   */\n      0x00\n        /* \"#utility.yul\":1717:1718   */\n      0x00\n        /* \"#utility.yul\":1710:1722   */\n      revert\n        /* \"#utility.yul\":1734:1851   */\n    tag_75:\n        /* \"#utility.yul\":1843:1844   */\n      0x00\n        /* \"#utility.yul\":1840:1841   */\n      0x00\n        /* \"#utility.yul\":1833:1845   */\n      revert\n        /* \"#utility.yul\":1857:1959   */\n    tag_76:\n        /* \"#utility.yul\":1898:1904   */\n      0x00\n        /* \"#utility.yul\":1949:1951   */\n      0x1f\n        /* \"#utility.yul\":1945:1952   */\n      not\n        /* \"#utility.yul\":1940:1942   */\n      0x1f\n        /* \"#utility.yul\":1933:1938   */\n      dup4\n        /* \"#utility.yul\":1929:1943   */\n      add\n        /* \"#utility.yul\":1925:1953   */\n      and\n        /* \"#utility.yul\":1915:1953   */\n      swap1\n      pop\n        /* \"#utility.yul\":1857:1959   */\n      swap2\n      swap1\n      pop\n      jump\t// out\n        /* \"#utility.yul\":1965:2145   */\n    tag_77:\n        /* \"#utility.yul\":2013:2090   */\n      0x4e487b7100000000000000000000000000000000000000000000000000000000\n        /* \"#utility.yul\":2010:2011   */\n      0x00\n        /* \"#utility.yul\":2003:2091   */\n      mstore\n        /* \"#utility.yul\":2110:2114   */\n      0x41\n        /* \"#utility.yul\":2107:2108   */\n      0x04\n        /* \"#utility.yul\":2100:2115   */\n      mstore\n        /* \"#utility.yul\":2134:2138   */\n      0x24\n        /* \"#utility.yul\":2131:2132   */\n      0x00\n        /* \"#utility.yul\":2124:2139   */\n      revert\n        /* \"#utility.yul\":2151:2432   */\n    tag_78:\n        /* \"#utility.yul\":2234:2261   */\n      tag_141\n        /* \"#utility.yul\":2256:2260   */\n      dup3\n        /* \"#utility.yul\":2234:2261   */\n      tag_76\n      jump\t// in\n    tag_141:\n        /* \"#utility.yul\":2226:2232   */\n      dup2\n        /* \"#utility.yul\":2222:2262   */\n      add\n        /* \"#utility.yul\":2364:2370   */\n      dup2\n        /* \"#utility.yul\":2352:2362   */\n      dup2\n        /* \"#utility.yul\":2349:2371   */\n      lt\n        /* \"#utility.yul\":2328:2346   */\n      0xffffffffffffffff\n        /* \"#utility.yul\":2316:2326   */\n      dup3\n        /* \"#utility.yul\":2313:2347   */\n      gt\n        /* \"#utility.yul\":2310:2372   */\n      or\n        /* \"#utility.yul\":2307:2395   */\n      iszero\n      tag_142\n      jumpi\n        /* \"#utility.yul\":2375:2393   */\n      tag_143\n      tag_77\n      jump\t// in\n    tag_143:\n        /* \"#utility.yul\":2307:2395   */\n    tag_142:\n        /* \"#utility.yul\":2415:2425   */\n      dup1\n        /* \"#utility.yul\":2411:2413   */\n      0x40\n        /* \"#utility.yul\":2404:2426   */\n      mstore\n        /* \"#utility.yul\":2194:2432   */\n      pop\n        /* \"#utility.yul\":2151:2432   */\n      pop\n      pop\n      jump\t// out\n        /* \"#utility.yul\":2438:2567   */\n    tag_79:\n        /* \"#utility.yul\":2472:2478   */\n      0x00\n        /* \"#utility.yul\":2499:2519   */\n      tag_145\n      tag_65\n      jump\t// in\n    tag_145:\n        /* \"#utility.yul\":2489:2519   */\n      swap1\n      pop\n        /* \"#utility.yul\":2528:2561   */\n      tag_146\n        /* \"#utility.yul\":2556:2560   */\n      dup3\n        /* \"#utility.yul\":2548:2554   */\n      dup3\n        /* \"#utility.yul\":2528:2561   */\n      tag_78\n      jump\t// in\n    tag_146:\n        /* \"#utility.yul\":2438:2567   */\n      swap2\n      swap1\n      pop\n      jump\t// out\n        /* \"#utility.yul\":2573:2881   */\n    tag_80:\n        /* \"#utility.yul\":2635:2639   */\n      0x00\n        /* \"#utility.yul\":2725:2743   */\n      0xffffffffffffffff\n        /* \"#utility.yul\":2717:2723   */\n      dup3\n        /* \"#utility.yul\":2714:2744   */\n      gt\n        /* \"#utility.yul\":2711:2767   */\n      iszero\n      tag_148\n      jumpi\n        /* \"#utility.yul\":2747:2765   */\n      tag_149\n      tag_77\n      jump\t// in\n    tag_149:\n        /* \"#utility.yul\":2711:2767   */\n    tag_148:\n        /* \"#utility.yul\":2785:2814   */\n      tag_150\n        /* \"#utility.yul\":2807:2813   */\n      dup3\n        /* \"#utility.yul\":2785:2814   */\n      tag_76\n      jump\t// in\n    tag_150:\n        /* \"#utility.yul\":2777:2814   */\n      swap1\n      pop\n        /* \"#utility.yul\":2869:2873   */\n      0x20\n        /* \"#utility.yul\":2863:2867   */\n      dup2\n        /* \"#utility.yul\":2859:2874   */\n      add\n        /* \"#utility.yul\":2851:2874   */\n      swap1\n      pop\n        /* \"#utility.yul\":2573:2881   */\n      swap2\n      swap1\n      pop\n      jump\t// out\n        /* \"#utility.yul\":2887:3035   */\n    tag_81:\n        /* \"#utility.yul\":2985:2991   */\n      dup3\n        /* \"#utility.yul\":2980:2983   */\n      dup2\n        /* \"#utility.yul\":2975:2978   */\n      dup4\n        /* \"#utility.yul\":2962:2992   */\n      calldatacopy\n        /* \"#utility.yul\":3026:3027   */\n      0x00\n        /* \"#utility.yul\":3017:3023   */\n      dup4\n        /* \"#utility.yul\":3012:3015   */\n      dup4\n        /* \"#utility.yul\":3008:3024   */\n      add\n        /* \"#utility.yul\":3001:3028   */\n      mstore\n        /* \"#utility.yul\":2887:3035   */\n      pop\n      pop\n      pop\n      jump\t// out\n        /* \"#utility.yul\":3041:3466   */\n    tag_82:\n        /* \"#utility.yul\":3119:3124   */\n      0x00\n        /* \"#utility.yul\":3144:3210   */\n      tag_153\n        /* \"#utility.yul\":3160:3209   */\n      tag_154\n        /* \"#utility.yul\":3202:3208   */\n      dup5\n        /* \"#utility.yul\":3160:3209   */\n      tag_80\n      jump\t// in\n    tag_154:\n        /* \"#utility.yul\":3144:3210   */\n      tag_79\n      jump\t// in\n    tag_153:\n        /* \"#utility.yul\":3135:3210   */\n      swap1\n      pop\n        /* \"#utility.yul\":3233:3239   */\n      dup3\n        /* \"#utility.yul\":3226:3231   */\n      dup2\n        /* \"#utility.yul\":3219:3240   */\n      mstore\n        /* \"#utility.yul\":3271:3275   */\n      0x20\n        /* \"#utility.yul\":3264:3269   */\n      dup2\n        /* \"#utility.yul\":3260:3276   */\n      add\n        /* \"#utility.yul\":3309:3312   */\n      dup5\n        /* \"#utility.yul\":3300:3306   */\n      dup5\n        /* \"#utility.yul\":3295:3298   */\n      dup5\n        /* \"#utility.yul\":3291:3307   */\n      add\n        /* \"#utility.yul\":3288:3313   */\n      gt\n        /* \"#utility.yul\":3285:3397   */\n      iszero\n      tag_155\n      jumpi\n        /* \"#utility.yul\":3316:3395   */\n      tag_156\n      tag_75\n      jump\t// in\n    tag_156:\n        /* \"#utility.yul\":3285:3397   */\n    tag_155:\n        /* \"#utility.yul\":3406:3460   */\n      tag_157\n        /* \"#utility.yul\":3453:3459   */\n      dup5\n        /* \"#utility.yul\":3448:3451   */\n      dup3\n        /* \"#utility.yul\":3443:3446   */\n      dup6\n        /* \"#utility.yul\":3406:3460   */\n      tag_81\n      jump\t// in\n    tag_157:\n        /* \"#utility.yul\":3125:3466   */\n      pop\n        /* \"#utility.yul\":3041:3466   */\n      swap4\n      swap3\n      pop\n      pop\n      pop\n      jump\t// out\n        /* \"#utility.yul\":3486:3826   */\n    tag_83:\n        /* \"#utility.yul\":3542:3547   */\n      0x00\n        /* \"#utility.yul\":3591:3594   */\n      dup3\n        /* \"#utility.yul\":3584:3588   */\n      0x1f\n        /* \"#utility.yul\":3576:3582   */\n      dup4\n        /* \"#utility.yul\":3572:3589   */\n      add\n        /* \"#utility.yul\":3568:3595   */\n      slt\n        /* \"#utility.yul\":3558:3680   */\n      tag_159\n      jumpi\n        /* \"#utility.yul\":3599:3678   */\n      tag_160\n      tag_74\n      jump\t// in\n    tag_160:\n        /* \"#utility.yul\":3558:3680   */\n    tag_159:\n        /* \"#utility.yul\":3716:3722   */\n      dup2\n        /* \"#utility.yul\":3703:3723   */\n      calldataload\n        /* \"#utility.yul\":3741:3820   */\n      tag_161\n        /* \"#utility.yul\":3816:3819   */\n      dup5\n        /* \"#utility.yul\":3808:3814   */\n      dup3\n        /* \"#utility.yul\":3801:3805   */\n      0x20\n        /* \"#utility.yul\":3793:3799   */\n      dup7\n        /* \"#utility.yul\":3789:3806   */\n      add\n        /* \"#utility.yul\":3741:3820   */\n      tag_82\n      jump\t// in\n    tag_161:\n        /* \"#utility.yul\":3732:3820   */\n      swap2\n      pop\n        /* \"#utility.yul\":3548:3826   */\n      pop\n        /* \"#utility.yul\":3486:3826   */\n      swap3\n      swap2\n      pop\n      pop\n      jump\t// out\n        /* \"#utility.yul\":3832:4341   */\n    tag_19:\n        /* \"#utility.yul\":3901:3907   */\n      0x00\n        /* \"#utility.yul\":3950:3952   */\n      0x20\n        /* \"#utility.yul\":3938:3947   */\n      dup3\n        /* \"#utility.yul\":3929:3936   */\n      dup5\n        /* \"#utility.yul\":3925:3948   */\n      sub\n        /* \"#utility.yul\":3921:3953   */\n      slt\n        /* \"#utility.yul\":3918:4037   */\n      iszero\n      tag_163\n      jumpi\n        /* \"#utility.yul\":3956:4035   */\n      tag_164\n      tag_66\n      jump\t// in\n    tag_164:\n        /* \"#utility.yul\":3918:4037   */\n    tag_163:\n        /* \"#utility.yul\":4104:4105   */\n      0x00\n        /* \"#utility.yul\":4093:4102   */\n      dup3\n        /* \"#utility.yul\":4089:4106   */\n      add\n        /* \"#utility.yul\":4076:4107   */\n      calldataload\n        /* \"#utility.yul\":4134:4152   */\n      0xffffffffffffffff\n        /* \"#utility.yul\":4126:4132   */\n      dup2\n        /* \"#utility.yul\":4123:4153   */\n      gt\n        /* \"#utility.yul\":4120:4237   */\n      iszero\n      tag_165\n      jumpi\n        /* \"#utility.yul\":4156:4235   */\n      tag_166\n      tag_67\n      jump\t// in\n    tag_166:\n        /* \"#utility.yul\":4120:4237   */\n    tag_165:\n        /* \"#utility.yul\":4261:4324   */\n      tag_167\n        /* \"#utility.yul\":4316:4323   */\n      dup5\n        /* \"#utility.yul\":4307:4313   */\n      dup3\n        /* \"#utility.yul\":4296:4305   */\n      dup6\n        /* \"#utility.yul\":4292:4314   */\n      add\n        /* \"#utility.yul\":4261:4324   */\n      tag_83\n      jump\t// in\n    tag_167:\n        /* \"#utility.yul\":4251:4324   */\n      swap2\n      pop\n        /* \"#utility.yul\":4047:4334   */\n      pop\n        /* \"#utility.yul\":3832:4341   */\n      swap3\n      swap2\n      pop\n      pop\n      jump\t// out\n        /* \"#utility.yul\":4347:4446   */\n    tag_84:\n        /* \"#utility.yul\":4399:4405   */\n      0x00\n        /* \"#utility.yul\":4433:4438   */\n      dup2\n        /* \"#utility.yul\":4427:4439   */\n      mload\n        /* \"#utility.yul\":4417:4439   */\n      swap1\n      pop\n        /* \"#utility.yul\":4347:4446   */\n      swap2\n      swap1\n      pop\n      jump\t// out\n        /* \"#utility.yul\":4452:4621   */\n    tag_85:\n        /* \"#utility.yul\":4536:4547   */\n      0x00\n        /* \"#utility.yul\":4570:4576   */\n      dup3\n        /* \"#utility.yul\":4565:4568   */\n      dup3\n        /* \"#utility.yul\":4558:4577   */\n      mstore\n        /* \"#utility.yul\":4610:4614   */\n      0x20\n        /* \"#utility.yul\":4605:4608   */\n      dup3\n        /* \"#utility.yul\":4601:4615   */\n      add\n        /* \"#utility.yul\":4586:4615   */\n      swap1\n      pop\n        /* \"#utility.yul\":4452:4621   */\n      swap3\n      swap2\n      pop\n      pop\n      jump\t// out\n        /* \"#utility.yul\":4627:4766   */\n    tag_86:\n        /* \"#utility.yul\":4716:4722   */\n      dup3\n        /* \"#utility.yul\":4711:4714   */\n      dup2\n        /* \"#utility.yul\":4706:4709   */\n      dup4\n        /* \"#utility.yul\":4700:4723   */\n      mcopy\n        /* \"#utility.yul\":4757:4758   */\n      0x00\n        /* \"#utility.yul\":4748:4754   */\n      dup4\n        /* \"#utility.yul\":4743:4746   */\n      dup4\n        /* \"#utility.yul\":4739:4755   */\n      add\n        /* \"#utility.yul\":4732:4759   */\n      mstore\n        /* \"#utility.yul\":4627:4766   */\n      pop\n      pop\n      pop\n      jump\t// out\n        /* \"#utility.yul\":4772:5149   */\n    tag_87:\n        /* \"#utility.yul\":4860:4863   */\n      0x00\n        /* \"#utility.yul\":4888:4927   */\n      tag_172\n        /* \"#utility.yul\":4921:4926   */\n      dup3\n        /* \"#utility.yul\":4888:4927   */\n      tag_84\n      jump\t// in\n    tag_172:\n        /* \"#utility.yul\":4943:5014   */\n      tag_173\n        /* \"#utility.yul\":5007:5013   */\n      dup2\n        /* \"#utility.yul\":5002:5005   */\n      dup6\n        /* \"#utility.yul\":4943:5014   */\n      tag_85\n      jump\t// in\n    tag_173:\n        /* \"#utility.yul\":4936:5014   */\n      swap4\n      pop\n        /* \"#utility.yul\":5023:5088   */\n      tag_174\n        /* \"#utility.yul\":5081:5087   */\n      dup2\n        /* \"#utility.yul\":5076:5079   */\n      dup6\n        /* \"#utility.yul\":5069:5073   */\n      0x20\n        /* \"#utility.yul\":5062:5067   */\n      dup7\n        /* \"#utility.yul\":5058:5074   */\n      add\n        /* \"#utility.yul\":5023:5088   */\n      tag_86\n      jump\t// in\n    tag_174:\n        /* \"#utility.yul\":5113:5142   */\n      tag_175\n        /* \"#utility.yul\":5135:5141   */\n      dup2\n        /* \"#utility.yul\":5113:5142   */\n      tag_76\n      jump\t// in\n    tag_175:\n        /* \"#utility.yul\":5108:5111   */\n      dup5\n        /* \"#utility.yul\":5104:5143   */\n      add\n        /* \"#utility.yul\":5097:5143   */\n      swap2\n      pop\n        /* \"#utility.yul\":4864:5149   */\n      pop\n        /* \"#utility.yul\":4772:5149   */\n      swap3\n      swap2\n      pop\n      pop\n      jump\t// out\n        /* \"#utility.yul\":5155:5245   */\n    tag_88:\n        /* \"#utility.yul\":5189:5196   */\n      0x00\n        /* \"#utility.yul\":5232:5237   */\n      dup2\n        /* \"#utility.yul\":5225:5238   */\n      iszero\n        /* \"#utility.yul\":5218:5239   */\n      iszero\n        /* \"#utility.yul\":5207:5239   */\n      swap1\n      pop\n        /* \"#utility.yul\":5155:5245   */\n      swap2\n      swap1\n      pop\n      jump\t// out\n        /* \"#utility.yul\":5251:5360   */\n    tag_89:\n        /* \"#utility.yul\":5332:5353   */\n      tag_178\n        /* \"#utility.yul\":5347:5352   */\n      dup2\n        /* \"#utility.yul\":5332:5353   */\n      tag_88\n      jump\t// in\n    tag_178:\n        /* \"#utility.yul\":5327:5330   */\n      dup3\n        /* \"#utility.yul\":5320:5354   */\n      mstore\n        /* \"#utility.yul\":5251:5360   */\n      pop\n      pop\n      jump\t// out\n        /* \"#utility.yul\":5366:5777   */\n    tag_25:\n        /* \"#utility.yul\":5501:5505   */\n      0x00\n        /* \"#utility.yul\":5539:5541   */\n      0x40\n        /* \"#utility.yul\":5528:5537   */\n      dup3\n        /* \"#utility.yul\":5524:5542   */\n      add\n        /* \"#utility.yul\":5516:5542   */\n      swap1\n      pop\n        /* \"#utility.yul\":5588:5597   */\n      dup2\n        /* \"#utility.yul\":5582:5586   */\n      dup2\n        /* \"#utility.yul\":5578:5598   */\n      sub\n        /* \"#utility.yul\":5574:5575   */\n      0x00\n        /* \"#utility.yul\":5563:5572   */\n      dup4\n        /* \"#utility.yul\":5559:5576   */\n      add\n        /* \"#utility.yul\":5552:5599   */\n      mstore\n        /* \"#utility.yul\":5616:5694   */\n      tag_180\n        /* \"#utility.yul\":5689:5693   */\n      dup2\n        /* \"#utility.yul\":5680:5686   */\n      dup6\n        /* \"#utility.yul\":5616:5694   */\n      tag_87\n      jump\t// in\n    tag_180:\n        /* \"#utility.yul\":5608:5694   */\n      swap1\n      pop\n        /* \"#utility.yul\":5704:5770   */\n      tag_181\n        /* \"#utility.yul\":5766:5768   */\n      0x20\n        /* \"#utility.yul\":5755:5764   */\n      dup4\n        /* \"#utility.yul\":5751:5769   */\n      add\n        /* \"#utility.yul\":5742:5748   */\n      dup5\n        /* \"#utility.yul\":5704:5770   */\n      tag_89\n      jump\t// in\n    tag_181:\n        /* \"#utility.yul\":5366:5777   */\n      swap4\n      swap3\n      pop\n      pop\n      pop\n      jump\t// out\n        /* \"#utility.yul\":5783:5950   */\n    tag_90:\n        /* \"#utility.yul\":5923:5942   */\n      0x456e64657265636f20696e76616c69646f000000000000000000000000000000\n        /* \"#utility.yul\":5919:5920   */\n      0x00\n        /* \"#utility.yul\":5911:5917   */\n      dup3\n        /* \"#utility.yul\":5907:5921   */\n      add\n        /* \"#utility.yul\":5900:5943   */\n      mstore\n        /* \"#utility.yul\":5783:5950   */\n      pop\n      jump\t// out\n        /* \"#utility.yul\":5956:6322   */\n    tag_91:\n        /* \"#utility.yul\":6098:6101   */\n      0x00\n        /* \"#utility.yul\":6119:6186   */\n      tag_184\n        /* \"#utility.yul\":6183:6185   */\n      0x11\n        /* \"#utility.yul\":6178:6181   */\n      dup4\n        /* \"#utility.yul\":6119:6186   */\n      tag_85\n      jump\t// in\n    tag_184:\n        /* \"#utility.yul\":6112:6186   */\n      swap2\n      pop\n        /* \"#utility.yul\":6195:6288   */\n      tag_185\n        /* \"#utility.yul\":6284:6287   */\n      dup3\n        /* \"#utility.yul\":6195:6288   */\n      tag_90\n      jump\t// in\n    tag_185:\n        /* \"#utility.yul\":6313:6315   */\n      0x20\n        /* \"#utility.yul\":6308:6311   */\n      dup3\n        /* \"#utility.yul\":6304:6316   */\n      add\n        /* \"#utility.yul\":6297:6316   */\n      swap1\n      pop\n        /* \"#utility.yul\":5956:6322   */\n      swap2\n      swap1\n      pop\n      jump\t// out\n        /* \"#utility.yul\":6328:6747   */\n    tag_33:\n        /* \"#utility.yul\":6494:6498   */\n      0x00\n        /* \"#utility.yul\":6532:6534   */\n      0x20\n        /* \"#utility.yul\":6521:6530   */\n      dup3\n        /* \"#utility.yul\":6517:6535   */\n      add\n        /* \"#utility.yul\":6509:6535   */\n      swap1\n      pop\n        /* \"#utility.yul\":6581:6590   */\n      dup2\n        /* \"#utility.yul\":6575:6579   */\n      dup2\n        /* \"#utility.yul\":6571:6591   */\n      sub\n        /* \"#utility.yul\":6567:6568   */\n      0x00\n        /* \"#utility.yul\":6556:6565   */\n      dup4\n        /* \"#utility.yul\":6552:6569   */\n      add\n        /* \"#utility.yul\":6545:6592   */\n      mstore\n        /* \"#utility.yul\":6609:6740   */\n      tag_187\n        /* \"#utility.yul\":6735:6739   */\n      dup2\n        /* \"#utility.yul\":6609:6740   */\n      tag_91\n      jump\t// in\n    tag_187:\n        /* \"#utility.yul\":6601:6740   */\n      swap1\n      pop\n        /* \"#utility.yul\":6328:6747   */\n      swap2\n      swap1\n      pop\n      jump\t// out\n        /* \"#utility.yul\":6753:6925   */\n    tag_92:\n        /* \"#utility.yul\":6893:6917   */\n      0x5573756172696f206e616f207265676973747261646f00000000000000000000\n        /* \"#utility.yul\":6889:6890   */\n      0x00\n        /* \"#utility.yul\":6881:6887   */\n      dup3\n        /* \"#utility.yul\":6877:6891   */\n      add\n        /* \"#utility.yul\":6870:6918   */\n      mstore\n        /* \"#utility.yul\":6753:6925   */\n      pop\n      jump\t// out\n        /* \"#utility.yul\":6931:7297   */\n    tag_93:\n        /* \"#utility.yul\":7073:7076   */\n      0x00\n        /* \"#utility.yul\":7094:7161   */\n      tag_190\n        /* \"#utility.yul\":7158:7160   */\n      0x16\n        /* \"#utility.yul\":7153:7156   */\n      dup4\n        /* \"#utility.yul\":7094:7161   */\n      tag_85\n      jump\t// in\n    tag_190:\n        /* \"#utility.yul\":7087:7161   */\n      swap2\n      pop\n        /* \"#utility.yul\":7170:7263   */\n      tag_191\n        /* \"#utility.yul\":7259:7262   */\n      dup3\n        /* \"#utility.yul\":7170:7263   */\n      tag_92\n      jump\t// in\n    tag_191:\n        /* \"#utility.yul\":7288:7290   */\n      0x20\n        /* \"#utility.yul\":7283:7286   */\n      dup3\n        /* \"#utility.yul\":7279:7291   */\n      add\n        /* \"#utility.yul\":7272:7291   */\n      swap1\n      pop\n        /* \"#utility.yul\":6931:7297   */\n      swap2\n      swap1\n      pop\n      jump\t// out\n        /* \"#utility.yul\":7303:7722   */\n    tag_36:\n        /* \"#utility.yul\":7469:7473   */\n      0x00\n        /* \"#utility.yul\":7507:7509   */\n      0x20\n        /* \"#utility.yul\":7496:7505   */\n      dup3\n        /* \"#utility.yul\":7492:7510   */\n      add\n        /* \"#utility.yul\":7484:7510   */\n      swap1\n      pop\n        /* \"#utility.yul\":7556:7565   */\n      dup2\n        /* \"#utility.yul\":7550:7554   */\n      dup2\n        /* \"#utility.yul\":7546:7566   */\n      sub\n        /* \"#utility.yul\":7542:7543   */\n      0x00\n        /* \"#utility.yul\":7531:7540   */\n      dup4\n        /* \"#utility.yul\":7527:7544   */\n      add\n        /* \"#utility.yul\":7520:7567   */\n      mstore\n        /* \"#utility.yul\":7584:7715   */\n      tag_193\n        /* \"#utility.yul\":7710:7714   */\n      dup2\n        /* \"#utility.yul\":7584:7715   */\n      tag_93\n      jump\t// in\n    tag_193:\n        /* \"#utility.yul\":7576:7715   */\n      swap1\n      pop\n        /* \"#utility.yul\":7303:7722   */\n      swap2\n      swap1\n      pop\n      jump\t// out\n        /* \"#utility.yul\":7728:7908   */\n    tag_94:\n        /* \"#utility.yul\":7776:7853   */\n      0x4e487b7100000000000000000000000000000000000000000000000000000000\n        /* \"#utility.yul\":7773:7774   */\n      0x00\n        /* \"#utility.yul\":7766:7854   */\n      mstore\n        /* \"#utility.yul\":7873:7877   */\n      0x11\n        /* \"#utility.yul\":7870:7871   */\n      0x04\n        /* \"#utility.yul\":7863:7878   */\n      mstore\n        /* \"#utility.yul\":7897:7901   */\n      0x24\n        /* \"#utility.yul\":7894:7895   */\n      0x00\n        /* \"#utility.yul\":7887:7902   */\n      revert\n        /* \"#utility.yul\":7914:8105   */\n    tag_38:\n        /* \"#utility.yul\":7954:7957   */\n      0x00\n        /* \"#utility.yul\":7973:7993   */\n      tag_196\n        /* \"#utility.yul\":7991:7992   */\n      dup3\n        /* \"#utility.yul\":7973:7993   */\n      tag_72\n      jump\t// in\n    tag_196:\n        /* \"#utility.yul\":7968:7993   */\n      swap2\n      pop\n        /* \"#utility.yul\":8007:8027   */\n      tag_197\n        /* \"#utility.yul\":8025:8026   */\n      dup4\n        /* \"#utility.yul\":8007:8027   */\n      tag_72\n      jump\t// in\n    tag_197:\n        /* \"#utility.yul\":8002:8027   */\n      swap3\n      pop\n        /* \"#utility.yul\":8050:8051   */\n      dup3\n        /* \"#utility.yul\":8047:8048   */\n      dup3\n        /* \"#utility.yul\":8043:8052   */\n      add\n        /* \"#utility.yul\":8036:8052   */\n      swap1\n      pop\n        /* \"#utility.yul\":8071:8074   */\n      dup1\n        /* \"#utility.yul\":8068:8069   */\n      dup3\n        /* \"#utility.yul\":8065:8075   */\n      gt\n        /* \"#utility.yul\":8062:8098   */\n      iszero\n      tag_198\n      jumpi\n        /* \"#utility.yul\":8078:8096   */\n      tag_199\n      tag_94\n      jump\t// in\n    tag_199:\n        /* \"#utility.yul\":8062:8098   */\n    tag_198:\n        /* \"#utility.yul\":7914:8105   */\n      swap3\n      swap2\n      pop\n      pop\n      jump\t// out\n        /* \"#utility.yul\":8111:8282   */\n    tag_95:\n        /* \"#utility.yul\":8251:8274   */\n      0x5573756172696f206a61207265676973747261646f0000000000000000000000\n        /* \"#utility.yul\":8247:8248   */\n      0x00\n        /* \"#utility.yul\":8239:8245   */\n      dup3\n        /* \"#utility.yul\":8235:8249   */\n      add\n        /* \"#utility.yul\":8228:8275   */\n      mstore\n        /* \"#utility.yul\":8111:8282   */\n      pop\n      jump\t// out\n        /* \"#utility.yul\":8288:8654   */\n    tag_96:\n        /* \"#utility.yul\":8430:8433   */\n      0x00\n        /* \"#utility.yul\":8451:8518   */\n      tag_202\n        /* \"#utility.yul\":8515:8517   */\n      0x15\n        /* \"#utility.yul\":8510:8513   */\n      dup4\n        /* \"#utility.yul\":8451:8518   */\n      tag_85\n      jump\t// in\n    tag_202:\n        /* \"#utility.yul\":8444:8518   */\n      swap2\n      pop\n        /* \"#utility.yul\":8527:8620   */\n      tag_203\n        /* \"#utility.yul\":8616:8619   */\n      dup3\n        /* \"#utility.yul\":8527:8620   */\n      tag_95\n      jump\t// in\n    tag_203:\n        /* \"#utility.yul\":8645:8647   */\n      0x20\n        /* \"#utility.yul\":8640:8643   */\n      dup3\n        /* \"#utility.yul\":8636:8648   */\n      add\n        /* \"#utility.yul\":8629:8648   */\n      swap1\n      pop\n        /* \"#utility.yul\":8288:8654   */\n      swap2\n      swap1\n      pop\n      jump\t// out\n        /* \"#utility.yul\":8660:9079   */\n    tag_43:\n        /* \"#utility.yul\":8826:8830   */\n      0x00\n        /* \"#utility.yul\":8864:8866   */\n      0x20\n        /* \"#utility.yul\":8853:8862   */\n      dup3\n        /* \"#utility.yul\":8849:8867   */\n      add\n        /* \"#utility.yul\":8841:8867   */\n      swap1\n      pop\n        /* \"#utility.yul\":8913:8922   */\n      dup2\n        /* \"#utility.yul\":8907:8911   */\n      dup2\n        /* \"#utility.yul\":8903:8923   */\n      sub\n        /* \"#utility.yul\":8899:8900   */\n      0x00\n        /* \"#utility.yul\":8888:8897   */\n      dup4\n        /* \"#utility.yul\":8884:8901   */\n      add\n        /* \"#utility.yul\":8877:8924   */\n      mstore\n        /* \"#utility.yul\":8941:9072   */\n      tag_205\n        /* \"#utility.yul\":9067:9071   */\n      dup2\n        /* \"#utility.yul\":8941:9072   */\n      tag_96\n      jump\t// in\n    tag_205:\n        /* \"#utility.yul\":8933:9072   */\n      swap1\n      pop\n        /* \"#utility.yul\":8660:9079   */\n      swap2\n      swap1\n      pop\n      jump\t// out\n        /* \"#utility.yul\":9085:9258   */\n    tag_97:\n        /* \"#utility.yul\":9225:9250   */\n      0x4e6f6d65206e616f20706f6465207365722076617a696f000000000000000000\n        /* \"#utility.yul\":9221:9222   */\n      0x00\n        /* \"#utility.yul\":9213:9219   */\n      dup3\n        /* \"#utility.yul\":9209:9223   */\n      add\n        /* \"#utility.yul\":9202:9251   */\n      mstore\n        /* \"#utility.yul\":9085:9258   */\n      pop\n      jump\t// out\n        /* \"#utility.yul\":9264:9630   */\n    tag_98:\n        /* \"#utility.yul\":9406:9409   */\n      0x00\n        /* \"#utility.yul\":9427:9494   */\n      tag_208\n        /* \"#utility.yul\":9491:9493   */\n      0x17\n        /* \"#utility.yul\":9486:9489   */\n      dup4\n        /* \"#utility.yul\":9427:9494   */\n      tag_85\n      jump\t// in\n    tag_208:\n        /* \"#utility.yul\":9420:9494   */\n      swap2\n      pop\n        /* \"#utility.yul\":9503:9596   */\n      tag_209\n        /* \"#utility.yul\":9592:9595   */\n      dup3\n        /* \"#utility.yul\":9503:9596   */\n      tag_97\n      jump\t// in\n    tag_209:\n        /* \"#utility.yul\":9621:9623   */\n      0x20\n        /* \"#utility.yul\":9616:9619   */\n      dup3\n        /* \"#utility.yul\":9612:9624   */\n      add\n        /* \"#utility.yul\":9605:9624   */\n      swap1\n      pop\n        /* \"#utility.yul\":9264:9630   */\n      swap2\n      swap1\n      pop\n      jump\t// out\n        /* \"#utility.yul\":9636:10055   */\n    tag_46:\n        /* \"#utility.yul\":9802:9806   */\n      0x00\n        /* \"#utility.yul\":9840:9842   */\n      0x20\n        /* \"#utility.yul\":9829:9838   */\n      dup3\n        /* \"#utility.yul\":9825:9843   */\n      add\n        /* \"#utility.yul\":9817:9843   */\n      swap1\n      pop\n        /* \"#utility.yul\":9889:9898   */\n      dup2\n        /* \"#utility.yul\":9883:9887   */\n      dup2\n        /* \"#utility.yul\":9879:9899   */\n      sub\n        /* \"#utility.yul\":9875:9876   */\n      0x00\n        /* \"#utility.yul\":9864:9873   */\n      dup4\n        /* \"#utility.yul\":9860:9877   */\n      add\n        /* \"#utility.yul\":9853:9900   */\n      mstore\n        /* \"#utility.yul\":9917:10048   */\n      tag_211\n        /* \"#utility.yul\":10043:10047   */\n      dup2\n        /* \"#utility.yul\":9917:10048   */\n      tag_98\n      jump\t// in\n    tag_211:\n        /* \"#utility.yul\":9909:10048   */\n      swap1\n      pop\n        /* \"#utility.yul\":9636:10055   */\n      swap2\n      swap1\n      pop\n      jump\t// out\n        /* \"#utility.yul\":10061:10241   */\n    tag_99:\n        /* \"#utility.yul\":10109:10186   */\n      0x4e487b7100000000000000000000000000000000000000000000000000000000\n        /* \"#utility.yul\":10106:10107   */\n      0x00\n        /* \"#utility.yul\":10099:10187   */\n      mstore\n        /* \"#utility.yul\":10206:10210   */\n      0x22\n        /* \"#utility.yul\":10203:10204   */\n      0x04\n        /* \"#utility.yul\":10196:10211   */\n      mstore\n        /* \"#utility.yul\":10230:10234   */\n      0x24\n        /* \"#utility.yul\":10227:10228   */\n      0x00\n        /* \"#utility.yul\":10220:10235   */\n      revert\n        /* \"#utility.yul\":10247:10567   */\n    tag_55:\n        /* \"#utility.yul\":10291:10297   */\n      0x00\n        /* \"#utility.yul\":10328:10329   */\n      0x02\n        /* \"#utility.yul\":10322:10326   */\n      dup3\n        /* \"#utility.yul\":10318:10330   */\n      div\n        /* \"#utility.yul\":10308:10330   */\n      swap1\n      pop\n        /* \"#utility.yul\":10375:10376   */\n      0x01\n        /* \"#utility.yul\":10369:10373   */\n      dup3\n        /* \"#utility.yul\":10365:10377   */\n      and\n        /* \"#utility.yul\":10396:10414   */\n      dup1\n        /* \"#utility.yul\":10386:10467   */\n      tag_214\n      jumpi\n        /* \"#utility.yul\":10452:10456   */\n      0x7f\n        /* \"#utility.yul\":10444:10450   */\n      dup3\n        /* \"#utility.yul\":10440:10457   */\n      and\n        /* \"#utility.yul\":10430:10457   */\n      swap2\n      pop\n        /* \"#utility.yul\":10386:10467   */\n    tag_214:\n        /* \"#utility.yul\":10514:10516   */\n      0x20\n        /* \"#utility.yul\":10506:10512   */\n      dup3\n        /* \"#utility.yul\":10503:10517   */\n      lt\n        /* \"#utility.yul\":10483:10501   */\n      dup2\n        /* \"#utility.yul\":10480:10518   */\n      sub\n        /* \"#utility.yul\":10477:10561   */\n      tag_215\n      jumpi\n        /* \"#utility.yul\":10533:10551   */\n      tag_216\n      tag_99\n      jump\t// in\n    tag_216:\n        /* \"#utility.yul\":10477:10561   */\n    tag_215:\n        /* \"#utility.yul\":10298:10567   */\n      pop\n        /* \"#utility.yul\":10247:10567   */\n      swap2\n      swap1\n      pop\n      jump\t// out\n        /* \"#utility.yul\":10573:10714   */\n    tag_100:\n        /* \"#utility.yul\":10622:10626   */\n      0x00\n        /* \"#utility.yul\":10645:10648   */\n      dup2\n        /* \"#utility.yul\":10637:10648   */\n      swap1\n      pop\n        /* \"#utility.yul\":10668:10671   */\n      dup2\n        /* \"#utility.yul\":10665:10666   */\n      0x00\n        /* \"#utility.yul\":10658:10672   */\n      mstore\n        /* \"#utility.yul\":10702:10706   */\n      0x20\n        /* \"#utility.yul\":10699:10700   */\n      0x00\n        /* \"#utility.yul\":10689:10707   */\n      keccak256\n        /* \"#utility.yul\":10681:10707   */\n      swap1\n      pop\n        /* \"#utility.yul\":10573:10714   */\n      swap2\n      swap1\n      pop\n      jump\t// out\n        /* \"#utility.yul\":10720:10813   */\n    tag_101:\n        /* \"#utility.yul\":10757:10763   */\n      0x00\n        /* \"#utility.yul\":10804:10806   */\n      0x20\n        /* \"#utility.yul\":10799:10801   */\n      0x1f\n        /* \"#utility.yul\":10792:10797   */\n      dup4\n        /* \"#utility.yul\":10788:10802   */\n      add\n        /* \"#utility.yul\":10784:10807   */\n      div\n        /* \"#utility.yul\":10774:10807   */\n      swap1\n      pop\n        /* \"#utility.yul\":10720:10813   */\n      swap2\n      swap1\n      pop\n      jump\t// out\n        /* \"#utility.yul\":10819:10926   */\n    tag_102:\n        /* \"#utility.yul\":10863:10871   */\n      0x00\n        /* \"#utility.yul\":10913:10918   */\n      dup3\n        /* \"#utility.yul\":10907:10911   */\n      dup3\n        /* \"#utility.yul\":10903:10919   */\n      shl\n        /* \"#utility.yul\":10882:10919   */\n      swap1\n      pop\n        /* \"#utility.yul\":10819:10926   */\n      swap3\n      swap2\n      pop\n      pop\n      jump\t// out\n        /* \"#utility.yul\":10932:11325   */\n    tag_103:\n        /* \"#utility.yul\":11001:11007   */\n      0x00\n        /* \"#utility.yul\":11051:11052   */\n      0x08\n        /* \"#utility.yul\":11039:11049   */\n      dup4\n        /* \"#utility.yul\":11035:11053   */\n      mul\n        /* \"#utility.yul\":11074:11171   */\n      tag_221\n        /* \"#utility.yul\":11104:11170   */\n      0xffffffffffffffffffffffffffffffffffffffffffffffffffffffffffffffff\n        /* \"#utility.yul\":11093:11102   */\n      dup3\n        /* \"#utility.yul\":11074:11171   */\n      tag_102\n      jump\t// in\n    tag_221:\n        /* \"#utility.yul\":11192:11231   */\n      tag_222\n        /* \"#utility.yul\":11222:11230   */\n      dup7\n        /* \"#utility.yul\":11211:11220   */\n      dup4\n        /* \"#utility.yul\":11192:11231   */\n      tag_102\n      jump\t// in\n    tag_222:\n        /* \"#utility.yul\":11180:11231   */\n      swap6\n      pop\n        /* \"#utility.yul\":11264:11268   */\n      dup1\n        /* \"#utility.yul\":11260:11269   */\n      not\n        /* \"#utility.yul\":11253:11258   */\n      dup5\n        /* \"#utility.yul\":11249:11270   */\n      and\n        /* \"#utility.yul\":11240:11270   */\n      swap4\n      pop\n        /* \"#utility.yul\":11313:11317   */\n      dup1\n        /* \"#utility.yul\":11303:11311   */\n      dup7\n        /* \"#utility.yul\":11299:11318   */\n      and\n        /* \"#utility.yul\":11292:11297   */\n      dup5\n        /* \"#utility.yul\":11289:11319   */\n      or\n        /* \"#utility.yul\":11279:11319   */\n      swap3\n      pop\n        /* \"#utility.yul\":11008:11325   */\n      pop\n      pop\n        /* \"#utility.yul\":10932:11325   */\n      swap4\n      swap3\n      pop\n      pop\n      pop\n      jump\t// out\n        /* \"#utility.yul\":11331:11391   */\n    tag_104:\n        /* \"#utility.yul\":11359:11362   */\n      0x00\n        /* \"#utility.yul\":11380:11385   */\n      dup2\n        /* \"#utility.yul\":11373:11385   */\n      swap1\n      pop\n        /* \"#utility.yul\":11331:11391   */\n      swap2\n      swap1\n      pop\n      jump\t// out\n        /* \"#utility.yul\":11397:11539   */\n    tag_105:\n        /* \"#utility.yul\":11447:11456   */\n      0x00\n        /* \"#utility.yul\":11480:11533   */\n      tag_225\n        /* \"#utility.yul\":11498:11532   */\n      tag_226\n        /* \"#utility.yul\":11507:11531   */\n      tag_227\n        /* \"#utility.yul\":11525:11530   */\n      dup5\n        /* \"#utility.yul\":11507:11531   */\n      tag_72\n      jump\t// in\n    tag_227:\n        /* \"#utility.yul\":11498:11532   */\n      tag_104\n      jump\t// in\n    tag_226:\n        /* \"#utility.yul\":11480:11533   */\n      tag_72\n      jump\t// in\n    tag_225:\n        /* \"#utility.yul\":11467:11533   */\n      swap1\n      pop\n        /* \"#utility.yul\":11397:11539   */\n      swap2\n      swap1\n      pop\n      jump\t// out\n        /* \"#utility.yul\":11545:11620   */\n    tag_106:\n        /* \"#utility.yul\":11588:11591   */\n      0x00\n        /* \"#utility.yul\":11609:11614   */\n      dup2\n        /* \"#utility.yul\":11602:11614   */\n      swap1\n      pop\n        /* \"#utility.yul\":11545:11620   */\n      swap2\n      swap1\n      pop\n      jump\t// out\n        /* \"#utility.yul\":11626:11895   */\n    tag_107:\n        /* \"#utility.yul\":11736:11775   */\n      tag_230\n        /* \"#utility.yul\":11767:11774   */\n      dup4\n        /* \"#utility.yul\":11736:11775   */\n      tag_105\n      jump\t// in\n    tag_230:\n        /* \"#utility.yul\":11797:11888   */\n      tag_231\n        /* \"#utility.yul\":11846:11887   */\n      tag_232\n        /* \"#utility.yul\":11870:11886   */\n      dup3\n        /* \"#utility.yul\":11846:11887   */\n      tag_106\n      jump\t// in\n    tag_232:\n        /* \"#utility.yul\":11838:11844   */\n      dup5\n        /* \"#utility.yul\":11831:11835   */\n      dup5\n        /* \"#utility.yul\":11825:11836   */\n      sload\n        /* \"#utility.yul\":11797:11888   */\n      tag_103\n      jump\t// in\n    tag_231:\n        /* \"#utility.yul\":11791:11795   */\n      dup3\n        /* \"#utility.yul\":11784:11889   */\n      sstore\n        /* \"#utility.yul\":11702:11895   */\n      pop\n        /* \"#utility.yul\":11626:11895   */\n      pop\n      pop\n      pop\n      jump\t// out\n        /* \"#utility.yul\":11901:11974   */\n    tag_108:\n        /* \"#utility.yul\":11946:11949   */\n      0x00\n        /* \"#utility.yul\":11967:11968   */\n      0x00\n        /* \"#utility.yul\":11960:11968   */\n      swap1\n      pop\n        /* \"#utility.yul\":11901:11974   */\n      swap1\n      jump\t// out\n        /* \"#utility.yul\":11980:12169   */\n    tag_109:\n        /* \"#utility.yul\":12057:12089   */\n      tag_235\n      tag_108\n      jump\t// in\n    tag_235:\n        /* \"#utility.yul\":12098:12163   */\n      tag_236\n        /* \"#utility.yul\":12156:12162   */\n      dup2\n        /* \"#utility.yul\":12148:12154   */\n      dup5\n        /* \"#utility.yul\":12142:12146   */\n      dup5\n        /* \"#utility.yul\":12098:12163   */\n      tag_107\n      jump\t// in\n    tag_236:\n        /* \"#utility.yul\":12033:12169   */\n      pop\n        /* \"#utility.yul\":11980:12169   */\n      pop\n      pop\n      jump\t// out\n        /* \"#utility.yul\":12175:12361   */\n    tag_110:\n        /* \"#utility.yul\":12235:12355   */\n    tag_238:\n        /* \"#utility.yul\":12252:12255   */\n      dup2\n        /* \"#utility.yul\":12245:12250   */\n      dup2\n        /* \"#utility.yul\":12242:12256   */\n      lt\n        /* \"#utility.yul\":12235:12355   */\n      iszero\n      tag_240\n      jumpi\n        /* \"#utility.yul\":12306:12345   */\n      tag_241\n        /* \"#utility.yul\":12343:12344   */\n      0x00\n        /* \"#utility.yul\":12336:12341   */\n      dup3\n        /* \"#utility.yul\":12306:12345   */\n      tag_109\n      jump\t// in\n    tag_241:\n        /* \"#utility.yul\":12279:12280   */\n      0x01\n        /* \"#utility.yul\":12272:12277   */\n      dup2\n        /* \"#utility.yul\":12268:12281   */\n      add\n        /* \"#utility.yul\":12259:12281   */\n      swap1\n      pop\n        /* \"#utility.yul\":12235:12355   */\n      jump(tag_238)\n    tag_240:\n        /* \"#utility.yul\":12175:12361   */\n      pop\n      pop\n      jump\t// out\n        /* \"#utility.yul\":12367:12910   */\n    tag_111:\n        /* \"#utility.yul\":12468:12470   */\n      0x1f\n        /* \"#utility.yul\":12463:12466   */\n      dup3\n        /* \"#utility.yul\":12460:12471   */\n      gt\n        /* \"#utility.yul\":12457:12903   */\n      iszero\n      tag_243\n      jumpi\n        /* \"#utility.yul\":12502:12540   */\n      tag_244\n        /* \"#utility.yul\":12534:12539   */\n      dup2\n        /* \"#utility.yul\":12502:12540   */\n      tag_100\n      jump\t// in\n    tag_244:\n        /* \"#utility.yul\":12586:12615   */\n      tag_245\n        /* \"#utility.yul\":12604:12614   */\n      dup5\n        /* \"#utility.yul\":12586:12615   */\n      tag_101\n      jump\t// in\n    tag_245:\n        /* \"#utility.yul\":12576:12584   */\n      dup2\n        /* \"#utility.yul\":12572:12616   */\n      add\n        /* \"#utility.yul\":12769:12771   */\n      0x20\n        /* \"#utility.yul\":12757:12767   */\n      dup6\n        /* \"#utility.yul\":12754:12772   */\n      lt\n        /* \"#utility.yul\":12751:12800   */\n      iszero\n      tag_246\n      jumpi\n        /* \"#utility.yul\":12790:12798   */\n      dup2\n        /* \"#utility.yul\":12775:12798   */\n      swap1\n      pop\n        /* \"#utility.yul\":12751:12800   */\n    tag_246:\n        /* \"#utility.yul\":12813:12893   */\n      tag_247\n        /* \"#utility.yul\":12869:12891   */\n      tag_248\n        /* \"#utility.yul\":12887:12890   */\n      dup6\n        /* \"#utility.yul\":12869:12891   */\n      tag_101\n      jump\t// in\n    tag_248:\n        /* \"#utility.yul\":12859:12867   */\n      dup4\n        /* \"#utility.yul\":12855:12892   */\n      add\n        /* \"#utility.yul\":12842:12853   */\n      dup3\n        /* \"#utility.yul\":12813:12893   */\n      tag_110\n      jump\t// in\n    tag_247:\n        /* \"#utility.yul\":12472:12903   */\n      pop\n      pop\n        /* \"#utility.yul\":12457:12903   */\n    tag_243:\n        /* \"#utility.yul\":12367:12910   */\n      pop\n      pop\n      pop\n      jump\t// out\n        /* \"#utility.yul\":12916:13033   */\n    tag_112:\n        /* \"#utility.yul\":12970:12978   */\n      0x00\n        /* \"#utility.yul\":13020:13025   */\n      dup3\n        /* \"#utility.yul\":13014:13018   */\n      dup3\n        /* \"#utility.yul\":13010:13026   */\n      shr\n        /* \"#utility.yul\":12989:13026   */\n      swap1\n      pop\n        /* \"#utility.yul\":12916:13033   */\n      swap3\n      swap2\n      pop\n      pop\n      jump\t// out\n        /* \"#utility.yul\":13039:13208   */\n    tag_113:\n        /* \"#utility.yul\":13083:13089   */\n      0x00\n        /* \"#utility.yul\":13116:13167   */\n      tag_251\n        /* \"#utility.yul\":13164:13165   */\n      0x00\n        /* \"#utility.yul\":13160:13166   */\n      not\n        /* \"#utility.yul\":13152:13157   */\n      dup5\n        /* \"#utility.yul\":13149:13150   */\n      0x08\n        /* \"#utility.yul\":13145:13158   */\n      mul\n        /* \"#utility.yul\":13116:13167   */\n      tag_112\n      jump\t// in\n    tag_251:\n        /* \"#utility.yul\":13112:13168   */\n      not\n        /* \"#utility.yul\":13197:13201   */\n      dup1\n        /* \"#utility.yul\":13191:13195   */\n      dup4\n        /* \"#utility.yul\":13187:13202   */\n      and\n        /* \"#utility.yul\":13177:13202   */\n      swap2\n      pop\n        /* \"#utility.yul\":13090:13208   */\n      pop\n        /* \"#utility.yul\":13039:13208   */\n      swap3\n      swap2\n      pop\n      pop\n      jump\t// out\n        /* \"#utility.yul\":13213:13508   */\n    tag_114:\n        /* \"#utility.yul\":13289:13293   */\n      0x00\n        /* \"#utility.yul\":13435:13464   */\n      tag_253\n        /* \"#utility.yul\":13460:13463   */\n      dup4\n        /* \"#utility.yul\":13454:13458   */\n      dup4\n        /* \"#utility.yul\":13435:13464   */\n      tag_113\n      jump\t// in\n    tag_253:\n        /* \"#utility.yul\":13427:13464   */\n      swap2\n      pop\n        /* \"#utility.yul\":13497:13500   */\n      dup3\n        /* \"#utility.yul\":13494:13495   */\n      0x02\n        /* \"#utility.yul\":13490:13501   */\n      mul\n        /* \"#utility.yul\":13484:13488   */\n      dup3\n        /* \"#utility.yul\":13481:13502   */\n      or\n        /* \"#utility.yul\":13473:13502   */\n      swap1\n      pop\n        /* \"#utility.yul\":13213:13508   */\n      swap3\n      swap2\n      pop\n      pop\n      jump\t// out\n        /* \"#utility.yul\":13513:14908   */\n    tag_48:\n        /* \"#utility.yul\":13630:13667   */\n      tag_255\n        /* \"#utility.yul\":13663:13666   */\n      dup3\n        /* \"#utility.yul\":13630:13667   */\n      tag_84\n      jump\t// in\n    tag_255:\n        /* \"#utility.yul\":13732:13750   */\n      0xffffffffffffffff\n        /* \"#utility.yul\":13724:13730   */\n      dup2\n        /* \"#utility.yul\":13721:13751   */\n      gt\n        /* \"#utility.yul\":13718:13774   */\n      iszero\n      tag_256\n      jumpi\n        /* \"#utility.yul\":13754:13772   */\n      tag_257\n      tag_77\n      jump\t// in\n    tag_257:\n        /* \"#utility.yul\":13718:13774   */\n    tag_256:\n        /* \"#utility.yul\":13798:13836   */\n      tag_258\n        /* \"#utility.yul\":13830:13834   */\n      dup3\n        /* \"#utility.yul\":13824:13835   */\n      sload\n        /* \"#utility.yul\":13798:13836   */\n      tag_55\n      jump\t// in\n    tag_258:\n        /* \"#utility.yul\":13883:13950   */\n      tag_259\n        /* \"#utility.yul\":13943:13949   */\n      dup3\n        /* \"#utility.yul\":13935:13941   */\n      dup3\n        /* \"#utility.yul\":13929:13933   */\n      dup6\n        /* \"#utility.yul\":13883:13950   */\n      tag_111\n      jump\t// in\n    tag_259:\n        /* \"#utility.yul\":13977:13978   */\n      0x00\n        /* \"#utility.yul\":14001:14005   */\n      0x20\n        /* \"#utility.yul\":13988:14005   */\n      swap1\n      pop\n        /* \"#utility.yul\":14033:14035   */\n      0x1f\n        /* \"#utility.yul\":14025:14031   */\n      dup4\n        /* \"#utility.yul\":14022:14036   */\n      gt\n        /* \"#utility.yul\":14050:14051   */\n      0x01\n        /* \"#utility.yul\":14045:14663   */\n      dup2\n      eq\n      tag_261\n      jumpi\n        /* \"#utility.yul\":14707:14708   */\n      0x00\n        /* \"#utility.yul\":14724:14730   */\n      dup5\n        /* \"#utility.yul\":14721:14798   */\n      iszero\n      tag_262\n      jumpi\n        /* \"#utility.yul\":14773:14782   */\n      dup3\n        /* \"#utility.yul\":14768:14771   */\n      dup8\n        /* \"#utility.yul\":14764:14783   */\n      add\n        /* \"#utility.yul\":14758:14784   */\n      mload\n        /* \"#utility.yul\":14749:14784   */\n      swap1\n      pop\n        /* \"#utility.yul\":14721:14798   */\n    tag_262:\n        /* \"#utility.yul\":14824:14891   */\n      tag_263\n        /* \"#utility.yul\":14884:14890   */\n      dup6\n        /* \"#utility.yul\":14877:14882   */\n      dup3\n        /* \"#utility.yul\":14824:14891   */\n      tag_114\n      jump\t// in\n    tag_263:\n        /* \"#utility.yul\":14818:14822   */\n      dup7\n        /* \"#utility.yul\":14811:14892   */\n      sstore\n        /* \"#utility.yul\":14680:14902   */\n      pop\n        /* \"#utility.yul\":14015:14902   */\n      jump(tag_260)\n        /* \"#utility.yul\":14045:14663   */\n    tag_261:\n        /* \"#utility.yul\":14097:14101   */\n      0x1f\n        /* \"#utility.yul\":14093:14102   */\n      not\n        /* \"#utility.yul\":14085:14091   */\n      dup5\n        /* \"#utility.yul\":14081:14103   */\n      and\n        /* \"#utility.yul\":14131:14168   */\n      tag_264\n        /* \"#utility.yul\":14163:14167   */\n      dup7\n        /* \"#utility.yul\":14131:14168   */\n      tag_100\n      jump\t// in\n    tag_264:\n        /* \"#utility.yul\":14190:14191   */\n      0x00\n        /* \"#utility.yul\":14204:14412   */\n    tag_265:\n        /* \"#utility.yul\":14218:14225   */\n      dup3\n        /* \"#utility.yul\":14215:14216   */\n      dup2\n        /* \"#utility.yul\":14212:14226   */\n      lt\n        /* \"#utility.yul\":14204:14412   */\n      iszero\n      tag_267\n      jumpi\n        /* \"#utility.yul\":14297:14306   */\n      dup5\n        /* \"#utility.yul\":14292:14295   */\n      dup10\n        /* \"#utility.yul\":14288:14307   */\n      add\n        /* \"#utility.yul\":14282:14308   */\n      mload\n        /* \"#utility.yul\":14274:14280   */\n      dup3\n        /* \"#utility.yul\":14267:14309   */\n      sstore\n        /* \"#utility.yul\":14348:14349   */\n      0x01\n        /* \"#utility.yul\":14340:14346   */\n      dup3\n        /* \"#utility.yul\":14336:14350   */\n      add\n        /* \"#utility.yul\":14326:14350   */\n      swap2\n      pop\n        /* \"#utility.yul\":14395:14397   */\n      0x20\n        /* \"#utility.yul\":14384:14393   */\n      dup6\n        /* \"#utility.yul\":14380:14398   */\n      add\n        /* \"#utility.yul\":14367:14398   */\n      swap5\n      pop\n        /* \"#utility.yul\":14241:14245   */\n      0x20\n        /* \"#utility.yul\":14238:14239   */\n      dup2\n        /* \"#utility.yul\":14234:14246   */\n      add\n        /* \"#utility.yul\":14229:14246   */\n      swap1\n      pop\n        /* \"#utility.yul\":14204:14412   */\n      jump(tag_265)\n    tag_267:\n        /* \"#utility.yul\":14440:14446   */\n      dup7\n        /* \"#utility.yul\":14431:14438   */\n      dup4\n        /* \"#utility.yul\":14428:14447   */\n      lt\n        /* \"#utility.yul\":14425:14604   */\n      iszero\n      tag_268\n      jumpi\n        /* \"#utility.yul\":14498:14507   */\n      dup5\n        /* \"#utility.yul\":14493:14496   */\n      dup10\n        /* \"#utility.yul\":14489:14508   */\n      add\n        /* \"#utility.yul\":14483:14509   */\n      mload\n        /* \"#utility.yul\":14541:14589   */\n      tag_269\n        /* \"#utility.yul\":14583:14587   */\n      0x1f\n        /* \"#utility.yul\":14575:14581   */\n      dup10\n        /* \"#utility.yul\":14571:14588   */\n      and\n        /* \"#utility.yul\":14560:14569   */\n      dup3\n        /* \"#utility.yul\":14541:14589   */\n      tag_113\n      jump\t// in\n    tag_269:\n        /* \"#utility.yul\":14533:14539   */\n      dup4\n        /* \"#utility.yul\":14526:14590   */\n      sstore\n        /* \"#utility.yul\":14448:14604   */\n      pop\n        /* \"#utility.yul\":14425:14604   */\n    tag_268:\n        /* \"#utility.yul\":14650:14651   */\n      0x01\n        /* \"#utility.yul\":14646:14647   */\n      0x02\n        /* \"#utility.yul\":14638:14644   */\n      dup9\n        /* \"#utility.yul\":14634:14648   */\n      mul\n        /* \"#utility.yul\":14630:14652   */\n      add\n        /* \"#utility.yul\":14624:14628   */\n      dup9\n        /* \"#utility.yul\":14617:14653   */\n      sstore\n        /* \"#utility.yul\":14052:14663   */\n      pop\n      pop\n      pop\n        /* \"#utility.yul\":14015:14902   */\n    tag_260:\n      pop\n        /* \"#utility.yul\":13605:14908   */\n      pop\n      pop\n      pop\n        /* \"#utility.yul\":13513:14908   */\n      pop\n      pop\n      jump\t// out\n        /* \"#utility.yul\":14914:15227   */\n    tag_50:\n        /* \"#utility.yul\":15027:15031   */\n      0x00\n        /* \"#utility.yul\":15065:15067   */\n      0x20\n        /* \"#utility.yul\":15054:15063   */\n      dup3\n        /* \"#utility.yul\":15050:15068   */\n      add\n        /* \"#utility.yul\":15042:15068   */\n      swap1\n      pop\n        /* \"#utility.yul\":15114:15123   */\n      dup2\n        /* \"#utility.yul\":15108:15112   */\n      dup2\n        /* \"#utility.yul\":15104:15124   */\n      sub\n        /* \"#utility.yul\":15100:15101   */\n      0x00\n        /* \"#utility.yul\":15089:15098   */\n      dup4\n        /* \"#utility.yul\":15085:15102   */\n      add\n        /* \"#utility.yul\":15078:15125   */\n      mstore\n        /* \"#utility.yul\":15142:15220   */\n      tag_271\n        /* \"#utility.yul\":15215:15219   */\n      dup2\n        /* \"#utility.yul\":15206:15212   */\n      dup5\n        /* \"#utility.yul\":15142:15220   */\n      tag_87\n      jump\t// in\n    tag_271:\n        /* \"#utility.yul\":15134:15220   */\n      swap1\n      pop\n        /* \"#utility.yul\":14914:15227   */\n      swap3\n      swap2\n      pop\n      pop\n      jump\t// out\n\n    auxdata: 0xa2646970667358221220d51a8840db832b3c598eac1cac0eb84a3d0d5678189c1ac6bcca20f13ddbdf7464736f6c634300081f0033\n}\n",
				"bytecode": {
					"linkReferences": {},
					"object": "6080604052348015600e575f5ffd5b50610ec18061001c5f395ff3fe608060405234801561000f575f5ffd5b5060043610610055575f3560e01c8063422fb52514610059578063ada4823a14610089578063bff59291146100a5578063cd4205bd146100c1578063f6b91ea9146100f2575b5f5ffd5b610073600480360381019061006e9190610718565b610123565b604051610080919061075b565b60405180910390f35b6100a3600480360381019061009e9190610718565b610138565b005b6100bf60048036038101906100ba91906108b0565b6102db565b005b6100db60048036038101906100d69190610718565b610485565b6040516100e9929190610971565b60405180910390f35b61010c60048036038101906101079190610718565b6105fc565b60405161011a929190610971565b60405180910390f35b6001602052805f5260405f205f915090505481565b5f73ffffffffffffffffffffffffffffffffffffffff168173ffffffffffffffffffffffffffffffffffffffff16036101a6576040517f08c379a000000000000000000000000000000000000000000000000000000000815260040161019d906109e9565b60405180910390fd5b5f5f8273ffffffffffffffffffffffffffffffffffffffff1673ffffffffffffffffffffffffffffffffffffffff1681526020019081526020015f206001015f9054906101000a900460ff16610231576040517f08c379a000000000000000000000000000000000000000000000000000000000815260040161022890610a51565b60405180910390fd5b5f606490508060015f8473ffffffffffffffffffffffffffffffffffffffff1673ffffffffffffffffffffffffffffffffffffffff1681526020019081526020015f205f8282546102829190610a9c565b925050819055508173ffffffffffffffffffffffffffffffffffffffff167f1bcb563f06dfe2f58c91fdc16d032cde9d4c33a28fdb436a8396445c36b07e12826040516102cf919061075b565b60405180910390a25050565b5f5f3373ffffffffffffffffffffffffffffffffffffffff1673ffffffffffffffffffffffffffffffffffffffff1681526020019081526020015f206001015f9054906101000a900460ff1615610367576040517f08c379a000000000000000000000000000000000000000000000000000000000815260040161035e90610b19565b60405180910390fd5b5f8151116103aa576040517f08c379a00000000000000000000000000000000000000000000000000000000081526004016103a190610b81565b60405180910390fd5b6040518060400160405280828152602001600115158152505f5f3373ffffffffffffffffffffffffffffffffffffffff1673ffffffffffffffffffffffffffffffffffffffff1681526020019081526020015f205f820151815f0190816104119190610d9c565b506020820151816001015f6101000a81548160ff0219169083151502179055509050503373ffffffffffffffffffffffffffffffffffffffff167ff0d354cab265b1bf292b94572624046811677f8862a9ff57b736ea4e3a5a3e698260405161047a9190610e6b565b60405180910390a250565b60605f5f73ffffffffffffffffffffffffffffffffffffffff168373ffffffffffffffffffffffffffffffffffffffff16036104f6576040517f08c379a00000000000000000000000000000000000000000000000000000000081526004016104ed906109e9565b60405180910390fd5b5f5f5f8573ffffffffffffffffffffffffffffffffffffffff1673ffffffffffffffffffffffffffffffffffffffff1681526020019081526020015f206040518060400160405290815f8201805461054d90610bcc565b80601f016020809104026020016040519081016040528092919081815260200182805461057990610bcc565b80156105c45780601f1061059b576101008083540402835291602001916105c4565b820191905f5260205f20905b8154815290600101906020018083116105a757829003601f168201915b50505050508152602001600182015f9054906101000a900460ff1615151515815250509050805f015181602001519250925050915091565b5f602052805f5260405f205f91509050805f01805461061a90610bcc565b80601f016020809104026020016040519081016040528092919081815260200182805461064690610bcc565b80156106915780601f1061066857610100808354040283529160200191610691565b820191905f5260205f20905b81548152906001019060200180831161067457829003601f168201915b505050505090806001015f9054906101000a900460ff16905082565b5f604051905090565b5f5ffd5b5f5ffd5b5f73ffffffffffffffffffffffffffffffffffffffff82169050919050565b5f6106e7826106be565b9050919050565b6106f7816106dd565b8114610701575f5ffd5b50565b5f81359050610712816106ee565b92915050565b5f6020828403121561072d5761072c6106b6565b5b5f61073a84828501610704565b91505092915050565b5f819050919050565b61075581610743565b82525050565b5f60208201905061076e5f83018461074c565b92915050565b5f5ffd5b5f5ffd5b5f601f19601f8301169050919050565b7f4e487b71000000000000000000000000000000000000000000000000000000005f52604160045260245ffd5b6107c28261077c565b810181811067ffffffffffffffff821117156107e1576107e061078c565b5b80604052505050565b5f6107f36106ad565b90506107ff82826107b9565b919050565b5f67ffffffffffffffff82111561081e5761081d61078c565b5b6108278261077c565b9050602081019050919050565b828183375f83830152505050565b5f61085461084f84610804565b6107ea565b9050828152602081018484840111156108705761086f610778565b5b61087b848285610834565b509392505050565b5f82601f83011261089757610896610774565b5b81356108a7848260208601610842565b91505092915050565b5f602082840312156108c5576108c46106b6565b5b5f82013567ffffffffffffffff8111156108e2576108e16106ba565b5b6108ee84828501610883565b91505092915050565b5f81519050919050565b5f82825260208201905092915050565b8281835e5f83830152505050565b5f610929826108f7565b6109338185610901565b9350610943818560208601610911565b61094c8161077c565b840191505092915050565b5f8115159050919050565b61096b81610957565b82525050565b5f6040820190508181035f830152610989818561091f565b90506109986020830184610962565b9392505050565b7f456e64657265636f20696e76616c69646f0000000000000000000000000000005f82015250565b5f6109d3601183610901565b91506109de8261099f565b602082019050919050565b5f6020820190508181035f830152610a00816109c7565b9050919050565b7f5573756172696f206e616f207265676973747261646f000000000000000000005f82015250565b5f610a3b601683610901565b9150610a4682610a07565b602082019050919050565b5f6020820190508181035f830152610a6881610a2f565b9050919050565b7f4e487b71000000000000000000000000000000000000000000000000000000005f52601160045260245ffd5b5f610aa682610743565b9150610ab183610743565b9250828201905080821115610ac957610ac8610a6f565b5b92915050565b7f5573756172696f206a61207265676973747261646f00000000000000000000005f82015250565b5f610b03601583610901565b9150610b0e82610acf565b602082019050919050565b5f6020820190508181035f830152610b3081610af7565b9050919050565b7f4e6f6d65206e616f20706f6465207365722076617a696f0000000000000000005f82015250565b5f610b6b601783610901565b9150610b7682610b37565b602082019050919050565b5f6020820190508181035f830152610b9881610b5f565b9050919050565b7f4e487b71000000000000000000000000000000000000000000000000000000005f52602260045260245ffd5b5f6002820490506001821680610be357607f821691505b602082108103610bf657610bf5610b9f565b5b50919050565b5f819050815f5260205f209050919050565b5f6020601f8301049050919050565b5f82821b905092915050565b5f60088302610c587fffffffffffffffffffffffffffffffffffffffffffffffffffffffffffffffff82610c1d565b610c628683610c1d565b95508019841693508086168417925050509392505050565b5f819050919050565b5f610c9d610c98610c9384610743565b610c7a565b610743565b9050919050565b5f819050919050565b610cb683610c83565b610cca610cc282610ca4565b848454610c29565b825550505050565b5f5f905090565b610ce1610cd2565b610cec818484610cad565b505050565b5b81811015610d0f57610d045f82610cd9565b600181019050610cf2565b5050565b601f821115610d5457610d2581610bfc565b610d2e84610c0e565b81016020851015610d3d578190505b610d51610d4985610c0e565b830182610cf1565b50505b505050565b5f82821c905092915050565b5f610d745f1984600802610d59565b1980831691505092915050565b5f610d8c8383610d65565b9150826002028217905092915050565b610da5826108f7565b67ffffffffffffffff811115610dbe57610dbd61078c565b5b610dc88254610bcc565b610dd3828285610d13565b5f60209050601f831160018114610e04575f8415610df2578287015190505b610dfc8582610d81565b865550610e63565b601f198416610e1286610bfc565b5f5b82811015610e3957848901518255600182019150602085019450602081019050610e14565b86831015610e565784890151610e52601f891682610d65565b8355505b6001600288020188555050505b505050505050565b5f6020820190508181035f830152610e83818461091f565b90509291505056fea2646970667358221220d51a8840db832b3c598eac1cac0eb84a3d0d5678189c1ac6bcca20f13ddbdf7464736f6c634300081f0033",
					"opcodes": "PUSH1 0x80 PUSH1 0x40 MSTORE CALLVALUE DUP1 ISZERO PUSH1 0xE JUMPI PUSH0 PUSH0 REVERT JUMPDEST POP PUSH2 0xEC1 DUP1 PUSH2 0x1C PUSH0 CODECOPY PUSH0 RETURN INVALID PUSH1 0x80 PUSH1 0x40 MSTORE CALLVALUE DUP1 ISZERO PUSH2 0xF JUMPI PUSH0 PUSH0 REVERT JUMPDEST POP PUSH1 0x4 CALLDATASIZE LT PUSH2 0x55 JUMPI PUSH0 CALLDATALOAD PUSH1 0xE0 SHR DUP1 PUSH4 0x422FB525 EQ PUSH2 0x59 JUMPI DUP1 PUSH4 0xADA4823A EQ PUSH2 0x89 JUMPI DUP1 PUSH4 0xBFF59291 EQ PUSH2 0xA5 JUMPI DUP1 PUSH4 0xCD4205BD EQ PUSH2 0xC1 JUMPI DUP1 PUSH4 0xF6B91EA9 EQ PUSH2 0xF2 JUMPI JUMPDEST PUSH0 PUSH0 REVERT JUMPDEST PUSH2 0x73 PUSH1 0x4 DUP1 CALLDATASIZE SUB DUP2 ADD SWAP1 PUSH2 0x6E SWAP2 SWAP1 PUSH2 0x718 JUMP JUMPDEST PUSH2 0x123 JUMP JUMPDEST PUSH1 0x40 MLOAD PUSH2 0x80 SWAP2 SWAP1 PUSH2 0x75B JUMP JUMPDEST PUSH1 0x40 MLOAD DUP1 SWAP2 SUB SWAP1 RETURN JUMPDEST PUSH2 0xA3 PUSH1 0x4 DUP1 CALLDATASIZE SUB DUP2 ADD SWAP1 PUSH2 0x9E SWAP2 SWAP1 PUSH2 0x718 JUMP JUMPDEST PUSH2 0x138 JUMP JUMPDEST STOP JUMPDEST PUSH2 0xBF PUSH1 0x4 DUP1 CALLDATASIZE SUB DUP2 ADD SWAP1 PUSH2 0xBA SWAP2 SWAP1 PUSH2 0x8B0 JUMP JUMPDEST PUSH2 0x2DB JUMP JUMPDEST STOP JUMPDEST PUSH2 0xDB PUSH1 0x4 DUP1 CALLDATASIZE SUB DUP2 ADD SWAP1 PUSH2 0xD6 SWAP2 SWAP1 PUSH2 0x718 JUMP JUMPDEST PUSH2 0x485 JUMP JUMPDEST PUSH1 0x40 MLOAD PUSH2 0xE9 SWAP3 SWAP2 SWAP1 PUSH2 0x971 JUMP JUMPDEST PUSH1 0x40 MLOAD DUP1 SWAP2 SUB SWAP1 RETURN JUMPDEST PUSH2 0x10C PUSH1 0x4 DUP1 CALLDATASIZE SUB DUP2 ADD SWAP1 PUSH2 0x107 SWAP2 SWAP1 PUSH2 0x718 JUMP JUMPDEST PUSH2 0x5FC JUMP JUMPDEST PUSH1 0x40 MLOAD PUSH2 0x11A SWAP3 SWAP2 SWAP1 PUSH2 0x971 JUMP JUMPDEST PUSH1 0x40 MLOAD DUP1 SWAP2 SUB SWAP1 RETURN JUMPDEST PUSH1 0x1 PUSH1 0x20 MSTORE DUP1 PUSH0 MSTORE PUSH1 0x40 PUSH0 KECCAK256 PUSH0 SWAP2 POP SWAP1 POP SLOAD DUP2 JUMP JUMPDEST PUSH0 PUSH20 0xFFFFFFFFFFFFFFFFFFFFFFFFFFFFFFFFFFFFFFFF AND DUP2 PUSH20 0xFFFFFFFFFFFFFFFFFFFFFFFFFFFFFFFFFFFFFFFF AND SUB PUSH2 0x1A6 JUMPI PUSH1 0x40 MLOAD PUSH32 0x8C379A000000000000000000000000000000000000000000000000000000000 DUP2 MSTORE PUSH1 0x4 ADD PUSH2 0x19D SWAP1 PUSH2 0x9E9 JUMP JUMPDEST PUSH1 0x40 MLOAD DUP1 SWAP2 SUB SWAP1 REVERT JUMPDEST PUSH0 PUSH0 DUP3 PUSH20 0xFFFFFFFFFFFFFFFFFFFFFFFFFFFFFFFFFFFFFFFF AND PUSH20 0xFFFFFFFFFFFFFFFFFFFFFFFFFFFFFFFFFFFFFFFF AND DUP2 MSTORE PUSH1 0x20 ADD SWAP1 DUP2 MSTORE PUSH1 0x20 ADD PUSH0 KECCAK256 PUSH1 0x1 ADD PUSH0 SWAP1 SLOAD SWAP1 PUSH2 0x100 EXP SWAP1 DIV PUSH1 0xFF AND PUSH2 0x231 JUMPI PUSH1 0x40 MLOAD PUSH32 0x8C379A000000000000000000000000000000000000000000000000000000000 DUP2 MSTORE PUSH1 0x4 ADD PUSH2 0x228 SWAP1 PUSH2 0xA51 JUMP JUMPDEST PUSH1 0x40 MLOAD DUP1 SWAP2 SUB SWAP1 REVERT JUMPDEST PUSH0 PUSH1 0x64 SWAP1 POP DUP1 PUSH1 0x1 PUSH0 DUP5 PUSH20 0xFFFFFFFFFFFFFFFFFFFFFFFFFFFFFFFFFFFFFFFF AND PUSH20 0xFFFFFFFFFFFFFFFFFFFFFFFFFFFFFFFFFFFFFFFF AND DUP2 MSTORE PUSH1 0x20 ADD SWAP1 DUP2 MSTORE PUSH1 0x20 ADD PUSH0 KECCAK256 PUSH0 DUP3 DUP3 SLOAD PUSH2 0x282 SWAP2 SWAP1 PUSH2 0xA9C JUMP JUMPDEST SWAP3 POP POP DUP2 SWAP1 SSTORE POP DUP2 PUSH20 0xFFFFFFFFFFFFFFFFFFFFFFFFFFFFFFFFFFFFFFFF AND PUSH32 0x1BCB563F06DFE2F58C91FDC16D032CDE9D4C33A28FDB436A8396445C36B07E12 DUP3 PUSH1 0x40 MLOAD PUSH2 0x2CF SWAP2 SWAP1 PUSH2 0x75B JUMP JUMPDEST PUSH1 0x40 MLOAD DUP1 SWAP2 SUB SWAP1 LOG2 POP POP JUMP JUMPDEST PUSH0 PUSH0 CALLER PUSH20 0xFFFFFFFFFFFFFFFFFFFFFFFFFFFFFFFFFFFFFFFF AND PUSH20 0xFFFFFFFFFFFFFFFFFFFFFFFFFFFFFFFFFFFFFFFF AND DUP2 MSTORE PUSH1 0x20 ADD SWAP1 DUP2 MSTORE PUSH1 0x20 ADD PUSH0 KECCAK256 PUSH1 0x1 ADD PUSH0 SWAP1 SLOAD SWAP1 PUSH2 0x100 EXP SWAP1 DIV PUSH1 0xFF AND ISZERO PUSH2 0x367 JUMPI PUSH1 0x40 MLOAD PUSH32 0x8C379A000000000000000000000000000000000000000000000000000000000 DUP2 MSTORE PUSH1 0x4 ADD PUSH2 0x35E SWAP1 PUSH2 0xB19 JUMP JUMPDEST PUSH1 0x40 MLOAD DUP1 SWAP2 SUB SWAP1 REVERT JUMPDEST PUSH0 DUP2 MLOAD GT PUSH2 0x3AA JUMPI PUSH1 0x40 MLOAD PUSH32 0x8C379A000000000000000000000000000000000000000000000000000000000 DUP2 MSTORE PUSH1 0x4 ADD PUSH2 0x3A1 SWAP1 PUSH2 0xB81 JUMP JUMPDEST PUSH1 0x40 MLOAD DUP1 SWAP2 SUB SWAP1 REVERT JUMPDEST PUSH1 0x40 MLOAD DUP1 PUSH1 0x40 ADD PUSH1 0x40 MSTORE DUP1 DUP3 DUP2 MSTORE PUSH1 0x20 ADD PUSH1 0x1 ISZERO ISZERO DUP2 MSTORE POP PUSH0 PUSH0 CALLER PUSH20 0xFFFFFFFFFFFFFFFFFFFFFFFFFFFFFFFFFFFFFFFF AND PUSH20 0xFFFFFFFFFFFFFFFFFFFFFFFFFFFFFFFFFFFFFFFF AND DUP2 MSTORE PUSH1 0x20 ADD SWAP1 DUP2 MSTORE PUSH1 0x20 ADD PUSH0 KECCAK256 PUSH0 DUP3 ADD MLOAD DUP2 PUSH0 ADD SWAP1 DUP2 PUSH2 0x411 SWAP2 SWAP1 PUSH2 0xD9C JUMP JUMPDEST POP PUSH1 0x20 DUP3 ADD MLOAD DUP2 PUSH1 0x1 ADD PUSH0 PUSH2 0x100 EXP DUP2 SLOAD DUP2 PUSH1 0xFF MUL NOT AND SWAP1 DUP4 ISZERO ISZERO MUL OR SWAP1 SSTORE POP SWAP1 POP POP CALLER PUSH20 0xFFFFFFFFFFFFFFFFFFFFFFFFFFFFFFFFFFFFFFFF AND PUSH32 0xF0D354CAB265B1BF292B94572624046811677F8862A9FF57B736EA4E3A5A3E69 DUP3 PUSH1 0x40 MLOAD PUSH2 0x47A SWAP2 SWAP1 PUSH2 0xE6B JUMP JUMPDEST PUSH1 0x40 MLOAD DUP1 SWAP2 SUB SWAP1 LOG2 POP JUMP JUMPDEST PUSH1 0x60 PUSH0 PUSH0 PUSH20 0xFFFFFFFFFFFFFFFFFFFFFFFFFFFFFFFFFFFFFFFF AND DUP4 PUSH20 0xFFFFFFFFFFFFFFFFFFFFFFFFFFFFFFFFFFFFFFFF AND SUB PUSH2 0x4F6 JUMPI PUSH1 0x40 MLOAD PUSH32 0x8C379A000000000000000000000000000000000000000000000000000000000 DUP2 MSTORE PUSH1 0x4 ADD PUSH2 0x4ED SWAP1 PUSH2 0x9E9 JUMP JUMPDEST PUSH1 0x40 MLOAD DUP1 SWAP2 SUB SWAP1 REVERT JUMPDEST PUSH0 PUSH0 PUSH0 DUP6 PUSH20 0xFFFFFFFFFFFFFFFFFFFFFFFFFFFFFFFFFFFFFFFF AND PUSH20 0xFFFFFFFFFFFFFFFFFFFFFFFFFFFFFFFFFFFFFFFF AND DUP2 MSTORE PUSH1 0x20 ADD SWAP1 DUP2 MSTORE PUSH1 0x20 ADD PUSH0 KECCAK256 PUSH1 0x40 MLOAD DUP1 PUSH1 0x40 ADD PUSH1 0x40 MSTORE SWAP1 DUP2 PUSH0 DUP3 ADD DUP1 SLOAD PUSH2 0x54D SWAP1 PUSH2 0xBCC JUMP JUMPDEST DUP1 PUSH1 0x1F ADD PUSH1 0x20 DUP1 SWAP2 DIV MUL PUSH1 0x20 ADD PUSH1 0x40 MLOAD SWAP1 DUP2 ADD PUSH1 0x40 MSTORE DUP1 SWAP3 SWAP2 SWAP1 DUP2 DUP2 MSTORE PUSH1 0x20 ADD DUP3 DUP1 SLOAD PUSH2 0x579 SWAP1 PUSH2 0xBCC JUMP JUMPDEST DUP1 ISZERO PUSH2 0x5C4 JUMPI DUP1 PUSH1 0x1F LT PUSH2 0x59B JUMPI PUSH2 0x100 DUP1 DUP4 SLOAD DIV MUL DUP4 MSTORE SWAP2 PUSH1 0x20 ADD SWAP2 PUSH2 0x5C4 JUMP JUMPDEST DUP3 ADD SWAP2 SWAP1 PUSH0 MSTORE PUSH1 0x20 PUSH0 KECCAK256 SWAP1 JUMPDEST DUP2 SLOAD DUP2 MSTORE SWAP1 PUSH1 0x1 ADD SWAP1 PUSH1 0x20 ADD DUP1 DUP4 GT PUSH2 0x5A7 JUMPI DUP3 SWAP1 SUB PUSH1 0x1F AND DUP3 ADD SWAP2 JUMPDEST POP POP POP POP POP DUP2 MSTORE PUSH1 0x20 ADD PUSH1 0x1 DUP3 ADD PUSH0 SWAP1 SLOAD SWAP1 PUSH2 0x100 EXP SWAP1 DIV PUSH1 0xFF AND ISZERO ISZERO ISZERO ISZERO DUP2 MSTORE POP POP SWAP1 POP DUP1 PUSH0 ADD MLOAD DUP2 PUSH1 0x20 ADD MLOAD SWAP3 POP SWAP3 POP POP SWAP2 POP SWAP2 JUMP JUMPDEST PUSH0 PUSH1 0x20 MSTORE DUP1 PUSH0 MSTORE PUSH1 0x40 PUSH0 KECCAK256 PUSH0 SWAP2 POP SWAP1 POP DUP1 PUSH0 ADD DUP1 SLOAD PUSH2 0x61A SWAP1 PUSH2 0xBCC JUMP JUMPDEST DUP1 PUSH1 0x1F ADD PUSH1 0x20 DUP1 SWAP2 DIV MUL PUSH1 0x20 ADD PUSH1 0x40 MLOAD SWAP1 DUP2 ADD PUSH1 0x40 MSTORE DUP1 SWAP3 SWAP2 SWAP1 DUP2 DUP2 MSTORE PUSH1 0x20 ADD DUP3 DUP1 SLOAD PUSH2 0x646 SWAP1 PUSH2 0xBCC JUMP JUMPDEST DUP1 ISZERO PUSH2 0x691 JUMPI DUP1 PUSH1 0x1F LT PUSH2 0x668 JUMPI PUSH2 0x100 DUP1 DUP4 SLOAD DIV MUL DUP4 MSTORE SWAP2 PUSH1 0x20 ADD SWAP2 PUSH2 0x691 JUMP JUMPDEST DUP3 ADD SWAP2 SWAP1 PUSH0 MSTORE PUSH1 0x20 PUSH0 KECCAK256 SWAP1 JUMPDEST DUP2 SLOAD DUP2 MSTORE SWAP1 PUSH1 0x1 ADD SWAP1 PUSH1 0x20 ADD DUP1 DUP4 GT PUSH2 0x674 JUMPI DUP3 SWAP1 SUB PUSH1 0x1F AND DUP3 ADD SWAP2 JUMPDEST POP POP POP POP POP SWAP1 DUP1 PUSH1 0x1 ADD PUSH0 SWAP1 SLOAD SWAP1 PUSH2 0x100 EXP SWAP1 DIV PUSH1 0xFF AND SWAP1 POP DUP3 JUMP JUMPDEST PUSH0 PUSH1 0x40 MLOAD SWAP1 POP SWAP1 JUMP JUMPDEST PUSH0 PUSH0 REVERT JUMPDEST PUSH0 PUSH0 REVERT JUMPDEST PUSH0 PUSH20 0xFFFFFFFFFFFFFFFFFFFFFFFFFFFFFFFFFFFFFFFF DUP3 AND SWAP1 POP SWAP2 SWAP1 POP JUMP JUMPDEST PUSH0 PUSH2 0x6E7 DUP3 PUSH2 0x6BE JUMP JUMPDEST SWAP1 POP SWAP2 SWAP1 POP JUMP JUMPDEST PUSH2 0x6F7 DUP2 PUSH2 0x6DD JUMP JUMPDEST DUP2 EQ PUSH2 0x701 JUMPI PUSH0 PUSH0 REVERT JUMPDEST POP JUMP JUMPDEST PUSH0 DUP2 CALLDATALOAD SWAP1 POP PUSH2 0x712 DUP2 PUSH2 0x6EE JUMP JUMPDEST SWAP3 SWAP2 POP POP JUMP JUMPDEST PUSH0 PUSH1 0x20 DUP3 DUP5 SUB SLT ISZERO PUSH2 0x72D JUMPI PUSH2 0x72C PUSH2 0x6B6 JUMP JUMPDEST JUMPDEST PUSH0 PUSH2 0x73A DUP5 DUP3 DUP6 ADD PUSH2 0x704 JUMP JUMPDEST SWAP2 POP POP SWAP3 SWAP2 POP POP JUMP JUMPDEST PUSH0 DUP2 SWAP1 POP SWAP2 SWAP1 POP JUMP JUMPDEST PUSH2 0x755 DUP2 PUSH2 0x743 JUMP JUMPDEST DUP3 MSTORE POP POP JUMP JUMPDEST PUSH0 PUSH1 0x20 DUP3 ADD SWAP1 POP PUSH2 0x76E PUSH0 DUP4 ADD DUP5 PUSH2 0x74C JUMP JUMPDEST SWAP3 SWAP2 POP POP JUMP JUMPDEST PUSH0 PUSH0 REVERT JUMPDEST PUSH0 PUSH0 REVERT JUMPDEST PUSH0 PUSH1 0x1F NOT PUSH1 0x1F DUP4 ADD AND SWAP1 POP SWAP2 SWAP1 POP JUMP JUMPDEST PUSH32 0x4E487B7100000000000000000000000000000000000000000000000000000000 PUSH0 MSTORE PUSH1 0x41 PUSH1 0x4 MSTORE PUSH1 0x24 PUSH0 REVERT JUMPDEST PUSH2 0x7C2 DUP3 PUSH2 0x77C JUMP JUMPDEST DUP2 ADD DUP2 DUP2 LT PUSH8 0xFFFFFFFFFFFFFFFF DUP3 GT OR ISZERO PUSH2 0x7E1 JUMPI PUSH2 0x7E0 PUSH2 0x78C JUMP JUMPDEST JUMPDEST DUP1 PUSH1 0x40 MSTORE POP POP POP JUMP JUMPDEST PUSH0 PUSH2 0x7F3 PUSH2 0x6AD JUMP JUMPDEST SWAP1 POP PUSH2 0x7FF DUP3 DUP3 PUSH2 0x7B9 JUMP JUMPDEST SWAP2 SWAP1 POP JUMP JUMPDEST PUSH0 PUSH8 0xFFFFFFFFFFFFFFFF DUP3 GT ISZERO PUSH2 0x81E JUMPI PUSH2 0x81D PUSH2 0x78C JUMP JUMPDEST JUMPDEST PUSH2 0x827 DUP3 PUSH2 0x77C JUMP JUMPDEST SWAP1 POP PUSH1 0x20 DUP2 ADD SWAP1 POP SWAP2 SWAP1 POP JUMP JUMPDEST DUP3 DUP2 DUP4 CALLDATACOPY PUSH0 DUP4 DUP4 ADD MSTORE POP POP POP JUMP JUMPDEST PUSH0 PUSH2 0x854 PUSH2 0x84F DUP5 PUSH2 0x804 JUMP JUMPDEST PUSH2 0x7EA JUMP JUMPDEST SWAP1 POP DUP3 DUP2 MSTORE PUSH1 0x20 DUP2 ADD DUP5 DUP5 DUP5 ADD GT ISZERO PUSH2 0x870 JUMPI PUSH2 0x86F PUSH2 0x778 JUMP JUMPDEST JUMPDEST PUSH2 0x87B DUP5 DUP3 DUP6 PUSH2 0x834 JUMP JUMPDEST POP SWAP4 SWAP3 POP POP POP JUMP JUMPDEST PUSH0 DUP3 PUSH1 0x1F DUP4 ADD SLT PUSH2 0x897 JUMPI PUSH2 0x896 PUSH2 0x774 JUMP JUMPDEST JUMPDEST DUP2 CALLDATALOAD PUSH2 0x8A7 DUP5 DUP3 PUSH1 0x20 DUP7 ADD PUSH2 0x842 JUMP JUMPDEST SWAP2 POP POP SWAP3 SWAP2 POP POP JUMP JUMPDEST PUSH0 PUSH1 0x20 DUP3 DUP5 SUB SLT ISZERO PUSH2 0x8C5 JUMPI PUSH2 0x8C4 PUSH2 0x6B6 JUMP JUMPDEST JUMPDEST PUSH0 DUP3 ADD CALLDATALOAD PUSH8 0xFFFFFFFFFFFFFFFF DUP2 GT ISZERO PUSH2 0x8E2 JUMPI PUSH2 0x8E1 PUSH2 0x6BA JUMP JUMPDEST JUMPDEST PUSH2 0x8EE DUP5 DUP3 DUP6 ADD PUSH2 0x883 JUMP JUMPDEST SWAP2 POP POP SWAP3 SWAP2 POP POP JUMP JUMPDEST PUSH0 DUP2 MLOAD SWAP1 POP SWAP2 SWAP1 POP JUMP JUMPDEST PUSH0 DUP3 DUP3 MSTORE PUSH1 0x20 DUP3 ADD SWAP1 POP SWAP3 SWAP2 POP POP JUMP JUMPDEST DUP3 DUP2 DUP4 MCOPY PUSH0 DUP4 DUP4 ADD MSTORE POP POP POP JUMP JUMPDEST PUSH0 PUSH2 0x929 DUP3 PUSH2 0x8F7 JUMP JUMPDEST PUSH2 0x933 DUP2 DUP6 PUSH2 0x901 JUMP JUMPDEST SWAP4 POP PUSH2 0x943 DUP2 DUP6 PUSH1 0x20 DUP7 ADD PUSH2 0x911 JUMP JUMPDEST PUSH2 0x94C DUP2 PUSH2 0x77C JUMP JUMPDEST DUP5 ADD SWAP2 POP POP SWAP3 SWAP2 POP POP JUMP JUMPDEST PUSH0 DUP2 ISZERO ISZERO SWAP1 POP SWAP2 SWAP1 POP JUMP JUMPDEST PUSH2 0x96B DUP2 PUSH2 0x957 JUMP JUMPDEST DUP3 MSTORE POP POP JUMP JUMPDEST PUSH0 PUSH1 0x40 DUP3 ADD SWAP1 POP DUP2 DUP2 SUB PUSH0 DUP4 ADD MSTORE PUSH2 0x989 DUP2 DUP6 PUSH2 0x91F JUMP JUMPDEST SWAP1 POP PUSH2 0x998 PUSH1 0x20 DUP4 ADD DUP5 PUSH2 0x962 JUMP JUMPDEST SWAP4 SWAP3 POP POP POP JUMP JUMPDEST PUSH32 0x456E64657265636F20696E76616C69646F000000000000000000000000000000 PUSH0 DUP3 ADD MSTORE POP JUMP JUMPDEST PUSH0 PUSH2 0x9D3 PUSH1 0x11 DUP4 PUSH2 0x901 JUMP JUMPDEST SWAP2 POP PUSH2 0x9DE DUP3 PUSH2 0x99F JUMP JUMPDEST PUSH1 0x20 DUP3 ADD SWAP1 POP SWAP2 SWAP1 POP JUMP JUMPDEST PUSH0 PUSH1 0x20 DUP3 ADD SWAP1 POP DUP2 DUP2 SUB PUSH0 DUP4 ADD MSTORE PUSH2 0xA00 DUP2 PUSH2 0x9C7 JUMP JUMPDEST SWAP1 POP SWAP2 SWAP1 POP JUMP JUMPDEST PUSH32 0x5573756172696F206E616F207265676973747261646F00000000000000000000 PUSH0 DUP3 ADD MSTORE POP JUMP JUMPDEST PUSH0 PUSH2 0xA3B PUSH1 0x16 DUP4 PUSH2 0x901 JUMP JUMPDEST SWAP2 POP PUSH2 0xA46 DUP3 PUSH2 0xA07 JUMP JUMPDEST PUSH1 0x20 DUP3 ADD SWAP1 POP SWAP2 SWAP1 POP JUMP JUMPDEST PUSH0 PUSH1 0x20 DUP3 ADD SWAP1 POP DUP2 DUP2 SUB PUSH0 DUP4 ADD MSTORE PUSH2 0xA68 DUP2 PUSH2 0xA2F JUMP JUMPDEST SWAP1 POP SWAP2 SWAP1 POP JUMP JUMPDEST PUSH32 0x4E487B7100000000000000000000000000000000000000000000000000000000 PUSH0 MSTORE PUSH1 0x11 PUSH1 0x4 MSTORE PUSH1 0x24 PUSH0 REVERT JUMPDEST PUSH0 PUSH2 0xAA6 DUP3 PUSH2 0x743 JUMP JUMPDEST SWAP2 POP PUSH2 0xAB1 DUP4 PUSH2 0x743 JUMP JUMPDEST SWAP3 POP DUP3 DUP3 ADD SWAP1 POP DUP1 DUP3 GT ISZERO PUSH2 0xAC9 JUMPI PUSH2 0xAC8 PUSH2 0xA6F JUMP JUMPDEST JUMPDEST SWAP3 SWAP2 POP POP JUMP JUMPDEST PUSH32 0x5573756172696F206A61207265676973747261646F0000000000000000000000 PUSH0 DUP3 ADD MSTORE POP JUMP JUMPDEST PUSH0 PUSH2 0xB03 PUSH1 0x15 DUP4 PUSH2 0x901 JUMP JUMPDEST SWAP2 POP PUSH2 0xB0E DUP3 PUSH2 0xACF JUMP JUMPDEST PUSH1 0x20 DUP3 ADD SWAP1 POP SWAP2 SWAP1 POP JUMP JUMPDEST PUSH0 PUSH1 0x20 DUP3 ADD SWAP1 POP DUP2 DUP2 SUB PUSH0 DUP4 ADD MSTORE PUSH2 0xB30 DUP2 PUSH2 0xAF7 JUMP JUMPDEST SWAP1 POP SWAP2 SWAP1 POP JUMP JUMPDEST PUSH32 0x4E6F6D65206E616F20706F6465207365722076617A696F000000000000000000 PUSH0 DUP3 ADD MSTORE POP JUMP JUMPDEST PUSH0 PUSH2 0xB6B PUSH1 0x17 DUP4 PUSH2 0x901 JUMP JUMPDEST SWAP2 POP PUSH2 0xB76 DUP3 PUSH2 0xB37 JUMP JUMPDEST PUSH1 0x20 DUP3 ADD SWAP1 POP SWAP2 SWAP1 POP JUMP JUMPDEST PUSH0 PUSH1 0x20 DUP3 ADD SWAP1 POP DUP2 DUP2 SUB PUSH0 DUP4 ADD MSTORE PUSH2 0xB98 DUP2 PUSH2 0xB5F JUMP JUMPDEST SWAP1 POP SWAP2 SWAP1 POP JUMP JUMPDEST PUSH32 0x4E487B7100000000000000000000000000000000000000000000000000000000 PUSH0 MSTORE PUSH1 0x22 PUSH1 0x4 MSTORE PUSH1 0x24 PUSH0 REVERT JUMPDEST PUSH0 PUSH1 0x2 DUP3 DIV SWAP1 POP PUSH1 0x1 DUP3 AND DUP1 PUSH2 0xBE3 JUMPI PUSH1 0x7F DUP3 AND SWAP2 POP JUMPDEST PUSH1 0x20 DUP3 LT DUP2 SUB PUSH2 0xBF6 JUMPI PUSH2 0xBF5 PUSH2 0xB9F JUMP JUMPDEST JUMPDEST POP SWAP2 SWAP1 POP JUMP JUMPDEST PUSH0 DUP2 SWAP1 POP DUP2 PUSH0 MSTORE PUSH1 0x20 PUSH0 KECCAK256 SWAP1 POP SWAP2 SWAP1 POP JUMP JUMPDEST PUSH0 PUSH1 0x20 PUSH1 0x1F DUP4 ADD DIV SWAP1 POP SWAP2 SWAP1 POP JUMP JUMPDEST PUSH0 DUP3 DUP3 SHL SWAP1 POP SWAP3 SWAP2 POP POP JUMP JUMPDEST PUSH0 PUSH1 0x8 DUP4 MUL PUSH2 0xC58 PUSH32 0xFFFFFFFFFFFFFFFFFFFFFFFFFFFFFFFFFFFFFFFFFFFFFFFFFFFFFFFFFFFFFFFF DUP3 PUSH2 0xC1D JUMP JUMPDEST PUSH2 0xC62 DUP7 DUP4 PUSH2 0xC1D JUMP JUMPDEST SWAP6 POP DUP1 NOT DUP5 AND SWAP4 POP DUP1 DUP7 AND DUP5 OR SWAP3 POP POP POP SWAP4 SWAP3 POP POP POP JUMP JUMPDEST PUSH0 DUP2 SWAP1 POP SWAP2 SWAP1 POP JUMP JUMPDEST PUSH0 PUSH2 0xC9D PUSH2 0xC98 PUSH2 0xC93 DUP5 PUSH2 0x743 JUMP JUMPDEST PUSH2 0xC7A JUMP JUMPDEST PUSH2 0x743 JUMP JUMPDEST SWAP1 POP SWAP2 SWAP1 POP JUMP JUMPDEST PUSH0 DUP2 SWAP1 POP SWAP2 SWAP1 POP JUMP JUMPDEST PUSH2 0xCB6 DUP4 PUSH2 0xC83 JUMP JUMPDEST PUSH2 0xCCA PUSH2 0xCC2 DUP3 PUSH2 0xCA4 JUMP JUMPDEST DUP5 DUP5 SLOAD PUSH2 0xC29 JUMP JUMPDEST DUP3 SSTORE POP POP POP POP JUMP JUMPDEST PUSH0 PUSH0 SWAP1 POP SWAP1 JUMP JUMPDEST PUSH2 0xCE1 PUSH2 0xCD2 JUMP JUMPDEST PUSH2 0xCEC DUP2 DUP5 DUP5 PUSH2 0xCAD JUMP JUMPDEST POP POP POP JUMP JUMPDEST JUMPDEST DUP2 DUP2 LT ISZERO PUSH2 0xD0F JUMPI PUSH2 0xD04 PUSH0 DUP3 PUSH2 0xCD9 JUMP JUMPDEST PUSH1 0x1 DUP2 ADD SWAP1 POP PUSH2 0xCF2 JUMP JUMPDEST POP POP JUMP JUMPDEST PUSH1 0x1F DUP3 GT ISZERO PUSH2 0xD54 JUMPI PUSH2 0xD25 DUP2 PUSH2 0xBFC JUMP JUMPDEST PUSH2 0xD2E DUP5 PUSH2 0xC0E JUMP JUMPDEST DUP2 ADD PUSH1 0x20 DUP6 LT ISZERO PUSH2 0xD3D JUMPI DUP2 SWAP1 POP JUMPDEST PUSH2 0xD51 PUSH2 0xD49 DUP6 PUSH2 0xC0E JUMP JUMPDEST DUP4 ADD DUP3 PUSH2 0xCF1 JUMP JUMPDEST POP POP JUMPDEST POP POP POP JUMP JUMPDEST PUSH0 DUP3 DUP3 SHR SWAP1 POP SWAP3 SWAP2 POP POP JUMP JUMPDEST PUSH0 PUSH2 0xD74 PUSH0 NOT DUP5 PUSH1 0x8 MUL PUSH2 0xD59 JUMP JUMPDEST NOT DUP1 DUP4 AND SWAP2 POP POP SWAP3 SWAP2 POP POP JUMP JUMPDEST PUSH0 PUSH2 0xD8C DUP4 DUP4 PUSH2 0xD65 JUMP JUMPDEST SWAP2 POP DUP3 PUSH1 0x2 MUL DUP3 OR SWAP1 POP SWAP3 SWAP2 POP POP JUMP JUMPDEST PUSH2 0xDA5 DUP3 PUSH2 0x8F7 JUMP JUMPDEST PUSH8 0xFFFFFFFFFFFFFFFF DUP2 GT ISZERO PUSH2 0xDBE JUMPI PUSH2 0xDBD PUSH2 0x78C JUMP JUMPDEST JUMPDEST PUSH2 0xDC8 DUP3 SLOAD PUSH2 0xBCC JUMP JUMPDEST PUSH2 0xDD3 DUP3 DUP3 DUP6 PUSH2 0xD13 JUMP JUMPDEST PUSH0 PUSH1 0x20 SWAP1 POP PUSH1 0x1F DUP4 GT PUSH1 0x1 DUP2 EQ PUSH2 0xE04 JUMPI PUSH0 DUP5 ISZERO PUSH2 0xDF2 JUMPI DUP3 DUP8 ADD MLOAD SWAP1 POP JUMPDEST PUSH2 0xDFC DUP6 DUP3 PUSH2 0xD81 JUMP JUMPDEST DUP7 SSTORE POP PUSH2 0xE63 JUMP JUMPDEST PUSH1 0x1F NOT DUP5 AND PUSH2 0xE12 DUP7 PUSH2 0xBFC JUMP JUMPDEST PUSH0 JUMPDEST DUP3 DUP2 LT ISZERO PUSH2 0xE39 JUMPI DUP5 DUP10 ADD MLOAD DUP3 SSTORE PUSH1 0x1 DUP3 ADD SWAP2 POP PUSH1 0x20 DUP6 ADD SWAP5 POP PUSH1 0x20 DUP2 ADD SWAP1 POP PUSH2 0xE14 JUMP JUMPDEST DUP7 DUP4 LT ISZERO PUSH2 0xE56 JUMPI DUP5 DUP10 ADD MLOAD PUSH2 0xE52 PUSH1 0x1F DUP10 AND DUP3 PUSH2 0xD65 JUMP JUMPDEST DUP4 SSTORE POP JUMPDEST PUSH1 0x1 PUSH1 0x2 DUP9 MUL ADD DUP9 SSTORE POP POP POP JUMPDEST POP POP POP POP POP POP JUMP JUMPDEST PUSH0 PUSH1 0x20 DUP3 ADD SWAP1 POP DUP2 DUP2 SUB PUSH0 DUP4 ADD MSTORE PUSH2 0xE83 DUP2 DUP5 PUSH2 0x91F JUMP JUMPDEST SWAP1 POP SWAP3 SWAP2 POP POP JUMP INVALID LOG2 PUSH5 0x6970667358 0x22 SLT KECCAK256 0xD5 BYTE DUP9 BLOCKHASH 0xDB DUP4 0x2B EXTCODECOPY MSIZE DUP15 0xAC SHR 0xAC 0xE 0xB8 BLOBBASEFEE RETURNDATASIZE 0xD JUMP PUSH25 0x189C1AC6BCCA20F13DDBDF7464736F6C634300081F00330000 "
				},
				"gasEstimates": {
					"creation": {
						"codeDepositCost": "755400",
						"executionCost": "790",
						"totalCost": "756190"
					},
					"external": {
						"consultarUsuario(address)": "infinite",
						"recompensarUsuario(address)": "infinite",
						"registrarUsuario(string)": "infinite",
						"saldo(address)": "2780",
						"usuarios(address)": "infinite"
					}
				},
				"methodIdentifiers": {
					"consultarUsuario(address)": "cd4205bd",
					"recompensarUsuario(address)": "ada4823a",
					"registrarUsuario(string)": "bff59291",
					"saldo(address)": "422fb525",
					"usuarios(address)": "f6b91ea9"
				}
			},
			"storageLayout": {
				"storage": [
					{
						"astId": 11,
						"contract": "contracts/simplecontract.sol:RegistroDeUsuariosComRecompensa",
						"label": "usuarios",
						"offset": 0,
						"slot": "0",
						"type": "t_mapping(t_address,t_struct(Usuario)6_storage)"
					},
					{
						"astId": 15,
						"contract": "contracts/simplecontract.sol:RegistroDeUsuariosComRecompensa",
						"label": "saldo",
						"offset": 0,
						"slot": "1",
						"type": "t_mapping(t_address,t_uint256)"
					}
				],
				"types": {
					"t_address": {
						"encoding": "inplace",
						"label": "address",
						"numberOfBytes": "20"
					},
					"t_bool": {
						"encoding": "inplace",
						"label": "bool",
						"numberOfBytes": "1"
					},
					"t_mapping(t_address,t_struct(Usuario)6_storage)": {
						"encoding": "mapping",
						"key": "t_address",
						"label": "mapping(address => struct RegistroDeUsuariosComRecompensa.Usuario)",
						"numberOfBytes": "32",
						"value": "t_struct(Usuario)6_storage"
					},
					"t_mapping(t_address,t_uint256)": {
						"encoding": "mapping",
						"key": "t_address",
						"label": "mapping(address => uint256)",
						"numberOfBytes": "32",
						"value": "t_uint256"
					},
					"t_string_storage": {
						"encoding": "bytes",
						"label": "string",
						"numberOfBytes": "32"
					},
					"t_struct(Usuario)6_storage": {
						"encoding": "inplace",
						"label": "struct RegistroDeUsuariosComRecompensa.Usuario",
						"members": [
							{
								"astId": 3,
								"contract": "contracts/simplecontract.sol:RegistroDeUsuariosComRecompensa",
								"label": "nome",
								"offset": 0,
								"slot": "0",
								"type": "t_string_storage"
							},
							{
								"astId": 5,
								"contract": "contracts/simplecontract.sol:RegistroDeUsuariosComRecompensa",
								"label": "registrado",
								"offset": 0,
								"slot": "1",
								"type": "t_bool"
							}
						],
						"numberOfBytes": "64"
					},
					"t_uint256": {
						"encoding": "inplace",
						"label": "uint256",
						"numberOfBytes": "32"
					}
				}
			},
			"userdoc": {
				"kind": "user",
				"methods": {},
				"version": 1
			}
		}
	}
}