{
	"tests/RegistroMusica.sol": {
		"RegistroMusica": {
			"abi": [
				{
					"anonymous": false,
					"inputs": [
						{
							"indexed": false,
							"internalType": "string",
							"name": "titulo",
							"type": "string"
						},
						{
							"indexed": false,
							"internalType": "string",
							"name": "autor",
							"type": "string"
						},
						{
							"indexed": false,
							"internalType": "string",
							"name": "hashArquivo",
							"type": "string"
						},
						{
							"indexed": false,
							"internalType": "uint256",
							"name": "dataRegistro",
							"type": "uint256"
						}
					],
					"name": "MusicaRegistrada",
					"type": "event"
				},
				{
					"inputs": [],
					"name": "registrarMusica",
					"outputs": [],
					"stateMutability": "nonpayable",
					"type": "function"
				},
				{
					"inputs": [],
					"name": "ultimaMusica",
					"outputs": [
						{
							"internalType": "string",
							"name": "titulo",
							"type": "string"
						},
						{
							"internalType": "string",
							"name": "autor",
							"type": "string"
						},
						{
							"internalType": "string",
							"name": "hashArquivo",
							"type": "string"
						},
						{
							"internalType": "uint256",
							"name": "dataRegistro",
							"type": "uint256"
						}
					],
					"stateMutability": "view",
					"type": "function"
				}
			],
			"devdoc": {
				"kind": "dev",
				"methods": {},
				"version": 1
			},
			"evm": {
				"assembly": "    /* \"tests/RegistroMusica.sol\":60:881  contract RegistroMusica {... */\n  mstore(0x40, 0x80)\n  callvalue\n  dup1\n  iszero\n  tag_1\n  jumpi\n  revert(0x00, 0x00)\ntag_1:\n  pop\n  dataSize(sub_0)\n  dup1\n  dataOffset(sub_0)\n  0x00\n  codecopy\n  0x00\n  return\nstop\n\nsub_0: assembly {\n        /* \"tests/RegistroMusica.sol\":60:881  contract RegistroMusica {... */\n      mstore(0x40, 0x80)\n      callvalue\n      dup1\n      iszero\n      tag_1\n      jumpi\n      revert(0x00, 0x00)\n    tag_1:\n      pop\n      jumpi(tag_2, lt(calldatasize, 0x04))\n      shr(0xe0, calldataload(0x00))\n      dup1\n      0x24706302\n      eq\n      tag_3\n      jumpi\n      dup1\n      0xc0746599\n      eq\n      tag_4\n      jumpi\n    tag_2:\n      revert(0x00, 0x00)\n        /* \"tests/RegistroMusica.sol\":410:878  function registrarMusica() public {... */\n    tag_3:\n      tag_5\n      tag_6\n      jump\t// in\n    tag_5:\n      stop\n        /* \"tests/RegistroMusica.sol\":230:256  Musica public ultimaMusica */\n    tag_4:\n      tag_7\n      tag_8\n      jump\t// in\n    tag_7:\n      mload(0x40)\n      tag_9\n      swap5\n      swap4\n      swap3\n      swap2\n      swap1\n      tag_10\n      jump\t// in\n    tag_9:\n      mload(0x40)\n      dup1\n      swap2\n      sub\n      swap1\n      return\n        /* \"tests/RegistroMusica.sol\":410:878  function registrarMusica() public {... */\n    tag_6:\n        /* \"tests/RegistroMusica.sol\":472:657  Musica(... */\n      mload(0x40)\n      dup1\n      0x80\n      add\n      0x40\n      mstore\n      dup1\n      mload(0x40)\n      dup1\n      0x40\n      add\n      0x40\n      mstore\n      dup1\n      0x08\n      dup2\n      mstore\n      0x20\n      add\n      0x6167756176697661000000000000000000000000000000000000000000000000\n      dup2\n      mstore\n      pop\n      dup2\n      mstore\n      0x20\n      add\n      mload(0x40)\n      dup1\n      0x40\n      add\n      0x40\n      mstore\n      dup1\n      0x0f\n      dup2\n      mstore\n      0x20\n      add\n      0x55626972616379204e6f62726567610000000000000000000000000000000000\n      dup2\n      mstore\n      pop\n      dup2\n      mstore\n      0x20\n      add\n      mload(0x40)\n      dup1\n      0x60\n      add\n      0x40\n      mstore\n      dup1\n      0x40\n      dup2\n      mstore\n      0x20\n      add\n      data_2e5e361c165a5a6706098b1806961da8eaf58b5799dada1cf71d39853c2f3ef9\n      0x40\n      swap2\n      codecopy\n      dup2\n      mstore\n      0x20\n      add\n        /* \"tests/RegistroMusica.sol\":631:646  block.timestamp */\n      timestamp\n        /* \"tests/RegistroMusica.sol\":472:657  Musica(... */\n      dup2\n      mstore\n      pop\n        /* \"tests/RegistroMusica.sol\":457:469  ultimaMusica */\n      0x00\n        /* \"tests/RegistroMusica.sol\":457:657  ultimaMusica = Musica(... */\n      0x00\n      dup3\n      add\n      mload\n      dup2\n      0x00\n      add\n      swap1\n      dup2\n      tag_12\n      swap2\n      swap1\n      tag_13\n      jump\t// in\n    tag_12:\n      pop\n      0x20\n      dup3\n      add\n      mload\n      dup2\n      0x01\n      add\n      swap1\n      dup2\n      tag_14\n      swap2\n      swap1\n      tag_13\n      jump\t// in\n    tag_14:\n      pop\n      0x40\n      dup3\n      add\n      mload\n      dup2\n      0x02\n      add\n      swap1\n      dup2\n      tag_15\n      swap2\n      swap1\n      tag_13\n      jump\t// in\n    tag_15:\n      pop\n      0x60\n      dup3\n      add\n      mload\n      dup2\n      0x03\n      add\n      sstore\n      swap1\n      pop\n      pop\n        /* \"tests/RegistroMusica.sol\":675:870  MusicaRegistrada(... */\n      0x3107446757a34de3700cff428fda92d9dfb1d59456e9d71b4afc7ead606e00d0\n        /* \"tests/RegistroMusica.sol\":844:859  block.timestamp */\n      timestamp\n        /* \"tests/RegistroMusica.sol\":675:870  MusicaRegistrada(... */\n      mload(0x40)\n      tag_16\n      swap2\n      swap1\n      tag_17\n      jump\t// in\n    tag_16:\n      mload(0x40)\n      dup1\n      swap2\n      sub\n      swap1\n      log1\n        /* \"tests/RegistroMusica.sol\":410:878  function registrarMusica() public {... */\n      jump\t// out\n        /* \"tests/RegistroMusica.sol\":230:256  Musica public ultimaMusica */\n    tag_8:\n      0x00\n      dup1\n      0x00\n      add\n      dup1\n      sload\n      tag_18\n      swap1\n      tag_19\n      jump\t// in\n    tag_18:\n      dup1\n      0x1f\n      add\n      0x20\n      dup1\n      swap2\n      div\n      mul\n      0x20\n      add\n      mload(0x40)\n      swap1\n      dup2\n      add\n      0x40\n      mstore\n      dup1\n      swap3\n      swap2\n      swap1\n      dup2\n      dup2\n      mstore\n      0x20\n      add\n      dup3\n      dup1\n      sload\n      tag_20\n      swap1\n      tag_19\n      jump\t// in\n    tag_20:\n      dup1\n      iszero\n      tag_21\n      jumpi\n      dup1\n      0x1f\n      lt\n      tag_22\n      jumpi\n      0x0100\n      dup1\n      dup4\n      sload\n      div\n      mul\n      dup4\n      mstore\n      swap2\n      0x20\n      add\n      swap2\n      jump(tag_21)\n    tag_22:\n      dup3\n      add\n      swap2\n      swap1\n      0x00\n      mstore\n      keccak256(0x00, 0x20)\n      swap1\n    tag_23:\n      dup2\n      sload\n      dup2\n      mstore\n      swap1\n      0x01\n      add\n      swap1\n      0x20\n      add\n      dup1\n      dup4\n      gt\n      tag_23\n      jumpi\n      dup3\n      swap1\n      sub\n      0x1f\n      and\n      dup3\n      add\n      swap2\n    tag_21:\n      pop\n      pop\n      pop\n      pop\n      pop\n      swap1\n      dup1\n      0x01\n      add\n      dup1\n      sload\n      tag_24\n      swap1\n      tag_19\n      jump\t// in\n    tag_24:\n      dup1\n      0x1f\n      add\n      0x20\n      dup1\n      swap2\n      div\n      mul\n      0x20\n      add\n      mload(0x40)\n      swap1\n      dup2\n      add\n      0x40\n      mstore\n      dup1\n      swap3\n      swap2\n      swap1\n      dup2\n      dup2\n      mstore\n      0x20\n      add\n      dup3\n      dup1\n      sload\n      tag_25\n      swap1\n      tag_19\n      jump\t// in\n    tag_25:\n      dup1\n      iszero\n      tag_26\n      jumpi\n      dup1\n      0x1f\n      lt\n      tag_27\n      jumpi\n      0x0100\n      dup1\n      dup4\n      sload\n      div\n      mul\n      dup4\n      mstore\n      swap2\n      0x20\n      add\n      swap2\n      jump(tag_26)\n    tag_27:\n      dup3\n      add\n      swap2\n      swap1\n      0x00\n      mstore\n      keccak256(0x00, 0x20)\n      swap1\n    tag_28:\n      dup2\n      sload\n      dup2\n      mstore\n      swap1\n      0x01\n      add\n      swap1\n      0x20\n      add\n      dup1\n      dup4\n      gt\n      tag_28\n      jumpi\n      dup3\n      swap1\n      sub\n      0x1f\n      and\n      dup3\n      add\n      swap2\n    tag_26:\n      pop\n      pop\n      pop\n      pop\n      pop\n      swap1\n      dup1\n      0x02\n      add\n      dup1\n      sload\n      tag_29\n      swap1\n      tag_19\n      jump\t// in\n    tag_29:\n      dup1\n      0x1f\n      add\n      0x20\n      dup1\n      swap2\n      div\n      mul\n      0x20\n      add\n      mload(0x40)\n      swap1\n      dup2\n      add\n      0x40\n      mstore\n      dup1\n      swap3\n      swap2\n      swap1\n      dup2\n      dup2\n      mstore\n      0x20\n      add\n      dup3\n      dup1\n      sload\n      tag_30\n      swap1\n      tag_19\n      jump\t// in\n    tag_30:\n      dup1\n      iszero\n      tag_31\n      jumpi\n      dup1\n      0x1f\n      lt\n      tag_32\n      jumpi\n      0x0100\n      dup1\n      dup4\n      sload\n      div\n      mul\n      dup4\n      mstore\n      swap2\n      0x20\n      add\n      swap2\n      jump(tag_31)\n    tag_32:\n      dup3\n      add\n      swap2\n      swap1\n      0x00\n      mstore\n      keccak256(0x00, 0x20)\n      swap1\n    tag_33:\n      dup2\n      sload\n      dup2\n      mstore\n      swap1\n      0x01\n      add\n      swap1\n      0x20\n      add\n      dup1\n      dup4\n      gt\n      tag_33\n      jumpi\n      dup3\n      swap1\n      sub\n      0x1f\n      and\n      dup3\n      add\n      swap2\n    tag_31:\n      pop\n      pop\n      pop\n      pop\n      pop\n      swap1\n      dup1\n      0x03\n      add\n      sload\n      swap1\n      pop\n      dup5\n      jump\t// out\n        /* \"#utility.yul\":7:106   */\n    tag_34:\n        /* \"#utility.yul\":59:65   */\n      0x00\n        /* \"#utility.yul\":93:98   */\n      dup2\n        /* \"#utility.yul\":87:99   */\n      mload\n        /* \"#utility.yul\":77:99   */\n      swap1\n      pop\n        /* \"#utility.yul\":7:106   */\n      swap2\n      swap1\n      pop\n      jump\t// out\n        /* \"#utility.yul\":112:281   */\n    tag_35:\n        /* \"#utility.yul\":196:207   */\n      0x00\n        /* \"#utility.yul\":230:236   */\n      dup3\n        /* \"#utility.yul\":225:228   */\n      dup3\n        /* \"#utility.yul\":218:237   */\n      mstore\n        /* \"#utility.yul\":270:274   */\n      0x20\n        /* \"#utility.yul\":265:268   */\n      dup3\n        /* \"#utility.yul\":261:275   */\n      add\n        /* \"#utility.yul\":246:275   */\n      swap1\n      pop\n        /* \"#utility.yul\":112:281   */\n      swap3\n      swap2\n      pop\n      pop\n      jump\t// out\n        /* \"#utility.yul\":287:426   */\n    tag_36:\n        /* \"#utility.yul\":376:382   */\n      dup3\n        /* \"#utility.yul\":371:374   */\n      dup2\n        /* \"#utility.yul\":366:369   */\n      dup4\n        /* \"#utility.yul\":360:383   */\n      mcopy\n        /* \"#utility.yul\":417:418   */\n      0x00\n        /* \"#utility.yul\":408:414   */\n      dup4\n        /* \"#utility.yul\":403:406   */\n      dup4\n        /* \"#utility.yul\":399:415   */\n      add\n        /* \"#utility.yul\":392:419   */\n      mstore\n        /* \"#utility.yul\":287:426   */\n      pop\n      pop\n      pop\n      jump\t// out\n        /* \"#utility.yul\":432:534   */\n    tag_37:\n        /* \"#utility.yul\":473:479   */\n      0x00\n        /* \"#utility.yul\":524:526   */\n      0x1f\n        /* \"#utility.yul\":520:527   */\n      not\n        /* \"#utility.yul\":515:517   */\n      0x1f\n        /* \"#utility.yul\":508:513   */\n      dup4\n        /* \"#utility.yul\":504:518   */\n      add\n        /* \"#utility.yul\":500:528   */\n      and\n        /* \"#utility.yul\":490:528   */\n      swap1\n      pop\n        /* \"#utility.yul\":432:534   */\n      swap2\n      swap1\n      pop\n      jump\t// out\n        /* \"#utility.yul\":540:917   */\n    tag_38:\n        /* \"#utility.yul\":628:631   */\n      0x00\n        /* \"#utility.yul\":656:695   */\n      tag_70\n        /* \"#utility.yul\":689:694   */\n      dup3\n        /* \"#utility.yul\":656:695   */\n      tag_34\n      jump\t// in\n    tag_70:\n        /* \"#utility.yul\":711:782   */\n      tag_71\n        /* \"#utility.yul\":775:781   */\n      dup2\n        /* \"#utility.yul\":770:773   */\n      dup6\n        /* \"#utility.yul\":711:782   */\n      tag_35\n      jump\t// in\n    tag_71:\n        /* \"#utility.yul\":704:782   */\n      swap4\n      pop\n        /* \"#utility.yul\":791:856   */\n      tag_72\n        /* \"#utility.yul\":849:855   */\n      dup2\n        /* \"#utility.yul\":844:847   */\n      dup6\n        /* \"#utility.yul\":837:841   */\n      0x20\n        /* \"#utility.yul\":830:835   */\n      dup7\n        /* \"#utility.yul\":826:842   */\n      add\n        /* \"#utility.yul\":791:856   */\n      tag_36\n      jump\t// in\n    tag_72:\n        /* \"#utility.yul\":881:910   */\n      tag_73\n        /* \"#utility.yul\":903:909   */\n      dup2\n        /* \"#utility.yul\":881:910   */\n      tag_37\n      jump\t// in\n    tag_73:\n        /* \"#utility.yul\":876:879   */\n      dup5\n        /* \"#utility.yul\":872:911   */\n      add\n        /* \"#utility.yul\":865:911   */\n      swap2\n      pop\n        /* \"#utility.yul\":632:917   */\n      pop\n        /* \"#utility.yul\":540:917   */\n      swap3\n      swap2\n      pop\n      pop\n      jump\t// out\n        /* \"#utility.yul\":923:1000   */\n    tag_39:\n        /* \"#utility.yul\":960:967   */\n      0x00\n        /* \"#utility.yul\":989:994   */\n      dup2\n        /* \"#utility.yul\":978:994   */\n      swap1\n      pop\n        /* \"#utility.yul\":923:1000   */\n      swap2\n      swap1\n      pop\n      jump\t// out\n        /* \"#utility.yul\":1006:1124   */\n    tag_40:\n        /* \"#utility.yul\":1093:1117   */\n      tag_76\n        /* \"#utility.yul\":1111:1116   */\n      dup2\n        /* \"#utility.yul\":1093:1117   */\n      tag_39\n      jump\t// in\n    tag_76:\n        /* \"#utility.yul\":1088:1091   */\n      dup3\n        /* \"#utility.yul\":1081:1118   */\n      mstore\n        /* \"#utility.yul\":1006:1124   */\n      pop\n      pop\n      jump\t// out\n        /* \"#utility.yul\":1130:1956   */\n    tag_10:\n        /* \"#utility.yul\":1367:1371   */\n      0x00\n        /* \"#utility.yul\":1405:1408   */\n      0x80\n        /* \"#utility.yul\":1394:1403   */\n      dup3\n        /* \"#utility.yul\":1390:1409   */\n      add\n        /* \"#utility.yul\":1382:1409   */\n      swap1\n      pop\n        /* \"#utility.yul\":1455:1464   */\n      dup2\n        /* \"#utility.yul\":1449:1453   */\n      dup2\n        /* \"#utility.yul\":1445:1465   */\n      sub\n        /* \"#utility.yul\":1441:1442   */\n      0x00\n        /* \"#utility.yul\":1430:1439   */\n      dup4\n        /* \"#utility.yul\":1426:1443   */\n      add\n        /* \"#utility.yul\":1419:1466   */\n      mstore\n        /* \"#utility.yul\":1483:1561   */\n      tag_78\n        /* \"#utility.yul\":1556:1560   */\n      dup2\n        /* \"#utility.yul\":1547:1553   */\n      dup8\n        /* \"#utility.yul\":1483:1561   */\n      tag_38\n      jump\t// in\n    tag_78:\n        /* \"#utility.yul\":1475:1561   */\n      swap1\n      pop\n        /* \"#utility.yul\":1608:1617   */\n      dup2\n        /* \"#utility.yul\":1602:1606   */\n      dup2\n        /* \"#utility.yul\":1598:1618   */\n      sub\n        /* \"#utility.yul\":1593:1595   */\n      0x20\n        /* \"#utility.yul\":1582:1591   */\n      dup4\n        /* \"#utility.yul\":1578:1596   */\n      add\n        /* \"#utility.yul\":1571:1619   */\n      mstore\n        /* \"#utility.yul\":1636:1714   */\n      tag_79\n        /* \"#utility.yul\":1709:1713   */\n      dup2\n        /* \"#utility.yul\":1700:1706   */\n      dup7\n        /* \"#utility.yul\":1636:1714   */\n      tag_38\n      jump\t// in\n    tag_79:\n        /* \"#utility.yul\":1628:1714   */\n      swap1\n      pop\n        /* \"#utility.yul\":1761:1770   */\n      dup2\n        /* \"#utility.yul\":1755:1759   */\n      dup2\n        /* \"#utility.yul\":1751:1771   */\n      sub\n        /* \"#utility.yul\":1746:1748   */\n      0x40\n        /* \"#utility.yul\":1735:1744   */\n      dup4\n        /* \"#utility.yul\":1731:1749   */\n      add\n        /* \"#utility.yul\":1724:1772   */\n      mstore\n        /* \"#utility.yul\":1789:1867   */\n      tag_80\n        /* \"#utility.yul\":1862:1866   */\n      dup2\n        /* \"#utility.yul\":1853:1859   */\n      dup6\n        /* \"#utility.yul\":1789:1867   */\n      tag_38\n      jump\t// in\n    tag_80:\n        /* \"#utility.yul\":1781:1867   */\n      swap1\n      pop\n        /* \"#utility.yul\":1877:1949   */\n      tag_81\n        /* \"#utility.yul\":1945:1947   */\n      0x60\n        /* \"#utility.yul\":1934:1943   */\n      dup4\n        /* \"#utility.yul\":1930:1948   */\n      add\n        /* \"#utility.yul\":1921:1927   */\n      dup5\n        /* \"#utility.yul\":1877:1949   */\n      tag_40\n      jump\t// in\n    tag_81:\n        /* \"#utility.yul\":1130:1956   */\n      swap6\n      swap5\n      pop\n      pop\n      pop\n      pop\n      pop\n      jump\t// out\n        /* \"#utility.yul\":1962:2142   */\n    tag_41:\n        /* \"#utility.yul\":2010:2087   */\n      0x4e487b7100000000000000000000000000000000000000000000000000000000\n        /* \"#utility.yul\":2007:2008   */\n      0x00\n        /* \"#utility.yul\":2000:2088   */\n      mstore\n        /* \"#utility.yul\":2107:2111   */\n      0x41\n        /* \"#utility.yul\":2104:2105   */\n      0x04\n        /* \"#utility.yul\":2097:2112   */\n      mstore\n        /* \"#utility.yul\":2131:2135   */\n      0x24\n        /* \"#utility.yul\":2128:2129   */\n      0x00\n        /* \"#utility.yul\":2121:2136   */\n      revert\n        /* \"#utility.yul\":2148:2328   */\n    tag_42:\n        /* \"#utility.yul\":2196:2273   */\n      0x4e487b7100000000000000000000000000000000000000000000000000000000\n        /* \"#utility.yul\":2193:2194   */\n      0x00\n        /* \"#utility.yul\":2186:2274   */\n      mstore\n        /* \"#utility.yul\":2293:2297   */\n      0x22\n        /* \"#utility.yul\":2290:2291   */\n      0x04\n        /* \"#utility.yul\":2283:2298   */\n      mstore\n        /* \"#utility.yul\":2317:2321   */\n      0x24\n        /* \"#utility.yul\":2314:2315   */\n      0x00\n        /* \"#utility.yul\":2307:2322   */\n      revert\n        /* \"#utility.yul\":2334:2654   */\n    tag_19:\n        /* \"#utility.yul\":2378:2384   */\n      0x00\n        /* \"#utility.yul\":2415:2416   */\n      0x02\n        /* \"#utility.yul\":2409:2413   */\n      dup3\n        /* \"#utility.yul\":2405:2417   */\n      div\n        /* \"#utility.yul\":2395:2417   */\n      swap1\n      pop\n        /* \"#utility.yul\":2462:2463   */\n      0x01\n        /* \"#utility.yul\":2456:2460   */\n      dup3\n        /* \"#utility.yul\":2452:2464   */\n      and\n        /* \"#utility.yul\":2483:2501   */\n      dup1\n        /* \"#utility.yul\":2473:2554   */\n      tag_85\n      jumpi\n        /* \"#utility.yul\":2539:2543   */\n      0x7f\n        /* \"#utility.yul\":2531:2537   */\n      dup3\n        /* \"#utility.yul\":2527:2544   */\n      and\n        /* \"#utility.yul\":2517:2544   */\n      swap2\n      pop\n        /* \"#utility.yul\":2473:2554   */\n    tag_85:\n        /* \"#utility.yul\":2601:2603   */\n      0x20\n        /* \"#utility.yul\":2593:2599   */\n      dup3\n        /* \"#utility.yul\":2590:2604   */\n      lt\n        /* \"#utility.yul\":2570:2588   */\n      dup2\n        /* \"#utility.yul\":2567:2605   */\n      sub\n        /* \"#utility.yul\":2564:2648   */\n      tag_86\n      jumpi\n        /* \"#utility.yul\":2620:2638   */\n      tag_87\n      tag_42\n      jump\t// in\n    tag_87:\n        /* \"#utility.yul\":2564:2648   */\n    tag_86:\n        /* \"#utility.yul\":2385:2654   */\n      pop\n        /* \"#utility.yul\":2334:2654   */\n      swap2\n      swap1\n      pop\n      jump\t// out\n        /* \"#utility.yul\":2660:2801   */\n    tag_43:\n        /* \"#utility.yul\":2709:2713   */\n      0x00\n        /* \"#utility.yul\":2732:2735   */\n      dup2\n        /* \"#utility.yul\":2724:2735   */\n      swap1\n      pop\n        /* \"#utility.yul\":2755:2758   */\n      dup2\n        /* \"#utility.yul\":2752:2753   */\n      0x00\n        /* \"#utility.yul\":2745:2759   */\n      mstore\n        /* \"#utility.yul\":2789:2793   */\n      0x20\n        /* \"#utility.yul\":2786:2787   */\n      0x00\n        /* \"#utility.yul\":2776:2794   */\n      keccak256\n        /* \"#utility.yul\":2768:2794   */\n      swap1\n      pop\n        /* \"#utility.yul\":2660:2801   */\n      swap2\n      swap1\n      pop\n      jump\t// out\n        /* \"#utility.yul\":2807:2900   */\n    tag_44:\n        /* \"#utility.yul\":2844:2850   */\n      0x00\n        /* \"#utility.yul\":2891:2893   */\n      0x20\n        /* \"#utility.yul\":2886:2888   */\n      0x1f\n        /* \"#utility.yul\":2879:2884   */\n      dup4\n        /* \"#utility.yul\":2875:2889   */\n      add\n        /* \"#utility.yul\":2871:2894   */\n      div\n        /* \"#utility.yul\":2861:2894   */\n      swap1\n      pop\n        /* \"#utility.yul\":2807:2900   */\n      swap2\n      swap1\n      pop\n      jump\t// out\n        /* \"#utility.yul\":2906:3013   */\n    tag_45:\n        /* \"#utility.yul\":2950:2958   */\n      0x00\n        /* \"#utility.yul\":3000:3005   */\n      dup3\n        /* \"#utility.yul\":2994:2998   */\n      dup3\n        /* \"#utility.yul\":2990:3006   */\n      shl\n        /* \"#utility.yul\":2969:3006   */\n      swap1\n      pop\n        /* \"#utility.yul\":2906:3013   */\n      swap3\n      swap2\n      pop\n      pop\n      jump\t// out\n        /* \"#utility.yul\":3019:3412   */\n    tag_46:\n        /* \"#utility.yul\":3088:3094   */\n      0x00\n        /* \"#utility.yul\":3138:3139   */\n      0x08\n        /* \"#utility.yul\":3126:3136   */\n      dup4\n        /* \"#utility.yul\":3122:3140   */\n      mul\n        /* \"#utility.yul\":3161:3258   */\n      tag_92\n        /* \"#utility.yul\":3191:3257   */\n      0xffffffffffffffffffffffffffffffffffffffffffffffffffffffffffffffff\n        /* \"#utility.yul\":3180:3189   */\n      dup3\n        /* \"#utility.yul\":3161:3258   */\n      tag_45\n      jump\t// in\n    tag_92:\n        /* \"#utility.yul\":3279:3318   */\n      tag_93\n        /* \"#utility.yul\":3309:3317   */\n      dup7\n        /* \"#utility.yul\":3298:3307   */\n      dup4\n        /* \"#utility.yul\":3279:3318   */\n      tag_45\n      jump\t// in\n    tag_93:\n        /* \"#utility.yul\":3267:3318   */\n      swap6\n      pop\n        /* \"#utility.yul\":3351:3355   */\n      dup1\n        /* \"#utility.yul\":3347:3356   */\n      not\n        /* \"#utility.yul\":3340:3345   */\n      dup5\n        /* \"#utility.yul\":3336:3357   */\n      and\n        /* \"#utility.yul\":3327:3357   */\n      swap4\n      pop\n        /* \"#utility.yul\":3400:3404   */\n      dup1\n        /* \"#utility.yul\":3390:3398   */\n      dup7\n        /* \"#utility.yul\":3386:3405   */\n      and\n        /* \"#utility.yul\":3379:3384   */\n      dup5\n        /* \"#utility.yul\":3376:3406   */\n      or\n        /* \"#utility.yul\":3366:3406   */\n      swap3\n      pop\n        /* \"#utility.yul\":3095:3412   */\n      pop\n      pop\n        /* \"#utility.yul\":3019:3412   */\n      swap4\n      swap3\n      pop\n      pop\n      pop\n      jump\t// out\n        /* \"#utility.yul\":3418:3478   */\n    tag_47:\n        /* \"#utility.yul\":3446:3449   */\n      0x00\n        /* \"#utility.yul\":3467:3472   */\n      dup2\n        /* \"#utility.yul\":3460:3472   */\n      swap1\n      pop\n        /* \"#utility.yul\":3418:3478   */\n      swap2\n      swap1\n      pop\n      jump\t// out\n        /* \"#utility.yul\":3484:3626   */\n    tag_48:\n        /* \"#utility.yul\":3534:3543   */\n      0x00\n        /* \"#utility.yul\":3567:3620   */\n      tag_96\n        /* \"#utility.yul\":3585:3619   */\n      tag_97\n        /* \"#utility.yul\":3594:3618   */\n      tag_98\n        /* \"#utility.yul\":3612:3617   */\n      dup5\n        /* \"#utility.yul\":3594:3618   */\n      tag_39\n      jump\t// in\n    tag_98:\n        /* \"#utility.yul\":3585:3619   */\n      tag_47\n      jump\t// in\n    tag_97:\n        /* \"#utility.yul\":3567:3620   */\n      tag_39\n      jump\t// in\n    tag_96:\n        /* \"#utility.yul\":3554:3620   */\n      swap1\n      pop\n        /* \"#utility.yul\":3484:3626   */\n      swap2\n      swap1\n      pop\n      jump\t// out\n        /* \"#utility.yul\":3632:3707   */\n    tag_49:\n        /* \"#utility.yul\":3675:3678   */\n      0x00\n        /* \"#utility.yul\":3696:3701   */\n      dup2\n        /* \"#utility.yul\":3689:3701   */\n      swap1\n      pop\n        /* \"#utility.yul\":3632:3707   */\n      swap2\n      swap1\n      pop\n      jump\t// out\n        /* \"#utility.yul\":3713:3982   */\n    tag_50:\n        /* \"#utility.yul\":3823:3862   */\n      tag_101\n        /* \"#utility.yul\":3854:3861   */\n      dup4\n        /* \"#utility.yul\":3823:3862   */\n      tag_48\n      jump\t// in\n    tag_101:\n        /* \"#utility.yul\":3884:3975   */\n      tag_102\n        /* \"#utility.yul\":3933:3974   */\n      tag_103\n        /* \"#utility.yul\":3957:3973   */\n      dup3\n        /* \"#utility.yul\":3933:3974   */\n      tag_49\n      jump\t// in\n    tag_103:\n        /* \"#utility.yul\":3925:3931   */\n      dup5\n        /* \"#utility.yul\":3918:3922   */\n      dup5\n        /* \"#utility.yul\":3912:3923   */\n      sload\n        /* \"#utility.yul\":3884:3975   */\n      tag_46\n      jump\t// in\n    tag_102:\n        /* \"#utility.yul\":3878:3882   */\n      dup3\n        /* \"#utility.yul\":3871:3976   */\n      sstore\n        /* \"#utility.yul\":3789:3982   */\n      pop\n        /* \"#utility.yul\":3713:3982   */\n      pop\n      pop\n      pop\n      jump\t// out\n        /* \"#utility.yul\":3988:4061   */\n    tag_51:\n        /* \"#utility.yul\":4033:4036   */\n      0x00\n        /* \"#utility.yul\":4054:4055   */\n      0x00\n        /* \"#utility.yul\":4047:4055   */\n      swap1\n      pop\n        /* \"#utility.yul\":3988:4061   */\n      swap1\n      jump\t// out\n        /* \"#utility.yul\":4067:4256   */\n    tag_52:\n        /* \"#utility.yul\":4144:4176   */\n      tag_106\n      tag_51\n      jump\t// in\n    tag_106:\n        /* \"#utility.yul\":4185:4250   */\n      tag_107\n        /* \"#utility.yul\":4243:4249   */\n      dup2\n        /* \"#utility.yul\":4235:4241   */\n      dup5\n        /* \"#utility.yul\":4229:4233   */\n      dup5\n        /* \"#utility.yul\":4185:4250   */\n      tag_50\n      jump\t// in\n    tag_107:\n        /* \"#utility.yul\":4120:4256   */\n      pop\n        /* \"#utility.yul\":4067:4256   */\n      pop\n      pop\n      jump\t// out\n        /* \"#utility.yul\":4262:4448   */\n    tag_53:\n        /* \"#utility.yul\":4322:4442   */\n    tag_109:\n        /* \"#utility.yul\":4339:4342   */\n      dup2\n        /* \"#utility.yul\":4332:4337   */\n      dup2\n        /* \"#utility.yul\":4329:4343   */\n      lt\n        /* \"#utility.yul\":4322:4442   */\n      iszero\n      tag_111\n      jumpi\n        /* \"#utility.yul\":4393:4432   */\n      tag_112\n        /* \"#utility.yul\":4430:4431   */\n      0x00\n        /* \"#utility.yul\":4423:4428   */\n      dup3\n        /* \"#utility.yul\":4393:4432   */\n      tag_52\n      jump\t// in\n    tag_112:\n        /* \"#utility.yul\":4366:4367   */\n      0x01\n        /* \"#utility.yul\":4359:4364   */\n      dup2\n        /* \"#utility.yul\":4355:4368   */\n      add\n        /* \"#utility.yul\":4346:4368   */\n      swap1\n      pop\n        /* \"#utility.yul\":4322:4442   */\n      jump(tag_109)\n    tag_111:\n        /* \"#utility.yul\":4262:4448   */\n      pop\n      pop\n      jump\t// out\n        /* \"#utility.yul\":4454:4997   */\n    tag_54:\n        /* \"#utility.yul\":4555:4557   */\n      0x1f\n        /* \"#utility.yul\":4550:4553   */\n      dup3\n        /* \"#utility.yul\":4547:4558   */\n      gt\n        /* \"#utility.yul\":4544:4990   */\n      iszero\n      tag_114\n      jumpi\n        /* \"#utility.yul\":4589:4627   */\n      tag_115\n        /* \"#utility.yul\":4621:4626   */\n      dup2\n        /* \"#utility.yul\":4589:4627   */\n      tag_43\n      jump\t// in\n    tag_115:\n        /* \"#utility.yul\":4673:4702   */\n      tag_116\n        /* \"#utility.yul\":4691:4701   */\n      dup5\n        /* \"#utility.yul\":4673:4702   */\n      tag_44\n      jump\t// in\n    tag_116:\n        /* \"#utility.yul\":4663:4671   */\n      dup2\n        /* \"#utility.yul\":4659:4703   */\n      add\n        /* \"#utility.yul\":4856:4858   */\n      0x20\n        /* \"#utility.yul\":4844:4854   */\n      dup6\n        /* \"#utility.yul\":4841:4859   */\n      lt\n        /* \"#utility.yul\":4838:4887   */\n      iszero\n      tag_117\n      jumpi\n        /* \"#utility.yul\":4877:4885   */\n      dup2\n        /* \"#utility.yul\":4862:4885   */\n      swap1\n      pop\n        /* \"#utility.yul\":4838:4887   */\n    tag_117:\n        /* \"#utility.yul\":4900:4980   */\n      tag_118\n        /* \"#utility.yul\":4956:4978   */\n      tag_119\n        /* \"#utility.yul\":4974:4977   */\n      dup6\n        /* \"#utility.yul\":4956:4978   */\n      tag_44\n      jump\t// in\n    tag_119:\n        /* \"#utility.yul\":4946:4954   */\n      dup4\n        /* \"#utility.yul\":4942:4979   */\n      add\n        /* \"#utility.yul\":4929:4940   */\n      dup3\n        /* \"#utility.yul\":4900:4980   */\n      tag_53\n      jump\t// in\n    tag_118:\n        /* \"#utility.yul\":4559:4990   */\n      pop\n      pop\n        /* \"#utility.yul\":4544:4990   */\n    tag_114:\n        /* \"#utility.yul\":4454:4997   */\n      pop\n      pop\n      pop\n      jump\t// out\n        /* \"#utility.yul\":5003:5120   */\n    tag_55:\n        /* \"#utility.yul\":5057:5065   */\n      0x00\n        /* \"#utility.yul\":5107:5112   */\n      dup3\n        /* \"#utility.yul\":5101:5105   */\n      dup3\n        /* \"#utility.yul\":5097:5113   */\n      shr\n        /* \"#utility.yul\":5076:5113   */\n      swap1\n      pop\n        /* \"#utility.yul\":5003:5120   */\n      swap3\n      swap2\n      pop\n      pop\n      jump\t// out\n        /* \"#utility.yul\":5126:5295   */\n    tag_56:\n        /* \"#utility.yul\":5170:5176   */\n      0x00\n        /* \"#utility.yul\":5203:5254   */\n      tag_122\n        /* \"#utility.yul\":5251:5252   */\n      0x00\n        /* \"#utility.yul\":5247:5253   */\n      not\n        /* \"#utility.yul\":5239:5244   */\n      dup5\n        /* \"#utility.yul\":5236:5237   */\n      0x08\n        /* \"#utility.yul\":5232:5245   */\n      mul\n        /* \"#utility.yul\":5203:5254   */\n      tag_55\n      jump\t// in\n    tag_122:\n        /* \"#utility.yul\":5199:5255   */\n      not\n        /* \"#utility.yul\":5284:5288   */\n      dup1\n        /* \"#utility.yul\":5278:5282   */\n      dup4\n        /* \"#utility.yul\":5274:5289   */\n      and\n        /* \"#utility.yul\":5264:5289   */\n      swap2\n      pop\n        /* \"#utility.yul\":5177:5295   */\n      pop\n        /* \"#utility.yul\":5126:5295   */\n      swap3\n      swap2\n      pop\n      pop\n      jump\t// out\n        /* \"#utility.yul\":5300:5595   */\n    tag_57:\n        /* \"#utility.yul\":5376:5380   */\n      0x00\n        /* \"#utility.yul\":5522:5551   */\n      tag_124\n        /* \"#utility.yul\":5547:5550   */\n      dup4\n        /* \"#utility.yul\":5541:5545   */\n      dup4\n        /* \"#utility.yul\":5522:5551   */\n      tag_56\n      jump\t// in\n    tag_124:\n        /* \"#utility.yul\":5514:5551   */\n      swap2\n      pop\n        /* \"#utility.yul\":5584:5587   */\n      dup3\n        /* \"#utility.yul\":5581:5582   */\n      0x02\n        /* \"#utility.yul\":5577:5588   */\n      mul\n        /* \"#utility.yul\":5571:5575   */\n      dup3\n        /* \"#utility.yul\":5568:5589   */\n      or\n        /* \"#utility.yul\":5560:5589   */\n      swap1\n      pop\n        /* \"#utility.yul\":5300:5595   */\n      swap3\n      swap2\n      pop\n      pop\n      jump\t// out\n        /* \"#utility.yul\":5600:6995   */\n    tag_13:\n        /* \"#utility.yul\":5717:5754   */\n      tag_126\n        /* \"#utility.yul\":5750:5753   */\n      dup3\n        /* \"#utility.yul\":5717:5754   */\n      tag_34\n      jump\t// in\n    tag_126:\n        /* \"#utility.yul\":5819:5837   */\n      0xffffffffffffffff\n        /* \"#utility.yul\":5811:5817   */\n      dup2\n        /* \"#utility.yul\":5808:5838   */\n      gt\n        /* \"#utility.yul\":5805:5861   */\n      iszero\n      tag_127\n      jumpi\n        /* \"#utility.yul\":5841:5859   */\n      tag_128\n      tag_41\n      jump\t// in\n    tag_128:\n        /* \"#utility.yul\":5805:5861   */\n    tag_127:\n        /* \"#utility.yul\":5885:5923   */\n      tag_129\n        /* \"#utility.yul\":5917:5921   */\n      dup3\n        /* \"#utility.yul\":5911:5922   */\n      sload\n        /* \"#utility.yul\":5885:5923   */\n      tag_19\n      jump\t// in\n    tag_129:\n        /* \"#utility.yul\":5970:6037   */\n      tag_130\n        /* \"#utility.yul\":6030:6036   */\n      dup3\n        /* \"#utility.yul\":6022:6028   */\n      dup3\n        /* \"#utility.yul\":6016:6020   */\n      dup6\n        /* \"#utility.yul\":5970:6037   */\n      tag_54\n      jump\t// in\n    tag_130:\n        /* \"#utility.yul\":6064:6065   */\n      0x00\n        /* \"#utility.yul\":6088:6092   */\n      0x20\n        /* \"#utility.yul\":6075:6092   */\n      swap1\n      pop\n        /* \"#utility.yul\":6120:6122   */\n      0x1f\n        /* \"#utility.yul\":6112:6118   */\n      dup4\n        /* \"#utility.yul\":6109:6123   */\n      gt\n        /* \"#utility.yul\":6137:6138   */\n      0x01\n        /* \"#utility.yul\":6132:6750   */\n      dup2\n      eq\n      tag_132\n      jumpi\n        /* \"#utility.yul\":6794:6795   */\n      0x00\n        /* \"#utility.yul\":6811:6817   */\n      dup5\n        /* \"#utility.yul\":6808:6885   */\n      iszero\n      tag_133\n      jumpi\n        /* \"#utility.yul\":6860:6869   */\n      dup3\n        /* \"#utility.yul\":6855:6858   */\n      dup8\n        /* \"#utility.yul\":6851:6870   */\n      add\n        /* \"#utility.yul\":6845:6871   */\n      mload\n        /* \"#utility.yul\":6836:6871   */\n      swap1\n      pop\n        /* \"#utility.yul\":6808:6885   */\n    tag_133:\n        /* \"#utility.yul\":6911:6978   */\n      tag_134\n        /* \"#utility.yul\":6971:6977   */\n      dup6\n        /* \"#utility.yul\":6964:6969   */\n      dup3\n        /* \"#utility.yul\":6911:6978   */\n      tag_57\n      jump\t// in\n    tag_134:\n        /* \"#utility.yul\":6905:6909   */\n      dup7\n        /* \"#utility.yul\":6898:6979   */\n      sstore\n        /* \"#utility.yul\":6767:6989   */\n      pop\n        /* \"#utility.yul\":6102:6989   */\n      jump(tag_131)\n        /* \"#utility.yul\":6132:6750   */\n    tag_132:\n        /* \"#utility.yul\":6184:6188   */\n      0x1f\n        /* \"#utility.yul\":6180:6189   */\n      not\n        /* \"#utility.yul\":6172:6178   */\n      dup5\n        /* \"#utility.yul\":6168:6190   */\n      and\n        /* \"#utility.yul\":6218:6255   */\n      tag_135\n        /* \"#utility.yul\":6250:6254   */\n      dup7\n        /* \"#utility.yul\":6218:6255   */\n      tag_43\n      jump\t// in\n    tag_135:\n        /* \"#utility.yul\":6277:6278   */\n      0x00\n        /* \"#utility.yul\":6291:6499   */\n    tag_136:\n        /* \"#utility.yul\":6305:6312   */\n      dup3\n        /* \"#utility.yul\":6302:6303   */\n      dup2\n        /* \"#utility.yul\":6299:6313   */\n      lt\n        /* \"#utility.yul\":6291:6499   */\n      iszero\n      tag_138\n      jumpi\n        /* \"#utility.yul\":6384:6393   */\n      dup5\n        /* \"#utility.yul\":6379:6382   */\n      dup10\n        /* \"#utility.yul\":6375:6394   */\n      add\n        /* \"#utility.yul\":6369:6395   */\n      mload\n        /* \"#utility.yul\":6361:6367   */\n      dup3\n        /* \"#utility.yul\":6354:6396   */\n      sstore\n        /* \"#utility.yul\":6435:6436   */\n      0x01\n        /* \"#utility.yul\":6427:6433   */\n      dup3\n        /* \"#utility.yul\":6423:6437   */\n      add\n        /* \"#utility.yul\":6413:6437   */\n      swap2\n      pop\n        /* \"#utility.yul\":6482:6484   */\n      0x20\n        /* \"#utility.yul\":6471:6480   */\n      dup6\n        /* \"#utility.yul\":6467:6485   */\n      add\n        /* \"#utility.yul\":6454:6485   */\n      swap5\n      pop\n        /* \"#utility.yul\":6328:6332   */\n      0x20\n        /* \"#utility.yul\":6325:6326   */\n      dup2\n        /* \"#utility.yul\":6321:6333   */\n      add\n        /* \"#utility.yul\":6316:6333   */\n      swap1\n      pop\n        /* \"#utility.yul\":6291:6499   */\n      jump(tag_136)\n    tag_138:\n        /* \"#utility.yul\":6527:6533   */\n      dup7\n        /* \"#utility.yul\":6518:6525   */\n      dup4\n        /* \"#utility.yul\":6515:6534   */\n      lt\n        /* \"#utility.yul\":6512:6691   */\n      iszero\n      tag_139\n      jumpi\n        /* \"#utility.yul\":6585:6594   */\n      dup5\n        /* \"#utility.yul\":6580:6583   */\n      dup10\n        /* \"#utility.yul\":6576:6595   */\n      add\n        /* \"#utility.yul\":6570:6596   */\n      mload\n        /* \"#utility.yul\":6628:6676   */\n      tag_140\n        /* \"#utility.yul\":6670:6674   */\n      0x1f\n        /* \"#utility.yul\":6662:6668   */\n      dup10\n        /* \"#utility.yul\":6658:6675   */\n      and\n        /* \"#utility.yul\":6647:6656   */\n      dup3\n        /* \"#utility.yul\":6628:6676   */\n      tag_56\n      jump\t// in\n    tag_140:\n        /* \"#utility.yul\":6620:6626   */\n      dup4\n        /* \"#utility.yul\":6613:6677   */\n      sstore\n        /* \"#utility.yul\":6535:6691   */\n      pop\n        /* \"#utility.yul\":6512:6691   */\n    tag_139:\n        /* \"#utility.yul\":6737:6738   */\n      0x01\n        /* \"#utility.yul\":6733:6734   */\n      0x02\n        /* \"#utility.yul\":6725:6731   */\n      dup9\n        /* \"#utility.yul\":6721:6735   */\n      mul\n        /* \"#utility.yul\":6717:6739   */\n      add\n        /* \"#utility.yul\":6711:6715   */\n      dup9\n        /* \"#utility.yul\":6704:6740   */\n      sstore\n        /* \"#utility.yul\":6139:6750   */\n      pop\n      pop\n      pop\n        /* \"#utility.yul\":6102:6989   */\n    tag_131:\n      pop\n        /* \"#utility.yul\":5692:6995   */\n      pop\n      pop\n      pop\n        /* \"#utility.yul\":5600:6995   */\n      pop\n      pop\n      jump\t// out\n        /* \"#utility.yul\":7001:7159   */\n    tag_58:\n        /* \"#utility.yul\":7141:7151   */\n      0x6167756176697661000000000000000000000000000000000000000000000000\n        /* \"#utility.yul\":7137:7138   */\n      0x00\n        /* \"#utility.yul\":7129:7135   */\n      dup3\n        /* \"#utility.yul\":7125:7139   */\n      add\n        /* \"#utility.yul\":7118:7152   */\n      mstore\n        /* \"#utility.yul\":7001:7159   */\n      pop\n      jump\t// out\n        /* \"#utility.yul\":7165:7530   */\n    tag_59:\n        /* \"#utility.yul\":7307:7310   */\n      0x00\n        /* \"#utility.yul\":7328:7394   */\n      tag_143\n        /* \"#utility.yul\":7392:7393   */\n      0x08\n        /* \"#utility.yul\":7387:7390   */\n      dup4\n        /* \"#utility.yul\":7328:7394   */\n      tag_35\n      jump\t// in\n    tag_143:\n        /* \"#utility.yul\":7321:7394   */\n      swap2\n      pop\n        /* \"#utility.yul\":7403:7496   */\n      tag_144\n        /* \"#utility.yul\":7492:7495   */\n      dup3\n        /* \"#utility.yul\":7403:7496   */\n      tag_58\n      jump\t// in\n    tag_144:\n        /* \"#utility.yul\":7521:7523   */\n      0x20\n        /* \"#utility.yul\":7516:7519   */\n      dup3\n        /* \"#utility.yul\":7512:7524   */\n      add\n        /* \"#utility.yul\":7505:7524   */\n      swap1\n      pop\n        /* \"#utility.yul\":7165:7530   */\n      swap2\n      swap1\n      pop\n      jump\t// out\n        /* \"#utility.yul\":7536:7701   */\n    tag_60:\n        /* \"#utility.yul\":7676:7693   */\n      0x55626972616379204e6f62726567610000000000000000000000000000000000\n        /* \"#utility.yul\":7672:7673   */\n      0x00\n        /* \"#utility.yul\":7664:7670   */\n      dup3\n        /* \"#utility.yul\":7660:7674   */\n      add\n        /* \"#utility.yul\":7653:7694   */\n      mstore\n        /* \"#utility.yul\":7536:7701   */\n      pop\n      jump\t// out\n        /* \"#utility.yul\":7707:8073   */\n    tag_61:\n        /* \"#utility.yul\":7849:7852   */\n      0x00\n        /* \"#utility.yul\":7870:7937   */\n      tag_147\n        /* \"#utility.yul\":7934:7936   */\n      0x0f\n        /* \"#utility.yul\":7929:7932   */\n      dup4\n        /* \"#utility.yul\":7870:7937   */\n      tag_35\n      jump\t// in\n    tag_147:\n        /* \"#utility.yul\":7863:7937   */\n      swap2\n      pop\n        /* \"#utility.yul\":7946:8039   */\n      tag_148\n        /* \"#utility.yul\":8035:8038   */\n      dup3\n        /* \"#utility.yul\":7946:8039   */\n      tag_60\n      jump\t// in\n    tag_148:\n        /* \"#utility.yul\":8064:8066   */\n      0x20\n        /* \"#utility.yul\":8059:8062   */\n      dup3\n        /* \"#utility.yul\":8055:8067   */\n      add\n        /* \"#utility.yul\":8048:8067   */\n      swap1\n      pop\n        /* \"#utility.yul\":7707:8073   */\n      swap2\n      swap1\n      pop\n      jump\t// out\n        /* \"#utility.yul\":8079:8330   */\n    tag_62:\n        /* \"#utility.yul\":8219:8253   */\n      0x6333636533666638613864353933613430623439316233316564666366646565\n        /* \"#utility.yul\":8215:8216   */\n      0x00\n        /* \"#utility.yul\":8207:8213   */\n      dup3\n        /* \"#utility.yul\":8203:8217   */\n      add\n        /* \"#utility.yul\":8196:8254   */\n      mstore\n        /* \"#utility.yul\":8288:8322   */\n      0x3165313337623066396231373561356564663765613566383432646566323962\n        /* \"#utility.yul\":8283:8285   */\n      0x20\n        /* \"#utility.yul\":8275:8281   */\n      dup3\n        /* \"#utility.yul\":8271:8286   */\n      add\n        /* \"#utility.yul\":8264:8323   */\n      mstore\n        /* \"#utility.yul\":8079:8330   */\n      pop\n      jump\t// out\n        /* \"#utility.yul\":8336:8702   */\n    tag_63:\n        /* \"#utility.yul\":8478:8481   */\n      0x00\n        /* \"#utility.yul\":8499:8566   */\n      tag_151\n        /* \"#utility.yul\":8563:8565   */\n      0x40\n        /* \"#utility.yul\":8558:8561   */\n      dup4\n        /* \"#utility.yul\":8499:8566   */\n      tag_35\n      jump\t// in\n    tag_151:\n        /* \"#utility.yul\":8492:8566   */\n      swap2\n      pop\n        /* \"#utility.yul\":8575:8668   */\n      tag_152\n        /* \"#utility.yul\":8664:8667   */\n      dup3\n        /* \"#utility.yul\":8575:8668   */\n      tag_62\n      jump\t// in\n    tag_152:\n        /* \"#utility.yul\":8693:8695   */\n      0x40\n        /* \"#utility.yul\":8688:8691   */\n      dup3\n        /* \"#utility.yul\":8684:8696   */\n      add\n        /* \"#utility.yul\":8677:8696   */\n      swap1\n      pop\n        /* \"#utility.yul\":8336:8702   */\n      swap2\n      swap1\n      pop\n      jump\t// out\n        /* \"#utility.yul\":8708:9852   */\n    tag_17:\n        /* \"#utility.yul\":9104:9108   */\n      0x00\n        /* \"#utility.yul\":9142:9145   */\n      0x80\n        /* \"#utility.yul\":9131:9140   */\n      dup3\n        /* \"#utility.yul\":9127:9146   */\n      add\n        /* \"#utility.yul\":9119:9146   */\n      swap1\n      pop\n        /* \"#utility.yul\":9192:9201   */\n      dup2\n        /* \"#utility.yul\":9186:9190   */\n      dup2\n        /* \"#utility.yul\":9182:9202   */\n      sub\n        /* \"#utility.yul\":9178:9179   */\n      0x00\n        /* \"#utility.yul\":9167:9176   */\n      dup4\n        /* \"#utility.yul\":9163:9180   */\n      add\n        /* \"#utility.yul\":9156:9203   */\n      mstore\n        /* \"#utility.yul\":9220:9351   */\n      tag_154\n        /* \"#utility.yul\":9346:9350   */\n      dup2\n        /* \"#utility.yul\":9220:9351   */\n      tag_59\n      jump\t// in\n    tag_154:\n        /* \"#utility.yul\":9212:9351   */\n      swap1\n      pop\n        /* \"#utility.yul\":9398:9407   */\n      dup2\n        /* \"#utility.yul\":9392:9396   */\n      dup2\n        /* \"#utility.yul\":9388:9408   */\n      sub\n        /* \"#utility.yul\":9383:9385   */\n      0x20\n        /* \"#utility.yul\":9372:9381   */\n      dup4\n        /* \"#utility.yul\":9368:9386   */\n      add\n        /* \"#utility.yul\":9361:9409   */\n      mstore\n        /* \"#utility.yul\":9426:9557   */\n      tag_155\n        /* \"#utility.yul\":9552:9556   */\n      dup2\n        /* \"#utility.yul\":9426:9557   */\n      tag_61\n      jump\t// in\n    tag_155:\n        /* \"#utility.yul\":9418:9557   */\n      swap1\n      pop\n        /* \"#utility.yul\":9604:9613   */\n      dup2\n        /* \"#utility.yul\":9598:9602   */\n      dup2\n        /* \"#utility.yul\":9594:9614   */\n      sub\n        /* \"#utility.yul\":9589:9591   */\n      0x40\n        /* \"#utility.yul\":9578:9587   */\n      dup4\n        /* \"#utility.yul\":9574:9592   */\n      add\n        /* \"#utility.yul\":9567:9615   */\n      mstore\n        /* \"#utility.yul\":9632:9763   */\n      tag_156\n        /* \"#utility.yul\":9758:9762   */\n      dup2\n        /* \"#utility.yul\":9632:9763   */\n      tag_63\n      jump\t// in\n    tag_156:\n        /* \"#utility.yul\":9624:9763   */\n      swap1\n      pop\n        /* \"#utility.yul\":9773:9845   */\n      tag_157\n        /* \"#utility.yul\":9841:9843   */\n      0x60\n        /* \"#utility.yul\":9830:9839   */\n      dup4\n        /* \"#utility.yul\":9826:9844   */\n      add\n        /* \"#utility.yul\":9817:9823   */\n      dup5\n        /* \"#utility.yul\":9773:9845   */\n      tag_40\n      jump\t// in\n    tag_157:\n        /* \"#utility.yul\":8708:9852   */\n      swap3\n      swap2\n      pop\n      pop\n      jump\t// out\n    stop\n    data_2e5e361c165a5a6706098b1806961da8eaf58b5799dada1cf71d39853c2f3ef9 63336365336666386138643539336134306234393162333165646663666465653165313337623066396231373561356564663765613566383432646566323962\n\n    auxdata: 0xa26469706673582212200e4855c7c4cac2623e24e8ac2f63399bfbc05112a0cd80b0909310f70eb641c864736f6c634300081f0033\n}\n",
				"bytecode": {
					"linkReferences": {},
					"object": "6080604052348015600e575f5ffd5b506108e08061001c5f395ff3fe608060405234801561000f575f5ffd5b5060043610610034575f3560e01c80632470630214610038578063c074659914610042575b5f5ffd5b610040610063565b005b61004a61018d565b60405161005a94939291906103c3565b60405180910390f35b60405180608001604052806040518060400160405280600881526020017f616775617669766100000000000000000000000000000000000000000000000081525081526020016040518060400160405280600f81526020017f55626972616379204e6f62726567610000000000000000000000000000000000815250815260200160405180606001604052806040815260200161086b604091398152602001428152505f5f820151815f01908161011a9190610645565b5060208201518160010190816101309190610645565b5060408201518160020190816101469190610645565b50606082015181600301559050507f3107446757a34de3700cff428fda92d9dfb1d59456e9d71b4afc7ead606e00d0426040516101839190610818565b60405180910390a1565b5f805f01805461019c90610475565b80601f01602080910402602001604051908101604052809291908181526020018280546101c890610475565b80156102135780601f106101ea57610100808354040283529160200191610213565b820191905f5260205f20905b8154815290600101906020018083116101f657829003601f168201915b50505050509080600101805461022890610475565b80601f016020809104026020016040519081016040528092919081815260200182805461025490610475565b801561029f5780601f106102765761010080835404028352916020019161029f565b820191905f5260205f20905b81548152906001019060200180831161028257829003601f168201915b5050505050908060020180546102b490610475565b80601f01602080910402602001604051908101604052809291908181526020018280546102e090610475565b801561032b5780601f106103025761010080835404028352916020019161032b565b820191905f5260205f20905b81548152906001019060200180831161030e57829003601f168201915b5050505050908060030154905084565b5f81519050919050565b5f82825260208201905092915050565b8281835e5f83830152505050565b5f601f19601f8301169050919050565b5f61037d8261033b565b6103878185610345565b9350610397818560208601610355565b6103a081610363565b840191505092915050565b5f819050919050565b6103bd816103ab565b82525050565b5f6080820190508181035f8301526103db8187610373565b905081810360208301526103ef8186610373565b905081810360408301526104038185610373565b905061041260608301846103b4565b95945050505050565b7f4e487b71000000000000000000000000000000000000000000000000000000005f52604160045260245ffd5b7f4e487b71000000000000000000000000000000000000000000000000000000005f52602260045260245ffd5b5f600282049050600182168061048c57607f821691505b60208210810361049f5761049e610448565b5b50919050565b5f819050815f5260205f209050919050565b5f6020601f8301049050919050565b5f82821b905092915050565b5f600883026105017fffffffffffffffffffffffffffffffffffffffffffffffffffffffffffffffff826104c6565b61050b86836104c6565b95508019841693508086168417925050509392505050565b5f819050919050565b5f61054661054161053c846103ab565b610523565b6103ab565b9050919050565b5f819050919050565b61055f8361052c565b61057361056b8261054d565b8484546104d2565b825550505050565b5f5f905090565b61058a61057b565b610595818484610556565b505050565b5b818110156105b8576105ad5f82610582565b60018101905061059b565b5050565b601f8211156105fd576105ce816104a5565b6105d7846104b7565b810160208510156105e6578190505b6105fa6105f2856104b7565b83018261059a565b50505b505050565b5f82821c905092915050565b5f61061d5f1984600802610602565b1980831691505092915050565b5f610635838361060e565b9150826002028217905092915050565b61064e8261033b565b67ffffffffffffffff8111156106675761066661041b565b5b6106718254610475565b61067c8282856105bc565b5f60209050601f8311600181146106ad575f841561069b578287015190505b6106a5858261062a565b86555061070c565b601f1984166106bb866104a5565b5f5b828110156106e2578489015182556001820191506020850194506020810190506106bd565b868310156106ff57848901516106fb601f89168261060e565b8355505b6001600288020188555050505b505050505050565b7f61677561766976610000000000000000000000000000000000000000000000005f82015250565b5f610748600883610345565b915061075382610714565b602082019050919050565b7f55626972616379204e6f627265676100000000000000000000000000000000005f82015250565b5f610792600f83610345565b915061079d8261075e565b602082019050919050565b7f63336365336666386138643539336134306234393162333165646663666465655f8201527f3165313337623066396231373561356564663765613566383432646566323962602082015250565b5f610802604083610345565b915061080d826107a8565b604082019050919050565b5f6080820190508181035f83015261082f8161073c565b9050818103602083015261084281610786565b90508181036040830152610855816107f6565b905061086460608301846103b4565b9291505056fe63336365336666386138643539336134306234393162333165646663666465653165313337623066396231373561356564663765613566383432646566323962a26469706673582212200e4855c7c4cac2623e24e8ac2f63399bfbc05112a0cd80b0909310f70eb641c864736f6c634300081f0033",
					"opcodes": "PUSH1 0x80 PUSH1 0x40 MSTORE CALLVALUE DUP1 ISZERO PUSH1 0xE JUMPI PUSH0 PUSH0 REVERT JUMPDEST POP PUSH2 0x8E0 DUP1 PUSH2 0x1C PUSH0 CODECOPY PUSH0 RETURN INVALID PUSH1 0x80 PUSH1 0x40 MSTORE CALLVALUE DUP1 ISZERO PUSH2 0xF JUMPI PUSH0 PUSH0 REVERT JUMPDEST POP PUSH1 0x4 CALLDATASIZE LT PUSH2 0x34 JUMPI PUSH0 CALLDATALOAD PUSH1 0xE0 SHR DUP1 PUSH4 0x24706302 EQ PUSH2 0x38 JUMPI DUP1 PUSH4 0xC0746599 EQ PUSH2 0x42 JUMPI JUMPDEST PUSH0 PUSH0 REVERT JUMPDEST PUSH2 0x40 PUSH2 0x63 JUMP JUMPDEST STOP JUMPDEST PUSH2 0x4A PUSH2 0x18D JUMP JUMPDEST PUSH1 0x40 MLOAD PUSH2 0x5A SWAP5 SWAP4 SWAP3 SWAP2 SWAP1 PUSH2 0x3C3 JUMP JUMPDEST PUSH1 0x40 MLOAD DUP1 SWAP2 SUB SWAP1 RETURN JUMPDEST PUSH1 0x40 MLOAD DUP1 PUSH1 0x80 ADD PUSH1 0x40 MSTORE DUP1 PUSH1 0x40 MLOAD DUP1 PUSH1 0x40 ADD PUSH1 0x40 MSTORE DUP1 PUSH1 0x8 DUP2 MSTORE PUSH1 0x20 ADD PUSH32 0x6167756176697661000000000000000000000000000000000000000000000000 DUP2 MSTORE POP DUP2 MSTORE PUSH1 0x20 ADD PUSH1 0x40 MLOAD DUP1 PUSH1 0x40 ADD PUSH1 0x40 MSTORE DUP1 PUSH1 0xF DUP2 MSTORE PUSH1 0x20 ADD PUSH32 0x55626972616379204E6F62726567610000000000000000000000000000000000 DUP2 MSTORE POP DUP2 MSTORE PUSH1 0x20 ADD PUSH1 0x40 MLOAD DUP1 PUSH1 0x60 ADD PUSH1 0x40 MSTORE DUP1 PUSH1 0x40 DUP2 MSTORE PUSH1 0x20 ADD PUSH2 0x86B PUSH1 0x40 SWAP2 CODECOPY DUP2 MSTORE PUSH1 0x20 ADD TIMESTAMP DUP2 MSTORE POP PUSH0 PUSH0 DUP3 ADD MLOAD DUP2 PUSH0 ADD SWAP1 DUP2 PUSH2 0x11A SWAP2 SWAP1 PUSH2 0x645 JUMP JUMPDEST POP PUSH1 0x20 DUP3 ADD MLOAD DUP2 PUSH1 0x1 ADD SWAP1 DUP2 PUSH2 0x130 SWAP2 SWAP1 PUSH2 0x645 JUMP JUMPDEST POP PUSH1 0x40 DUP3 ADD MLOAD DUP2 PUSH1 0x2 ADD SWAP1 DUP2 PUSH2 0x146 SWAP2 SWAP1 PUSH2 0x645 JUMP JUMPDEST POP PUSH1 0x60 DUP3 ADD MLOAD DUP2 PUSH1 0x3 ADD SSTORE SWAP1 POP POP PUSH32 0x3107446757A34DE3700CFF428FDA92D9DFB1D59456E9D71B4AFC7EAD606E00D0 TIMESTAMP PUSH1 0x40 MLOAD PUSH2 0x183 SWAP2 SWAP1 PUSH2 0x818 JUMP JUMPDEST PUSH1 0x40 MLOAD DUP1 SWAP2 SUB SWAP1 LOG1 JUMP JUMPDEST PUSH0 DUP1 PUSH0 ADD DUP1 SLOAD PUSH2 0x19C SWAP1 PUSH2 0x475 JUMP JUMPDEST DUP1 PUSH1 0x1F ADD PUSH1 0x20 DUP1 SWAP2 DIV MUL PUSH1 0x20 ADD PUSH1 0x40 MLOAD SWAP1 DUP2 ADD PUSH1 0x40 MSTORE DUP1 SWAP3 SWAP2 SWAP1 DUP2 DUP2 MSTORE PUSH1 0x20 ADD DUP3 DUP1 SLOAD PUSH2 0x1C8 SWAP1 PUSH2 0x475 JUMP JUMPDEST DUP1 ISZERO PUSH2 0x213 JUMPI DUP1 PUSH1 0x1F LT PUSH2 0x1EA JUMPI PUSH2 0x100 DUP1 DUP4 SLOAD DIV MUL DUP4 MSTORE SWAP2 PUSH1 0x20 ADD SWAP2 PUSH2 0x213 JUMP JUMPDEST DUP3 ADD SWAP2 SWAP1 PUSH0 MSTORE PUSH1 0x20 PUSH0 KECCAK256 SWAP1 JUMPDEST DUP2 SLOAD DUP2 MSTORE SWAP1 PUSH1 0x1 ADD SWAP1 PUSH1 0x20 ADD DUP1 DUP4 GT PUSH2 0x1F6 JUMPI DUP3 SWAP1 SUB PUSH1 0x1F AND DUP3 ADD SWAP2 JUMPDEST POP POP POP POP POP SWAP1 DUP1 PUSH1 0x1 ADD DUP1 SLOAD PUSH2 0x228 SWAP1 PUSH2 0x475 JUMP JUMPDEST DUP1 PUSH1 0x1F ADD PUSH1 0x20 DUP1 SWAP2 DIV MUL PUSH1 0x20 ADD PUSH1 0x40 MLOAD SWAP1 DUP2 ADD PUSH1 0x40 MSTORE DUP1 SWAP3 SWAP2 SWAP1 DUP2 DUP2 MSTORE PUSH1 0x20 ADD DUP3 DUP1 SLOAD PUSH2 0x254 SWAP1 PUSH2 0x475 JUMP JUMPDEST DUP1 ISZERO PUSH2 0x29F JUMPI DUP1 PUSH1 0x1F LT PUSH2 0x276 JUMPI PUSH2 0x100 DUP1 DUP4 SLOAD DIV MUL DUP4 MSTORE SWAP2 PUSH1 0x20 ADD SWAP2 PUSH2 0x29F JUMP JUMPDEST DUP3 ADD SWAP2 SWAP1 PUSH0 MSTORE PUSH1 0x20 PUSH0 KECCAK256 SWAP1 JUMPDEST DUP2 SLOAD DUP2 MSTORE SWAP1 PUSH1 0x1 ADD SWAP1 PUSH1 0x20 ADD DUP1 DUP4 GT PUSH2 0x282 JUMPI DUP3 SWAP1 SUB PUSH1 0x1F AND DUP3 ADD SWAP2 JUMPDEST POP POP POP POP POP SWAP1 DUP1 PUSH1 0x2 ADD DUP1 SLOAD PUSH2 0x2B4 SWAP1 PUSH2 0x475 JUMP JUMPDEST DUP1 PUSH1 0x1F ADD PUSH1 0x20 DUP1 SWAP2 DIV MUL PUSH1 0x20 ADD PUSH1 0x40 MLOAD SWAP1 DUP2 ADD PUSH1 0x40 MSTORE DUP1 SWAP3 SWAP2 SWAP1 DUP2 DUP2 MSTORE PUSH1 0x20 ADD DUP3 DUP1 SLOAD PUSH2 0x2E0 SWAP1 PUSH2 0x475 JUMP JUMPDEST DUP1 ISZERO PUSH2 0x32B JUMPI DUP1 PUSH1 0x1F LT PUSH2 0x302 JUMPI PUSH2 0x100 DUP1 DUP4 SLOAD DIV MUL DUP4 MSTORE SWAP2 PUSH1 0x20 ADD SWAP2 PUSH2 0x32B JUMP JUMPDEST DUP3 ADD SWAP2 SWAP1 PUSH0 MSTORE PUSH1 0x20 PUSH0 KECCAK256 SWAP1 JUMPDEST DUP2 SLOAD DUP2 MSTORE SWAP1 PUSH1 0x1 ADD SWAP1 PUSH1 0x20 ADD DUP1 DUP4 GT PUSH2 0x30E JUMPI DUP3 SWAP1 SUB PUSH1 0x1F AND DUP3 ADD SWAP2 JUMPDEST POP POP POP POP POP SWAP1 DUP1 PUSH1 0x3 ADD SLOAD SWAP1 POP DUP5 JUMP JUMPDEST PUSH0 DUP2 MLOAD SWAP1 POP SWAP2 SWAP1 POP JUMP JUMPDEST PUSH0 DUP3 DUP3 MSTORE PUSH1 0x20 DUP3 ADD SWAP1 POP SWAP3 SWAP2 POP POP JUMP JUMPDEST DUP3 DUP2 DUP4 MCOPY PUSH0 DUP4 DUP4 ADD MSTORE POP POP POP JUMP JUMPDEST PUSH0 PUSH1 0x1F NOT PUSH1 0x1F DUP4 ADD AND SWAP1 POP SWAP2 SWAP1 POP JUMP JUMPDEST PUSH0 PUSH2 0x37D DUP3 PUSH2 0x33B JUMP JUMPDEST PUSH2 0x387 DUP2 DUP6 PUSH2 0x345 JUMP JUMPDEST SWAP4 POP PUSH2 0x397 DUP2 DUP6 PUSH1 0x20 DUP7 ADD PUSH2 0x355 JUMP JUMPDEST PUSH2 0x3A0 DUP2 PUSH2 0x363 JUMP JUMPDEST DUP5 ADD SWAP2 POP POP SWAP3 SWAP2 POP POP JUMP JUMPDEST PUSH0 DUP2 SWAP1 POP SWAP2 SWAP1 POP JUMP JUMPDEST PUSH2 0x3BD DUP2 PUSH2 0x3AB JUMP JUMPDEST DUP3 MSTORE POP POP JUMP JUMPDEST PUSH0 PUSH1 0x80 DUP3 ADD SWAP1 POP DUP2 DUP2 SUB PUSH0 DUP4 ADD MSTORE PUSH2 0x3DB DUP2 DUP8 PUSH2 0x373 JUMP JUMPDEST SWAP1 POP DUP2 DUP2 SUB PUSH1 0x20 DUP4 ADD MSTORE PUSH2 0x3EF DUP2 DUP7 PUSH2 0x373 JUMP JUMPDEST SWAP1 POP DUP2 DUP2 SUB PUSH1 0x40 DUP4 ADD MSTORE PUSH2 0x403 DUP2 DUP6 PUSH2 0x373 JUMP JUMPDEST SWAP1 POP PUSH2 0x412 PUSH1 0x60 DUP4 ADD DUP5 PUSH2 0x3B4 JUMP JUMPDEST SWAP6 SWAP5 POP POP POP POP POP JUMP JUMPDEST PUSH32 0x4E487B7100000000000000000000000000000000000000000000000000000000 PUSH0 MSTORE PUSH1 0x41 PUSH1 0x4 MSTORE PUSH1 0x24 PUSH0 REVERT JUMPDEST PUSH32 0x4E487B7100000000000000000000000000000000000000000000000000000000 PUSH0 MSTORE PUSH1 0x22 PUSH1 0x4 MSTORE PUSH1 0x24 PUSH0 REVERT JUMPDEST PUSH0 PUSH1 0x2 DUP3 DIV SWAP1 POP PUSH1 0x1 DUP3 AND DUP1 PUSH2 0x48C JUMPI PUSH1 0x7F DUP3 AND SWAP2 POP JUMPDEST PUSH1 0x20 DUP3 LT DUP2 SUB PUSH2 0x49F JUMPI PUSH2 0x49E PUSH2 0x448 JUMP JUMPDEST JUMPDEST POP SWAP2 SWAP1 POP JUMP JUMPDEST PUSH0 DUP2 SWAP1 POP DUP2 PUSH0 MSTORE PUSH1 0x20 PUSH0 KECCAK256 SWAP1 POP SWAP2 SWAP1 POP JUMP JUMPDEST PUSH0 PUSH1 0x20 PUSH1 0x1F DUP4 ADD DIV SWAP1 POP SWAP2 SWAP1 POP JUMP JUMPDEST PUSH0 DUP3 DUP3 SHL SWAP1 POP SWAP3 SWAP2 POP POP JUMP JUMPDEST PUSH0 PUSH1 0x8 DUP4 MUL PUSH2 0x501 PUSH32 0xFFFFFFFFFFFFFFFFFFFFFFFFFFFFFFFFFFFFFFFFFFFFFFFFFFFFFFFFFFFFFFFF DUP3 PUSH2 0x4C6 JUMP JUMPDEST PUSH2 0x50B DUP7 DUP4 PUSH2 0x4C6 JUMP JUMPDEST SWAP6 POP DUP1 NOT DUP5 AND SWAP4 POP DUP1 DUP7 AND DUP5 OR SWAP3 POP POP POP SWAP4 SWAP3 POP POP POP JUMP JUMPDEST PUSH0 DUP2 SWAP1 POP SWAP2 SWAP1 POP JUMP JUMPDEST PUSH0 PUSH2 0x546 PUSH2 0x541 PUSH2 0x53C DUP5 PUSH2 0x3AB JUMP JUMPDEST PUSH2 0x523 JUMP JUMPDEST PUSH2 0x3AB JUMP JUMPDEST SWAP1 POP SWAP2 SWAP1 POP JUMP JUMPDEST PUSH0 DUP2 SWAP1 POP SWAP2 SWAP1 POP JUMP JUMPDEST PUSH2 0x55F DUP4 PUSH2 0x52C JUMP JUMPDEST PUSH2 0x573 PUSH2 0x56B DUP3 PUSH2 0x54D JUMP JUMPDEST DUP5 DUP5 SLOAD PUSH2 0x4D2 JUMP JUMPDEST DUP3 SSTORE POP POP POP POP JUMP JUMPDEST PUSH0 PUSH0 SWAP1 POP SWAP1 JUMP JUMPDEST PUSH2 0x58A PUSH2 0x57B JUMP JUMPDEST PUSH2 0x595 DUP2 DUP5 DUP5 PUSH2 0x556 JUMP JUMPDEST POP POP POP JUMP JUMPDEST JUMPDEST DUP2 DUP2 LT ISZERO PUSH2 0x5B8 JUMPI PUSH2 0x5AD PUSH0 DUP3 PUSH2 0x582 JUMP JUMPDEST PUSH1 0x1 DUP2 ADD SWAP1 POP PUSH2 0x59B JUMP JUMPDEST POP POP JUMP JUMPDEST PUSH1 0x1F DUP3 GT ISZERO PUSH2 0x5FD JUMPI PUSH2 0x5CE DUP2 PUSH2 0x4A5 JUMP JUMPDEST PUSH2 0x5D7 DUP5 PUSH2 0x4B7 JUMP JUMPDEST DUP2 ADD PUSH1 0x20 DUP6 LT ISZERO PUSH2 0x5E6 JUMPI DUP2 SWAP1 POP JUMPDEST PUSH2 0x5FA PUSH2 0x5F2 DUP6 PUSH2 0x4B7 JUMP JUMPDEST DUP4 ADD DUP3 PUSH2 0x59A JUMP JUMPDEST POP POP JUMPDEST POP POP POP JUMP JUMPDEST PUSH0 DUP3 DUP3 SHR SWAP1 POP SWAP3 SWAP2 POP POP JUMP JUMPDEST PUSH0 PUSH2 0x61D PUSH0 NOT DUP5 PUSH1 0x8 MUL PUSH2 0x602 JUMP JUMPDEST NOT DUP1 DUP4 AND SWAP2 POP POP SWAP3 SWAP2 POP POP JUMP JUMPDEST PUSH0 PUSH2 0x635 DUP4 DUP4 PUSH2 0x60E JUMP JUMPDEST SWAP2 POP DUP3 PUSH1 0x2 MUL DUP3 OR SWAP1 POP SWAP3 SWAP2 POP POP JUMP JUMPDEST PUSH2 0x64E DUP3 PUSH2 0x33B JUMP JUMPDEST PUSH8 0xFFFFFFFFFFFFFFFF DUP2 GT ISZERO PUSH2 0x667 JUMPI PUSH2 0x666 PUSH2 0x41B JUMP JUMPDEST JUMPDEST PUSH2 0x671 DUP3 SLOAD PUSH2 0x475 JUMP JUMPDEST PUSH2 0x67C DUP3 DUP3 DUP6 PUSH2 0x5BC JUMP JUMPDEST PUSH0 PUSH1 0x20 SWAP1 POP PUSH1 0x1F DUP4 GT PUSH1 0x1 DUP2 EQ PUSH2 0x6AD JUMPI PUSH0 DUP5 ISZERO PUSH2 0x69B JUMPI DUP3 DUP8 ADD MLOAD SWAP1 POP JUMPDEST PUSH2 0x6A5 DUP6 DUP3 PUSH2 0x62A JUMP JUMPDEST DUP7 SSTORE POP PUSH2 0x70C JUMP JUMPDEST PUSH1 0x1F NOT DUP5 AND PUSH2 0x6BB DUP7 PUSH2 0x4A5 JUMP JUMPDEST PUSH0 JUMPDEST DUP3 DUP2 LT ISZERO PUSH2 0x6E2 JUMPI DUP5 DUP10 ADD MLOAD DUP3 SSTORE PUSH1 0x1 DUP3 ADD SWAP2 POP PUSH1 0x20 DUP6 ADD SWAP5 POP PUSH1 0x20 DUP2 ADD SWAP1 POP PUSH2 0x6BD JUMP JUMPDEST DUP7 DUP4 LT ISZERO PUSH2 0x6FF JUMPI DUP5 DUP10 ADD MLOAD PUSH2 0x6FB PUSH1 0x1F DUP10 AND DUP3 PUSH2 0x60E JUMP JUMPDEST DUP4 SSTORE POP JUMPDEST PUSH1 0x1 PUSH1 0x2 DUP9 MUL ADD DUP9 SSTORE POP POP POP JUMPDEST POP POP POP POP POP POP JUMP JUMPDEST PUSH32 0x6167756176697661000000000000000000000000000000000000000000000000 PUSH0 DUP3 ADD MSTORE POP JUMP JUMPDEST PUSH0 PUSH2 0x748 PUSH1 0x8 DUP4 PUSH2 0x345 JUMP JUMPDEST SWAP2 POP PUSH2 0x753 DUP3 PUSH2 0x714 JUMP JUMPDEST PUSH1 0x20 DUP3 ADD SWAP1 POP SWAP2 SWAP1 POP JUMP JUMPDEST PUSH32 0x55626972616379204E6F62726567610000000000000000000000000000000000 PUSH0 DUP3 ADD MSTORE POP JUMP JUMPDEST PUSH0 PUSH2 0x792 PUSH1 0xF DUP4 PUSH2 0x345 JUMP JUMPDEST SWAP2 POP PUSH2 0x79D DUP3 PUSH2 0x75E JUMP JUMPDEST PUSH1 0x20 DUP3 ADD SWAP1 POP SWAP2 SWAP1 POP JUMP JUMPDEST PUSH32 0x6333636533666638613864353933613430623439316233316564666366646565 PUSH0 DUP3 ADD MSTORE PUSH32 0x3165313337623066396231373561356564663765613566383432646566323962 PUSH1 0x20 DUP3 ADD MSTORE POP JUMP JUMPDEST PUSH0 PUSH2 0x802 PUSH1 0x40 DUP4 PUSH2 0x345 JUMP JUMPDEST SWAP2 POP PUSH2 0x80D DUP3 PUSH2 0x7A8 JUMP JUMPDEST PUSH1 0x40 DUP3 ADD SWAP1 POP SWAP2 SWAP1 POP JUMP JUMPDEST PUSH0 PUSH1 0x80 DUP3 ADD SWAP1 POP DUP2 DUP2 SUB PUSH0 DUP4 ADD MSTORE PUSH2 0x82F DUP2 PUSH2 0x73C JUMP JUMPDEST SWAP1 POP DUP2 DUP2 SUB PUSH1 0x20 DUP4 ADD MSTORE PUSH2 0x842 DUP2 PUSH2 0x786 JUMP JUMPDEST SWAP1 POP DUP2 DUP2 SUB PUSH1 0x40 DUP4 ADD MSTORE PUSH2 0x855 DUP2 PUSH2 0x7F6 JUMP JUMPDEST SWAP1 POP PUSH2 0x864 PUSH1 0x60 DUP4 ADD DUP5 PUSH2 0x3B4 JUMP JUMPDEST SWAP3 SWAP2 POP POP JUMP INVALID PUSH4 0x33636533 PUSH7 0x66386138643539 CALLER PUSH2 0x3430 PUSH3 0x343931 PUSH3 0x333165 PUSH5 0x6663666465 PUSH6 0x316531333762 ADDRESS PUSH7 0x39623137356135 PUSH6 0x646637656135 PUSH7 0x38343264656632 CODECOPY PUSH3 0xA26469 PUSH17 0x6673582212200E4855C7C4CAC2623E24E8 0xAC 0x2F PUSH4 0x399BFBC0 MLOAD SLT LOG0 0xCD DUP1 0xB0 SWAP1 SWAP4 LT 0xF7 0xE 0xB6 COINBASE 0xC8 PUSH5 0x736F6C6343 STOP ADDMOD 0x1F STOP CALLER "
				},
				"gasEstimates": {
					"creation": {
						"codeDepositCost": "454400",
						"executionCost": "484",
						"totalCost": "454884"
					},
					"external": {
						"registrarMusica()": "infinite",
						"ultimaMusica()": "infinite"
					}
				},
				"methodIdentifiers": {
					"registrarMusica()": "24706302",
					"ultimaMusica()": "c0746599"
				}
			},
			"storageLayout": {
				"storage": [
					{
						"astId": 13,
						"contract": "tests/RegistroMusica.sol:RegistroMusica",
						"label": "ultimaMusica",
						"offset": 0,
						"slot": "0",
						"type": "t_struct(Musica)10_storage"
					}
				],
				"types": {
					"t_string_storage": {
						"encoding": "bytes",
						"label": "string",
						"numberOfBytes": "32"
					},
					"t_struct(Musica)10_storage": {
						"encoding": "inplace",
						"label": "struct RegistroMusica.Musica",
						"members": [
							{
								"astId": 3,
								"contract": "tests/RegistroMusica.sol:RegistroMusica",
								"label": "titulo",
								"offset": 0,
								"slot": "0",
								"type": "t_string_storage"
							},
							{
								"astId": 5,
								"contract": "tests/RegistroMusica.sol:RegistroMusica",
								"label": "autor",
								"offset": 0,
								"slot": "1",
								"type": "t_string_storage"
							},
							{
								"astId": 7,
								"contract": "tests/RegistroMusica.sol:RegistroMusica",
								"label": "hashArquivo",
								"offset": 0,
								"slot": "2",
								"type": "t_string_storage"
							},
							{
								"astId": 9,
								"contract": "tests/RegistroMusica.sol:RegistroMusica",
								"label": "dataRegistro",
								"offset": 0,
								"slot": "3",
								"type": "t_uint256"
							}
						],
						"numberOfBytes": "128"
					},
					"t_uint256": {
						"encoding": "inplace",
						"label": "uint256",
						"numberOfBytes": "32"
					}
				}
			},
			"userdoc": {
				"kind": "user",
				"methods": {},
				"version": 1
			}
		}
	}
}